{
	"voting.sol": {
		"Voting": {
			"abi": [
				{
					"anonymous": false,
					"inputs": [
						{
							"indexed": true,
							"internalType": "uint256",
							"name": "proposalId",
							"type": "uint256"
						},
						{
							"indexed": false,
							"internalType": "string",
							"name": "name",
							"type": "string"
						},
						{
							"indexed": true,
							"internalType": "address",
							"name": "creator",
							"type": "address"
						}
					],
					"name": "ProposalCreated",
					"type": "event"
				},
				{
					"anonymous": false,
					"inputs": [
						{
							"indexed": true,
							"internalType": "uint256",
							"name": "proposalId",
							"type": "uint256"
						},
						{
							"indexed": false,
							"internalType": "string",
							"name": "newName",
							"type": "string"
						}
					],
					"name": "ProposalEdited",
					"type": "event"
				},
				{
					"anonymous": false,
					"inputs": [
						{
							"indexed": true,
							"internalType": "uint256",
							"name": "proposalId",
							"type": "uint256"
						},
						{
							"indexed": true,
							"internalType": "address",
							"name": "voter",
							"type": "address"
						}
					],
					"name": "VoteUndone",
					"type": "event"
				},
				{
					"anonymous": false,
					"inputs": [
						{
							"indexed": true,
							"internalType": "uint256",
							"name": "proposalId",
							"type": "uint256"
						},
						{
							"indexed": true,
							"internalType": "address",
							"name": "voter",
							"type": "address"
						}
					],
					"name": "Voted",
					"type": "event"
				},
				{
					"inputs": [
						{
							"internalType": "string",
							"name": "name",
							"type": "string"
						},
						{
							"internalType": "string",
							"name": "description",
							"type": "string"
						},
						{
							"internalType": "uint256",
							"name": "startDate",
							"type": "uint256"
						},
						{
							"internalType": "uint256",
							"name": "endDate",
							"type": "uint256"
						}
					],
					"name": "createProposal",
					"outputs": [],
					"stateMutability": "nonpayable",
					"type": "function"
				},
				{
					"inputs": [
						{
							"internalType": "uint256",
							"name": "proposalId",
							"type": "uint256"
						},
						{
							"internalType": "string",
							"name": "newName",
							"type": "string"
						},
						{
							"internalType": "string",
							"name": "newDescription",
							"type": "string"
						}
					],
					"name": "editProposal",
					"outputs": [],
					"stateMutability": "nonpayable",
					"type": "function"
				},
				{
					"inputs": [],
					"name": "getAllProposals",
					"outputs": [
						{
							"components": [
								{
									"internalType": "string",
									"name": "name",
									"type": "string"
								},
								{
									"internalType": "string",
									"name": "description",
									"type": "string"
								},
								{
									"internalType": "uint256",
									"name": "voteCount",
									"type": "uint256"
								},
								{
									"internalType": "uint256",
									"name": "startDate",
									"type": "uint256"
								},
								{
									"internalType": "uint256",
									"name": "endDate",
									"type": "uint256"
								},
								{
									"internalType": "address",
									"name": "creator",
									"type": "address"
								}
							],
							"internalType": "struct Voting.Proposal[]",
							"name": "",
							"type": "tuple[]"
						}
					],
					"stateMutability": "view",
					"type": "function"
				},
				{
					"inputs": [
						{
							"internalType": "uint256",
							"name": "proposalId",
							"type": "uint256"
						}
					],
					"name": "getProposal",
					"outputs": [
						{
							"internalType": "string",
							"name": "",
							"type": "string"
						},
						{
							"internalType": "string",
							"name": "",
							"type": "string"
						},
						{
							"internalType": "uint256",
							"name": "",
							"type": "uint256"
						},
						{
							"internalType": "uint256",
							"name": "",
							"type": "uint256"
						},
						{
							"internalType": "uint256",
							"name": "",
							"type": "uint256"
						},
						{
							"internalType": "address",
							"name": "",
							"type": "address"
						}
					],
					"stateMutability": "view",
					"type": "function"
				},
				{
					"inputs": [],
					"name": "getTotalProposals",
					"outputs": [
						{
							"internalType": "uint256",
							"name": "",
							"type": "uint256"
						}
					],
					"stateMutability": "view",
					"type": "function"
				},
				{
					"inputs": [
						{
							"internalType": "uint256",
							"name": "",
							"type": "uint256"
						},
						{
							"internalType": "address",
							"name": "",
							"type": "address"
						}
					],
					"name": "hasVoted",
					"outputs": [
						{
							"internalType": "bool",
							"name": "",
							"type": "bool"
						}
					],
					"stateMutability": "view",
					"type": "function"
				},
				{
					"inputs": [
						{
							"internalType": "uint256",
							"name": "",
							"type": "uint256"
						}
					],
					"name": "proposals",
					"outputs": [
						{
							"internalType": "string",
							"name": "name",
							"type": "string"
						},
						{
							"internalType": "string",
							"name": "description",
							"type": "string"
						},
						{
							"internalType": "uint256",
							"name": "voteCount",
							"type": "uint256"
						},
						{
							"internalType": "uint256",
							"name": "startDate",
							"type": "uint256"
						},
						{
							"internalType": "uint256",
							"name": "endDate",
							"type": "uint256"
						},
						{
							"internalType": "address",
							"name": "creator",
							"type": "address"
						}
					],
					"stateMutability": "view",
					"type": "function"
				},
				{
					"inputs": [
						{
							"internalType": "uint256",
							"name": "proposalId",
							"type": "uint256"
						}
					],
					"name": "undoVote",
					"outputs": [],
					"stateMutability": "nonpayable",
					"type": "function"
				},
				{
					"inputs": [
						{
							"internalType": "uint256",
							"name": "proposalId",
							"type": "uint256"
						}
					],
					"name": "vote",
					"outputs": [],
					"stateMutability": "nonpayable",
					"type": "function"
				}
			],
			"devdoc": {
				"kind": "dev",
				"methods": {},
				"version": 1
			},
			"evm": {
				"assembly": "    /* \"voting.sol\":91:3417  contract Voting {... */\n  mstore(0x40, 0x80)\n  callvalue\n  dup1\n  iszero\n  tag_1\n  jumpi\n  0x00\n  dup1\n  revert\ntag_1:\n  pop\n  dataSize(sub_0)\n  dup1\n  dataOffset(sub_0)\n  0x00\n  codecopy\n  0x00\n  return\nstop\n\nsub_0: assembly {\n        /* \"voting.sol\":91:3417  contract Voting {... */\n      mstore(0x40, 0x80)\n      callvalue\n      dup1\n      iszero\n      tag_1\n      jumpi\n      0x00\n      dup1\n      revert\n    tag_1:\n      pop\n      jumpi(tag_2, lt(calldatasize, 0x04))\n      shr(0xe0, calldataload(0x00))\n      dup1\n      0x6b5e1766\n      gt\n      tag_12\n      jumpi\n      dup1\n      0x6b5e1766\n      eq\n      tag_7\n      jumpi\n      dup1\n      0xb01f3cae\n      eq\n      tag_8\n      jumpi\n      dup1\n      0xbc34c544\n      eq\n      tag_9\n      jumpi\n      dup1\n      0xc7f758a8\n      eq\n      tag_10\n      jumpi\n      dup1\n      0xcceb68f5\n      eq\n      tag_11\n      jumpi\n      jump(tag_2)\n    tag_12:\n      dup1\n      0x0121b93f\n      eq\n      tag_3\n      jumpi\n      dup1\n      0x013cf08b\n      eq\n      tag_4\n      jumpi\n      dup1\n      0x1a5007dd\n      eq\n      tag_5\n      jumpi\n      dup1\n      0x43859632\n      eq\n      tag_6\n      jumpi\n    tag_2:\n      0x00\n      dup1\n      revert\n        /* \"voting.sol\":1643:2192  function vote(uint256 proposalId) public {... */\n    tag_3:\n      tag_13\n      0x04\n      dup1\n      calldatasize\n      sub\n      dup2\n      add\n      swap1\n      tag_14\n      swap2\n      swap1\n      tag_15\n      jump\t// in\n    tag_14:\n      tag_16\n      jump\t// in\n    tag_13:\n      stop\n        /* \"voting.sol\":295:322  Proposal[] public proposals */\n    tag_4:\n      tag_17\n      0x04\n      dup1\n      calldatasize\n      sub\n      dup2\n      add\n      swap1\n      tag_18\n      swap2\n      swap1\n      tag_15\n      jump\t// in\n    tag_18:\n      tag_19\n      jump\t// in\n    tag_17:\n      mload(0x40)\n      tag_20\n      swap7\n      swap6\n      swap5\n      swap4\n      swap3\n      swap2\n      swap1\n      tag_21\n      jump\t// in\n    tag_20:\n      mload(0x40)\n      dup1\n      swap2\n      sub\n      swap1\n      return\n        /* \"voting.sol\":3316:3415  function getTotalProposals() public view returns (uint256) {... */\n    tag_5:\n      tag_22\n      tag_23\n      jump\t// in\n    tag_22:\n      mload(0x40)\n      tag_24\n      swap2\n      swap1\n      tag_25\n      jump\t// in\n    tag_24:\n      mload(0x40)\n      dup1\n      swap2\n      sub\n      swap1\n      return\n        /* \"voting.sol\":328:388  mapping(uint256 => mapping(address => bool)) public hasVoted */\n    tag_6:\n      tag_26\n      0x04\n      dup1\n      calldatasize\n      sub\n      dup2\n      add\n      swap1\n      tag_27\n      swap2\n      swap1\n      tag_28\n      jump\t// in\n    tag_27:\n      tag_29\n      jump\t// in\n    tag_26:\n      mload(0x40)\n      tag_30\n      swap2\n      swap1\n      tag_31\n      jump\t// in\n    tag_30:\n      mload(0x40)\n      dup1\n      swap2\n      sub\n      swap1\n      return\n        /* \"voting.sol\":730:1228  function createProposal(... */\n    tag_7:\n      tag_32\n      0x04\n      dup1\n      calldatasize\n      sub\n      dup2\n      add\n      swap1\n      tag_33\n      swap2\n      swap1\n      tag_34\n      jump\t// in\n    tag_33:\n      tag_35\n      jump\t// in\n    tag_32:\n      stop\n        /* \"voting.sol\":2198:2593  function undoVote(uint256 proposalId) public {... */\n    tag_8:\n      tag_36\n      0x04\n      dup1\n      calldatasize\n      sub\n      dup2\n      add\n      swap1\n      tag_37\n      swap2\n      swap1\n      tag_15\n      jump\t// in\n    tag_37:\n      tag_38\n      jump\t// in\n    tag_36:\n      stop\n        /* \"voting.sol\":1234:1637  function editProposal(... */\n    tag_9:\n      tag_39\n      0x04\n      dup1\n      calldatasize\n      sub\n      dup2\n      add\n      swap1\n      tag_40\n      swap2\n      swap1\n      tag_41\n      jump\t// in\n    tag_40:\n      tag_42\n      jump\t// in\n    tag_39:\n      stop\n        /* \"voting.sol\":2599:3204  function getProposal(... */\n    tag_10:\n      tag_43\n      0x04\n      dup1\n      calldatasize\n      sub\n      dup2\n      add\n      swap1\n      tag_44\n      swap2\n      swap1\n      tag_15\n      jump\t// in\n    tag_44:\n      tag_45\n      jump\t// in\n    tag_43:\n      mload(0x40)\n      tag_46\n      swap7\n      swap6\n      swap5\n      swap4\n      swap3\n      swap2\n      swap1\n      tag_21\n      jump\t// in\n    tag_46:\n      mload(0x40)\n      dup1\n      swap2\n      sub\n      swap1\n      return\n        /* \"voting.sol\":3210:3310  function getAllProposals() public view returns (Proposal[] memory) {... */\n    tag_11:\n      tag_47\n      tag_48\n      jump\t// in\n    tag_47:\n      mload(0x40)\n      tag_49\n      swap2\n      swap1\n      tag_50\n      jump\t// in\n    tag_49:\n      mload(0x40)\n      dup1\n      swap2\n      sub\n      swap1\n      return\n        /* \"voting.sol\":1643:2192  function vote(uint256 proposalId) public {... */\n    tag_16:\n        /* \"voting.sol\":1715:1724  proposals */\n      0x00\n        /* \"voting.sol\":1715:1731  proposals.length */\n      dup1\n      sload\n      swap1\n      pop\n        /* \"voting.sol\":1702:1712  proposalId */\n      dup2\n        /* \"voting.sol\":1702:1731  proposalId < proposals.length */\n      lt\n        /* \"voting.sol\":1694:1759  require(proposalId < proposals.length, \"Proposal does not exist\") */\n      tag_52\n      jumpi\n      mload(0x40)\n      0x08c379a000000000000000000000000000000000000000000000000000000000\n      dup2\n      mstore\n      0x04\n      add\n      tag_53\n      swap1\n      tag_54\n      jump\t// in\n    tag_53:\n      mload(0x40)\n      dup1\n      swap2\n      sub\n      swap1\n      revert\n    tag_52:\n        /* \"voting.sol\":1770:1794  Proposal memory proposal */\n      tag_55\n      tag_56\n      jump\t// in\n    tag_55:\n        /* \"voting.sol\":1797:1806  proposals */\n      0x00\n        /* \"voting.sol\":1807:1817  proposalId */\n      dup3\n        /* \"voting.sol\":1797:1818  proposals[proposalId] */\n      dup2\n      sload\n      dup2\n      lt\n      tag_57\n      jumpi\n      invalid\n    tag_57:\n      swap1\n      0x00\n      mstore\n      keccak256(0x00, 0x20)\n      swap1\n      0x06\n      mul\n      add\n        /* \"voting.sol\":1770:1818  Proposal memory proposal = proposals[proposalId] */\n      mload(0x40)\n      dup1\n      0xc0\n      add\n      0x40\n      mstore\n      swap1\n      dup2\n      0x00\n      dup3\n      add\n      dup1\n      sload\n      0x01\n      dup2\n      0x01\n      and\n      iszero\n      0x0100\n      mul\n      sub\n      and\n      0x02\n      swap1\n      div\n      dup1\n      0x1f\n      add\n      0x20\n      dup1\n      swap2\n      div\n      mul\n      0x20\n      add\n      mload(0x40)\n      swap1\n      dup2\n      add\n      0x40\n      mstore\n      dup1\n      swap3\n      swap2\n      swap1\n      dup2\n      dup2\n      mstore\n      0x20\n      add\n      dup3\n      dup1\n      sload\n      0x01\n      dup2\n      0x01\n      and\n      iszero\n      0x0100\n      mul\n      sub\n      and\n      0x02\n      swap1\n      div\n      dup1\n      iszero\n      tag_59\n      jumpi\n      dup1\n      0x1f\n      lt\n      tag_60\n      jumpi\n      0x0100\n      dup1\n      dup4\n      sload\n      div\n      mul\n      dup4\n      mstore\n      swap2\n      0x20\n      add\n      swap2\n      jump(tag_59)\n    tag_60:\n      dup3\n      add\n      swap2\n      swap1\n      0x00\n      mstore\n      keccak256(0x00, 0x20)\n      swap1\n    tag_61:\n      dup2\n      sload\n      dup2\n      mstore\n      swap1\n      0x01\n      add\n      swap1\n      0x20\n      add\n      dup1\n      dup4\n      gt\n      tag_61\n      jumpi\n      dup3\n      swap1\n      sub\n      0x1f\n      and\n      dup3\n      add\n      swap2\n    tag_59:\n      pop\n      pop\n      pop\n      pop\n      pop\n      dup2\n      mstore\n      0x20\n      add\n      0x01\n      dup3\n      add\n      dup1\n      sload\n      0x01\n      dup2\n      0x01\n      and\n      iszero\n      0x0100\n      mul\n      sub\n      and\n      0x02\n      swap1\n      div\n      dup1\n      0x1f\n      add\n      0x20\n      dup1\n      swap2\n      div\n      mul\n      0x20\n      add\n      mload(0x40)\n      swap1\n      dup2\n      add\n      0x40\n      mstore\n      dup1\n      swap3\n      swap2\n      swap1\n      dup2\n      dup2\n      mstore\n      0x20\n      add\n      dup3\n      dup1\n      sload\n      0x01\n      dup2\n      0x01\n      and\n      iszero\n      0x0100\n      mul\n      sub\n      and\n      0x02\n      swap1\n      div\n      dup1\n      iszero\n      tag_62\n      jumpi\n      dup1\n      0x1f\n      lt\n      tag_63\n      jumpi\n      0x0100\n      dup1\n      dup4\n      sload\n      div\n      mul\n      dup4\n      mstore\n      swap2\n      0x20\n      add\n      swap2\n      jump(tag_62)\n    tag_63:\n      dup3\n      add\n      swap2\n      swap1\n      0x00\n      mstore\n      keccak256(0x00, 0x20)\n      swap1\n    tag_64:\n      dup2\n      sload\n      dup2\n      mstore\n      swap1\n      0x01\n      add\n      swap1\n      0x20\n      add\n      dup1\n      dup4\n      gt\n      tag_64\n      jumpi\n      dup3\n      swap1\n      sub\n      0x1f\n      and\n      dup3\n      add\n      swap2\n    tag_62:\n      pop\n      pop\n      pop\n      pop\n      pop\n      dup2\n      mstore\n      0x20\n      add\n      0x02\n      dup3\n      add\n      sload\n      dup2\n      mstore\n      0x20\n      add\n      0x03\n      dup3\n      add\n      sload\n      dup2\n      mstore\n      0x20\n      add\n      0x04\n      dup3\n      add\n      sload\n      dup2\n      mstore\n      0x20\n      add\n      0x05\n      dup3\n      add\n      0x00\n      swap1\n      sload\n      swap1\n      0x0100\n      exp\n      swap1\n      div\n      0xffffffffffffffffffffffffffffffffffffffff\n      and\n      0xffffffffffffffffffffffffffffffffffffffff\n      and\n      0xffffffffffffffffffffffffffffffffffffffff\n      and\n      dup2\n      mstore\n      pop\n      pop\n      swap1\n      pop\n        /* \"voting.sol\":1855:1863  proposal */\n      dup1\n        /* \"voting.sol\":1855:1873  proposal.startDate */\n      0x60\n      add\n      mload\n        /* \"voting.sol\":1836:1851  block.timestamp */\n      timestamp\n        /* \"voting.sol\":1836:1873  block.timestamp >= proposal.startDate */\n      lt\n      iszero\n        /* \"voting.sol\":1836:1912  block.timestamp >= proposal.startDate && block.timestamp <= proposal.endDate */\n      dup1\n      iszero\n      tag_65\n      jumpi\n      pop\n        /* \"voting.sol\":1896:1904  proposal */\n      dup1\n        /* \"voting.sol\":1896:1912  proposal.endDate */\n      0x80\n      add\n      mload\n        /* \"voting.sol\":1877:1892  block.timestamp */\n      timestamp\n        /* \"voting.sol\":1877:1912  block.timestamp <= proposal.endDate */\n      gt\n      iszero\n        /* \"voting.sol\":1836:1912  block.timestamp >= proposal.startDate && block.timestamp <= proposal.endDate */\n    tag_65:\n        /* \"voting.sol\":1828:1951  require(block.timestamp >= proposal.startDate && block.timestamp <= proposal.endDate, \"Voting is not allowed at this time\") */\n      tag_66\n      jumpi\n      mload(0x40)\n      0x08c379a000000000000000000000000000000000000000000000000000000000\n      dup2\n      mstore\n      0x04\n      add\n      tag_67\n      swap1\n      tag_68\n      jump\t// in\n    tag_67:\n      mload(0x40)\n      dup1\n      swap2\n      sub\n      swap1\n      revert\n    tag_66:\n        /* \"voting.sol\":1971:1979  hasVoted */\n      0x01\n        /* \"voting.sol\":1971:1991  hasVoted[proposalId] */\n      0x00\n        /* \"voting.sol\":1980:1990  proposalId */\n      dup4\n        /* \"voting.sol\":1971:1991  hasVoted[proposalId] */\n      dup2\n      mstore\n      0x20\n      add\n      swap1\n      dup2\n      mstore\n      0x20\n      add\n      0x00\n      keccak256\n        /* \"voting.sol\":1971:2003  hasVoted[proposalId][msg.sender] */\n      0x00\n        /* \"voting.sol\":1992:2002  msg.sender */\n      caller\n        /* \"voting.sol\":1971:2003  hasVoted[proposalId][msg.sender] */\n      0xffffffffffffffffffffffffffffffffffffffff\n      and\n      0xffffffffffffffffffffffffffffffffffffffff\n      and\n      dup2\n      mstore\n      0x20\n      add\n      swap1\n      dup2\n      mstore\n      0x20\n      add\n      0x00\n      keccak256\n      0x00\n      swap1\n      sload\n      swap1\n      0x0100\n      exp\n      swap1\n      div\n      0xff\n      and\n        /* \"voting.sol\":1970:2003  !hasVoted[proposalId][msg.sender] */\n      iszero\n        /* \"voting.sol\":1962:2047  require(!hasVoted[proposalId][msg.sender], \"You have already voted on this proposal\") */\n      tag_69\n      jumpi\n      mload(0x40)\n      0x08c379a000000000000000000000000000000000000000000000000000000000\n      dup2\n      mstore\n      0x04\n      add\n      tag_70\n      swap1\n      tag_71\n      jump\t// in\n    tag_70:\n      mload(0x40)\n      dup1\n      swap2\n      sub\n      swap1\n      revert\n    tag_69:\n        /* \"voting.sol\":2058:2067  proposals */\n      0x00\n        /* \"voting.sol\":2068:2078  proposalId */\n      dup3\n        /* \"voting.sol\":2058:2079  proposals[proposalId] */\n      dup2\n      sload\n      dup2\n      lt\n      tag_72\n      jumpi\n      invalid\n    tag_72:\n      swap1\n      0x00\n      mstore\n      keccak256(0x00, 0x20)\n      swap1\n      0x06\n      mul\n      add\n        /* \"voting.sol\":2058:2089  proposals[proposalId].voteCount */\n      0x02\n      add\n      0x00\n        /* \"voting.sol\":2058:2091  proposals[proposalId].voteCount++ */\n      dup2\n      sload\n      dup1\n      swap3\n      swap2\n      swap1\n      0x01\n      add\n      swap2\n      swap1\n      pop\n      sstore\n      pop\n        /* \"voting.sol\":2136:2140  true */\n      0x01\n        /* \"voting.sol\":2101:2109  hasVoted */\n      dup1\n        /* \"voting.sol\":2101:2121  hasVoted[proposalId] */\n      0x00\n        /* \"voting.sol\":2110:2120  proposalId */\n      dup5\n        /* \"voting.sol\":2101:2121  hasVoted[proposalId] */\n      dup2\n      mstore\n      0x20\n      add\n      swap1\n      dup2\n      mstore\n      0x20\n      add\n      0x00\n      keccak256\n        /* \"voting.sol\":2101:2133  hasVoted[proposalId][msg.sender] */\n      0x00\n        /* \"voting.sol\":2122:2132  msg.sender */\n      caller\n        /* \"voting.sol\":2101:2133  hasVoted[proposalId][msg.sender] */\n      0xffffffffffffffffffffffffffffffffffffffff\n      and\n      0xffffffffffffffffffffffffffffffffffffffff\n      and\n      dup2\n      mstore\n      0x20\n      add\n      swap1\n      dup2\n      mstore\n      0x20\n      add\n      0x00\n      keccak256\n      0x00\n        /* \"voting.sol\":2101:2140  hasVoted[proposalId][msg.sender] = true */\n      0x0100\n      exp\n      dup2\n      sload\n      dup2\n      0xff\n      mul\n      not\n      and\n      swap1\n      dup4\n      iszero\n      iszero\n      mul\n      or\n      swap1\n      sstore\n      pop\n        /* \"voting.sol\":2174:2184  msg.sender */\n      caller\n        /* \"voting.sol\":2156:2185  Voted(proposalId, msg.sender) */\n      0xffffffffffffffffffffffffffffffffffffffff\n      and\n        /* \"voting.sol\":2162:2172  proposalId */\n      dup3\n        /* \"voting.sol\":2156:2185  Voted(proposalId, msg.sender) */\n      0x030b0f8dcd86a031eddb071f91882edeac8173663ba775713b677b42b51be44b\n      mload(0x40)\n      mload(0x40)\n      dup1\n      swap2\n      sub\n      swap1\n      log3\n        /* \"voting.sol\":1643:2192  function vote(uint256 proposalId) public {... */\n      pop\n      pop\n      jump\t// out\n        /* \"voting.sol\":295:322  Proposal[] public proposals */\n    tag_19:\n      0x00\n      dup2\n      dup2\n      sload\n      dup2\n      lt\n      tag_74\n      jumpi\n      invalid\n    tag_74:\n      swap1\n      0x00\n      mstore\n      keccak256(0x00, 0x20)\n      swap1\n      0x06\n      mul\n      add\n      0x00\n      swap2\n      pop\n      swap1\n      pop\n      dup1\n      0x00\n      add\n      dup1\n      sload\n      0x01\n      dup2\n      0x01\n      and\n      iszero\n      0x0100\n      mul\n      sub\n      and\n      0x02\n      swap1\n      div\n      dup1\n      0x1f\n      add\n      0x20\n      dup1\n      swap2\n      div\n      mul\n      0x20\n      add\n      mload(0x40)\n      swap1\n      dup2\n      add\n      0x40\n      mstore\n      dup1\n      swap3\n      swap2\n      swap1\n      dup2\n      dup2\n      mstore\n      0x20\n      add\n      dup3\n      dup1\n      sload\n      0x01\n      dup2\n      0x01\n      and\n      iszero\n      0x0100\n      mul\n      sub\n      and\n      0x02\n      swap1\n      div\n      dup1\n      iszero\n      tag_76\n      jumpi\n      dup1\n      0x1f\n      lt\n      tag_77\n      jumpi\n      0x0100\n      dup1\n      dup4\n      sload\n      div\n      mul\n      dup4\n      mstore\n      swap2\n      0x20\n      add\n      swap2\n      jump(tag_76)\n    tag_77:\n      dup3\n      add\n      swap2\n      swap1\n      0x00\n      mstore\n      keccak256(0x00, 0x20)\n      swap1\n    tag_78:\n      dup2\n      sload\n      dup2\n      mstore\n      swap1\n      0x01\n      add\n      swap1\n      0x20\n      add\n      dup1\n      dup4\n      gt\n      tag_78\n      jumpi\n      dup3\n      swap1\n      sub\n      0x1f\n      and\n      dup3\n      add\n      swap2\n    tag_76:\n      pop\n      pop\n      pop\n      pop\n      pop\n      swap1\n      dup1\n      0x01\n      add\n      dup1\n      sload\n      0x01\n      dup2\n      0x01\n      and\n      iszero\n      0x0100\n      mul\n      sub\n      and\n      0x02\n      swap1\n      div\n      dup1\n      0x1f\n      add\n      0x20\n      dup1\n      swap2\n      div\n      mul\n      0x20\n      add\n      mload(0x40)\n      swap1\n      dup2\n      add\n      0x40\n      mstore\n      dup1\n      swap3\n      swap2\n      swap1\n      dup2\n      dup2\n      mstore\n      0x20\n      add\n      dup3\n      dup1\n      sload\n      0x01\n      dup2\n      0x01\n      and\n      iszero\n      0x0100\n      mul\n      sub\n      and\n      0x02\n      swap1\n      div\n      dup1\n      iszero\n      tag_79\n      jumpi\n      dup1\n      0x1f\n      lt\n      tag_80\n      jumpi\n      0x0100\n      dup1\n      dup4\n      sload\n      div\n      mul\n      dup4\n      mstore\n      swap2\n      0x20\n      add\n      swap2\n      jump(tag_79)\n    tag_80:\n      dup3\n      add\n      swap2\n      swap1\n      0x00\n      mstore\n      keccak256(0x00, 0x20)\n      swap1\n    tag_81:\n      dup2\n      sload\n      dup2\n      mstore\n      swap1\n      0x01\n      add\n      swap1\n      0x20\n      add\n      dup1\n      dup4\n      gt\n      tag_81\n      jumpi\n      dup3\n      swap1\n      sub\n      0x1f\n      and\n      dup3\n      add\n      swap2\n    tag_79:\n      pop\n      pop\n      pop\n      pop\n      pop\n      swap1\n      dup1\n      0x02\n      add\n      sload\n      swap1\n      dup1\n      0x03\n      add\n      sload\n      swap1\n      dup1\n      0x04\n      add\n      sload\n      swap1\n      dup1\n      0x05\n      add\n      0x00\n      swap1\n      sload\n      swap1\n      0x0100\n      exp\n      swap1\n      div\n      0xffffffffffffffffffffffffffffffffffffffff\n      and\n      swap1\n      pop\n      dup7\n      jump\t// out\n        /* \"voting.sol\":3316:3415  function getTotalProposals() public view returns (uint256) {... */\n    tag_23:\n        /* \"voting.sol\":3366:3373  uint256 */\n      0x00\n        /* \"voting.sol\":3392:3401  proposals */\n      dup1\n        /* \"voting.sol\":3392:3408  proposals.length */\n      dup1\n      sload\n      swap1\n      pop\n        /* \"voting.sol\":3385:3408  return proposals.length */\n      swap1\n      pop\n        /* \"voting.sol\":3316:3415  function getTotalProposals() public view returns (uint256) {... */\n      swap1\n      jump\t// out\n        /* \"voting.sol\":328:388  mapping(uint256 => mapping(address => bool)) public hasVoted */\n    tag_29:\n      mstore(0x20, 0x01)\n      dup2\n      0x00\n      mstore\n      mstore(0x20, keccak256(0x00, 0x40))\n      dup1\n      0x00\n      mstore\n      keccak256(0x00, 0x40)\n      0x00\n      swap2\n      pop\n      swap2\n      pop\n      swap1\n      sload\n      swap1\n      0x0100\n      exp\n      swap1\n      div\n      0xff\n      and\n      dup2\n      jump\t// out\n        /* \"voting.sol\":730:1228  function createProposal(... */\n    tag_35:\n        /* \"voting.sol\":892:910  uint256 proposalId */\n      0x00\n        /* \"voting.sol\":913:922  proposals */\n      dup1\n        /* \"voting.sol\":913:929  proposals.length */\n      dup1\n      sload\n      swap1\n      pop\n        /* \"voting.sol\":892:929  uint256 proposalId = proposals.length */\n      swap1\n      pop\n        /* \"voting.sol\":939:948  proposals */\n      0x00\n        /* \"voting.sol\":954:1159  Proposal({... */\n      mload(0x40)\n      dup1\n      0xc0\n      add\n      0x40\n      mstore\n      dup1\n        /* \"voting.sol\":983:987  name */\n      dup8\n        /* \"voting.sol\":954:1159  Proposal({... */\n      dup2\n      mstore\n      0x20\n      add\n        /* \"voting.sol\":1014:1025  description */\n      dup7\n        /* \"voting.sol\":954:1159  Proposal({... */\n      dup2\n      mstore\n      0x20\n      add\n        /* \"voting.sol\":1050:1051  0 */\n      0x00\n        /* \"voting.sol\":954:1159  Proposal({... */\n      dup2\n      mstore\n      0x20\n      add\n        /* \"voting.sol\":1076:1085  startDate */\n      dup6\n        /* \"voting.sol\":954:1159  Proposal({... */\n      dup2\n      mstore\n      0x20\n      add\n        /* \"voting.sol\":1108:1115  endDate */\n      dup5\n        /* \"voting.sol\":954:1159  Proposal({... */\n      dup2\n      mstore\n      0x20\n      add\n        /* \"voting.sol\":1138:1148  msg.sender */\n      caller\n        /* \"voting.sol\":954:1159  Proposal({... */\n      0xffffffffffffffffffffffffffffffffffffffff\n      and\n      dup2\n      mstore\n      pop\n        /* \"voting.sol\":939:1160  proposals.push(Proposal({... */\n      swap1\n      dup1\n      0x01\n      dup2\n      sload\n      add\n      dup1\n      dup3\n      sstore\n      dup1\n      swap2\n      pop\n      pop\n      0x01\n      swap1\n      sub\n      swap1\n      0x00\n      mstore\n      keccak256(0x00, 0x20)\n      swap1\n      0x06\n      mul\n      add\n      0x00\n      swap1\n      swap2\n      swap1\n      swap2\n      swap1\n      swap2\n      pop\n      0x00\n      dup3\n      add\n      mload\n      dup2\n      0x00\n      add\n      swap1\n      dup1\n      mload\n      swap1\n      0x20\n      add\n      swap1\n      tag_85\n      swap3\n      swap2\n      swap1\n      tag_86\n      jump\t// in\n    tag_85:\n      pop\n      0x20\n      dup3\n      add\n      mload\n      dup2\n      0x01\n      add\n      swap1\n      dup1\n      mload\n      swap1\n      0x20\n      add\n      swap1\n      tag_87\n      swap3\n      swap2\n      swap1\n      tag_86\n      jump\t// in\n    tag_87:\n      pop\n      0x40\n      dup3\n      add\n      mload\n      dup2\n      0x02\n      add\n      sstore\n      0x60\n      dup3\n      add\n      mload\n      dup2\n      0x03\n      add\n      sstore\n      0x80\n      dup3\n      add\n      mload\n      dup2\n      0x04\n      add\n      sstore\n      0xa0\n      dup3\n      add\n      mload\n      dup2\n      0x05\n      add\n      exp(0x0100, 0x00)\n      dup2\n      sload\n      dup2\n      0xffffffffffffffffffffffffffffffffffffffff\n      mul\n      not\n      and\n      swap1\n      dup4\n      0xffffffffffffffffffffffffffffffffffffffff\n      and\n      mul\n      or\n      swap1\n      sstore\n      pop\n      pop\n      pop\n        /* \"voting.sol\":1210:1220  msg.sender */\n      caller\n        /* \"voting.sol\":1176:1221  ProposalCreated(proposalId, name, msg.sender) */\n      0xffffffffffffffffffffffffffffffffffffffff\n      and\n        /* \"voting.sol\":1192:1202  proposalId */\n      dup2\n        /* \"voting.sol\":1176:1221  ProposalCreated(proposalId, name, msg.sender) */\n      0xc8c078bfee58e5822588f08b4509ed1eb5058e03f666cca84dd2d44bf5c288a8\n        /* \"voting.sol\":1204:1208  name */\n      dup8\n        /* \"voting.sol\":1176:1221  ProposalCreated(proposalId, name, msg.sender) */\n      mload(0x40)\n      tag_88\n      swap2\n      swap1\n      tag_89\n      jump\t// in\n    tag_88:\n      mload(0x40)\n      dup1\n      swap2\n      sub\n      swap1\n      log3\n        /* \"voting.sol\":730:1228  function createProposal(... */\n      pop\n      pop\n      pop\n      pop\n      pop\n      jump\t// out\n        /* \"voting.sol\":2198:2593  function undoVote(uint256 proposalId) public {... */\n    tag_38:\n        /* \"voting.sol\":2274:2283  proposals */\n      0x00\n        /* \"voting.sol\":2274:2290  proposals.length */\n      dup1\n      sload\n      swap1\n      pop\n        /* \"voting.sol\":2261:2271  proposalId */\n      dup2\n        /* \"voting.sol\":2261:2290  proposalId < proposals.length */\n      lt\n        /* \"voting.sol\":2253:2318  require(proposalId < proposals.length, \"Proposal does not exist\") */\n      tag_91\n      jumpi\n      mload(0x40)\n      0x08c379a000000000000000000000000000000000000000000000000000000000\n      dup2\n      mstore\n      0x04\n      add\n      tag_92\n      swap1\n      tag_54\n      jump\t// in\n    tag_92:\n      mload(0x40)\n      dup1\n      swap2\n      sub\n      swap1\n      revert\n    tag_91:\n        /* \"voting.sol\":2337:2345  hasVoted */\n      0x01\n        /* \"voting.sol\":2337:2357  hasVoted[proposalId] */\n      0x00\n        /* \"voting.sol\":2346:2356  proposalId */\n      dup3\n        /* \"voting.sol\":2337:2357  hasVoted[proposalId] */\n      dup2\n      mstore\n      0x20\n      add\n      swap1\n      dup2\n      mstore\n      0x20\n      add\n      0x00\n      keccak256\n        /* \"voting.sol\":2337:2369  hasVoted[proposalId][msg.sender] */\n      0x00\n        /* \"voting.sol\":2358:2368  msg.sender */\n      caller\n        /* \"voting.sol\":2337:2369  hasVoted[proposalId][msg.sender] */\n      0xffffffffffffffffffffffffffffffffffffffff\n      and\n      0xffffffffffffffffffffffffffffffffffffffff\n      and\n      dup2\n      mstore\n      0x20\n      add\n      swap1\n      dup2\n      mstore\n      0x20\n      add\n      0x00\n      keccak256\n      0x00\n      swap1\n      sload\n      swap1\n      0x0100\n      exp\n      swap1\n      div\n      0xff\n      and\n        /* \"voting.sol\":2329:2409  require(hasVoted[proposalId][msg.sender], \"You have not voted on this proposal\") */\n      tag_93\n      jumpi\n      mload(0x40)\n      0x08c379a000000000000000000000000000000000000000000000000000000000\n      dup2\n      mstore\n      0x04\n      add\n      tag_94\n      swap1\n      tag_95\n      jump\t// in\n    tag_94:\n      mload(0x40)\n      dup1\n      swap2\n      sub\n      swap1\n      revert\n    tag_93:\n        /* \"voting.sol\":2420:2429  proposals */\n      0x00\n        /* \"voting.sol\":2430:2440  proposalId */\n      dup2\n        /* \"voting.sol\":2420:2441  proposals[proposalId] */\n      dup2\n      sload\n      dup2\n      lt\n      tag_96\n      jumpi\n      invalid\n    tag_96:\n      swap1\n      0x00\n      mstore\n      keccak256(0x00, 0x20)\n      swap1\n      0x06\n      mul\n      add\n        /* \"voting.sol\":2420:2451  proposals[proposalId].voteCount */\n      0x02\n      add\n      0x00\n        /* \"voting.sol\":2420:2453  proposals[proposalId].voteCount-- */\n      dup2\n      sload\n      dup1\n      swap3\n      swap2\n      swap1\n      0x01\n      swap1\n      sub\n      swap2\n      swap1\n      pop\n      sstore\n      pop\n        /* \"voting.sol\":2498:2503  false */\n      0x00\n        /* \"voting.sol\":2463:2471  hasVoted */\n      0x01\n        /* \"voting.sol\":2463:2483  hasVoted[proposalId] */\n      0x00\n        /* \"voting.sol\":2472:2482  proposalId */\n      dup4\n        /* \"voting.sol\":2463:2483  hasVoted[proposalId] */\n      dup2\n      mstore\n      0x20\n      add\n      swap1\n      dup2\n      mstore\n      0x20\n      add\n      0x00\n      keccak256\n        /* \"voting.sol\":2463:2495  hasVoted[proposalId][msg.sender] */\n      0x00\n        /* \"voting.sol\":2484:2494  msg.sender */\n      caller\n        /* \"voting.sol\":2463:2495  hasVoted[proposalId][msg.sender] */\n      0xffffffffffffffffffffffffffffffffffffffff\n      and\n      0xffffffffffffffffffffffffffffffffffffffff\n      and\n      dup2\n      mstore\n      0x20\n      add\n      swap1\n      dup2\n      mstore\n      0x20\n      add\n      0x00\n      keccak256\n      0x00\n        /* \"voting.sol\":2463:2503  hasVoted[proposalId][msg.sender] = false */\n      0x0100\n      exp\n      dup2\n      sload\n      dup2\n      0xff\n      mul\n      not\n      and\n      swap1\n      dup4\n      iszero\n      iszero\n      mul\n      or\n      swap1\n      sstore\n      pop\n        /* \"voting.sol\":2575:2585  msg.sender */\n      caller\n        /* \"voting.sol\":2552:2586  VoteUndone(proposalId, msg.sender) */\n      0xffffffffffffffffffffffffffffffffffffffff\n      and\n        /* \"voting.sol\":2563:2573  proposalId */\n      dup2\n        /* \"voting.sol\":2552:2586  VoteUndone(proposalId, msg.sender) */\n      0xaac05d294d00945154e8002e16ca05a7c0d87634f6ae369bea2c8abc54fd4741\n      mload(0x40)\n      mload(0x40)\n      dup1\n      swap2\n      sub\n      swap1\n      log3\n        /* \"voting.sol\":2198:2593  function undoVote(uint256 proposalId) public {... */\n      pop\n      jump\t// out\n        /* \"voting.sol\":1234:1637  function editProposal(... */\n    tag_42:\n        /* \"voting.sol\":1417:1427  msg.sender */\n      caller\n        /* \"voting.sol\":1384:1427  proposals[proposalId].creator == msg.sender */\n      0xffffffffffffffffffffffffffffffffffffffff\n      and\n        /* \"voting.sol\":1384:1393  proposals */\n      0x00\n        /* \"voting.sol\":1394:1404  proposalId */\n      dup5\n        /* \"voting.sol\":1384:1405  proposals[proposalId] */\n      dup2\n      sload\n      dup2\n      lt\n      tag_99\n      jumpi\n      invalid\n    tag_99:\n      swap1\n      0x00\n      mstore\n      keccak256(0x00, 0x20)\n      swap1\n      0x06\n      mul\n      add\n        /* \"voting.sol\":1384:1413  proposals[proposalId].creator */\n      0x05\n      add\n      0x00\n      swap1\n      sload\n      swap1\n      0x0100\n      exp\n      swap1\n      div\n      0xffffffffffffffffffffffffffffffffffffffff\n      and\n        /* \"voting.sol\":1384:1427  proposals[proposalId].creator == msg.sender */\n      0xffffffffffffffffffffffffffffffffffffffff\n      and\n      eq\n        /* \"voting.sol\":1376:1472  require(proposals[proposalId].creator == msg.sender, \"You are not the creator of this proposal\") */\n      tag_101\n      jumpi\n      mload(0x40)\n      0x08c379a000000000000000000000000000000000000000000000000000000000\n      dup2\n      mstore\n      0x04\n      add\n      tag_102\n      swap1\n      tag_103\n      jump\t// in\n    tag_102:\n      mload(0x40)\n      dup1\n      swap2\n      sub\n      swap1\n      revert\n    tag_101:\n        /* \"voting.sol\":1512:1519  newName */\n      dup2\n        /* \"voting.sol\":1483:1492  proposals */\n      0x00\n        /* \"voting.sol\":1493:1503  proposalId */\n      dup5\n        /* \"voting.sol\":1483:1504  proposals[proposalId] */\n      dup2\n      sload\n      dup2\n      lt\n      tag_104\n      jumpi\n      invalid\n    tag_104:\n      swap1\n      0x00\n      mstore\n      keccak256(0x00, 0x20)\n      swap1\n      0x06\n      mul\n      add\n        /* \"voting.sol\":1483:1509  proposals[proposalId].name */\n      0x00\n      add\n        /* \"voting.sol\":1483:1519  proposals[proposalId].name = newName */\n      swap1\n      dup1\n      mload\n      swap1\n      0x20\n      add\n      swap1\n      tag_106\n      swap3\n      swap2\n      swap1\n      tag_86\n      jump\t// in\n    tag_106:\n      pop\n        /* \"voting.sol\":1565:1579  newDescription */\n      dup1\n        /* \"voting.sol\":1529:1538  proposals */\n      0x00\n        /* \"voting.sol\":1539:1549  proposalId */\n      dup5\n        /* \"voting.sol\":1529:1550  proposals[proposalId] */\n      dup2\n      sload\n      dup2\n      lt\n      tag_107\n      jumpi\n      invalid\n    tag_107:\n      swap1\n      0x00\n      mstore\n      keccak256(0x00, 0x20)\n      swap1\n      0x06\n      mul\n      add\n        /* \"voting.sol\":1529:1562  proposals[proposalId].description */\n      0x01\n      add\n        /* \"voting.sol\":1529:1579  proposals[proposalId].description = newDescription */\n      swap1\n      dup1\n      mload\n      swap1\n      0x20\n      add\n      swap1\n      tag_109\n      swap3\n      swap2\n      swap1\n      tag_86\n      jump\t// in\n    tag_109:\n      pop\n        /* \"voting.sol\":1610:1620  proposalId */\n      dup3\n        /* \"voting.sol\":1595:1630  ProposalEdited(proposalId, newName) */\n      0xfcca8bdad83b75fbf6fa64da30fd8362d01b1bd815fe9bb2ab3d85e2c70d5218\n        /* \"voting.sol\":1622:1629  newName */\n      dup4\n        /* \"voting.sol\":1595:1630  ProposalEdited(proposalId, newName) */\n      mload(0x40)\n      tag_110\n      swap2\n      swap1\n      tag_89\n      jump\t// in\n    tag_110:\n      mload(0x40)\n      dup1\n      swap2\n      sub\n      swap1\n      log2\n        /* \"voting.sol\":1234:1637  function editProposal(... */\n      pop\n      pop\n      pop\n      jump\t// out\n        /* \"voting.sol\":2599:3204  function getProposal(... */\n    tag_45:\n        /* \"voting.sol\":2712:2725  string memory */\n      0x60\n        /* \"voting.sol\":2739:2752  string memory */\n      dup1\n        /* \"voting.sol\":2766:2773  uint256 */\n      0x00\n        /* \"voting.sol\":2787:2794  uint256 */\n      dup1\n        /* \"voting.sol\":2808:2815  uint256 */\n      0x00\n        /* \"voting.sol\":2829:2836  address */\n      dup1\n        /* \"voting.sol\":2882:2891  proposals */\n      0x00\n        /* \"voting.sol\":2882:2898  proposals.length */\n      dup1\n      sload\n      swap1\n      pop\n        /* \"voting.sol\":2869:2879  proposalId */\n      dup8\n        /* \"voting.sol\":2869:2898  proposalId < proposals.length */\n      lt\n        /* \"voting.sol\":2861:2926  require(proposalId < proposals.length, \"Proposal does not exist\") */\n      tag_112\n      jumpi\n      mload(0x40)\n      0x08c379a000000000000000000000000000000000000000000000000000000000\n      dup2\n      mstore\n      0x04\n      add\n      tag_113\n      swap1\n      tag_54\n      jump\t// in\n    tag_113:\n      mload(0x40)\n      dup1\n      swap2\n      sub\n      swap1\n      revert\n    tag_112:\n        /* \"voting.sol\":2937:2961  Proposal memory proposal */\n      tag_114\n      tag_56\n      jump\t// in\n    tag_114:\n        /* \"voting.sol\":2964:2973  proposals */\n      0x00\n        /* \"voting.sol\":2974:2984  proposalId */\n      dup9\n        /* \"voting.sol\":2964:2985  proposals[proposalId] */\n      dup2\n      sload\n      dup2\n      lt\n      tag_115\n      jumpi\n      invalid\n    tag_115:\n      swap1\n      0x00\n      mstore\n      keccak256(0x00, 0x20)\n      swap1\n      0x06\n      mul\n      add\n        /* \"voting.sol\":2937:2985  Proposal memory proposal = proposals[proposalId] */\n      mload(0x40)\n      dup1\n      0xc0\n      add\n      0x40\n      mstore\n      swap1\n      dup2\n      0x00\n      dup3\n      add\n      dup1\n      sload\n      0x01\n      dup2\n      0x01\n      and\n      iszero\n      0x0100\n      mul\n      sub\n      and\n      0x02\n      swap1\n      div\n      dup1\n      0x1f\n      add\n      0x20\n      dup1\n      swap2\n      div\n      mul\n      0x20\n      add\n      mload(0x40)\n      swap1\n      dup2\n      add\n      0x40\n      mstore\n      dup1\n      swap3\n      swap2\n      swap1\n      dup2\n      dup2\n      mstore\n      0x20\n      add\n      dup3\n      dup1\n      sload\n      0x01\n      dup2\n      0x01\n      and\n      iszero\n      0x0100\n      mul\n      sub\n      and\n      0x02\n      swap1\n      div\n      dup1\n      iszero\n      tag_117\n      jumpi\n      dup1\n      0x1f\n      lt\n      tag_118\n      jumpi\n      0x0100\n      dup1\n      dup4\n      sload\n      div\n      mul\n      dup4\n      mstore\n      swap2\n      0x20\n      add\n      swap2\n      jump(tag_117)\n    tag_118:\n      dup3\n      add\n      swap2\n      swap1\n      0x00\n      mstore\n      keccak256(0x00, 0x20)\n      swap1\n    tag_119:\n      dup2\n      sload\n      dup2\n      mstore\n      swap1\n      0x01\n      add\n      swap1\n      0x20\n      add\n      dup1\n      dup4\n      gt\n      tag_119\n      jumpi\n      dup3\n      swap1\n      sub\n      0x1f\n      and\n      dup3\n      add\n      swap2\n    tag_117:\n      pop\n      pop\n      pop\n      pop\n      pop\n      dup2\n      mstore\n      0x20\n      add\n      0x01\n      dup3\n      add\n      dup1\n      sload\n      0x01\n      dup2\n      0x01\n      and\n      iszero\n      0x0100\n      mul\n      sub\n      and\n      0x02\n      swap1\n      div\n      dup1\n      0x1f\n      add\n      0x20\n      dup1\n      swap2\n      div\n      mul\n      0x20\n      add\n      mload(0x40)\n      swap1\n      dup2\n      add\n      0x40\n      mstore\n      dup1\n      swap3\n      swap2\n      swap1\n      dup2\n      dup2\n      mstore\n      0x20\n      add\n      dup3\n      dup1\n      sload\n      0x01\n      dup2\n      0x01\n      and\n      iszero\n      0x0100\n      mul\n      sub\n      and\n      0x02\n      swap1\n      div\n      dup1\n      iszero\n      tag_120\n      jumpi\n      dup1\n      0x1f\n      lt\n      tag_121\n      jumpi\n      0x0100\n      dup1\n      dup4\n      sload\n      div\n      mul\n      dup4\n      mstore\n      swap2\n      0x20\n      add\n      swap2\n      jump(tag_120)\n    tag_121:\n      dup3\n      add\n      swap2\n      swap1\n      0x00\n      mstore\n      keccak256(0x00, 0x20)\n      swap1\n    tag_122:\n      dup2\n      sload\n      dup2\n      mstore\n      swap1\n      0x01\n      add\n      swap1\n      0x20\n      add\n      dup1\n      dup4\n      gt\n      tag_122\n      jumpi\n      dup3\n      swap1\n      sub\n      0x1f\n      and\n      dup3\n      add\n      swap2\n    tag_120:\n      pop\n      pop\n      pop\n      pop\n      pop\n      dup2\n      mstore\n      0x20\n      add\n      0x02\n      dup3\n      add\n      sload\n      dup2\n      mstore\n      0x20\n      add\n      0x03\n      dup3\n      add\n      sload\n      dup2\n      mstore\n      0x20\n      add\n      0x04\n      dup3\n      add\n      sload\n      dup2\n      mstore\n      0x20\n      add\n      0x05\n      dup3\n      add\n      0x00\n      swap1\n      sload\n      swap1\n      0x0100\n      exp\n      swap1\n      div\n      0xffffffffffffffffffffffffffffffffffffffff\n      and\n      0xffffffffffffffffffffffffffffffffffffffff\n      and\n      0xffffffffffffffffffffffffffffffffffffffff\n      and\n      dup2\n      mstore\n      pop\n      pop\n      swap1\n      pop\n        /* \"voting.sol\":3016:3024  proposal */\n      dup1\n        /* \"voting.sol\":3016:3029  proposal.name */\n      0x00\n      add\n      mload\n        /* \"voting.sol\":3043:3051  proposal */\n      dup2\n        /* \"voting.sol\":3043:3063  proposal.description */\n      0x20\n      add\n      mload\n        /* \"voting.sol\":3077:3085  proposal */\n      dup3\n        /* \"voting.sol\":3077:3095  proposal.voteCount */\n      0x40\n      add\n      mload\n        /* \"voting.sol\":3109:3117  proposal */\n      dup4\n        /* \"voting.sol\":3109:3127  proposal.startDate */\n      0x60\n      add\n      mload\n        /* \"voting.sol\":3141:3149  proposal */\n      dup5\n        /* \"voting.sol\":3141:3157  proposal.endDate */\n      0x80\n      add\n      mload\n        /* \"voting.sol\":3171:3179  proposal */\n      dup6\n        /* \"voting.sol\":3171:3187  proposal.creator */\n      0xa0\n      add\n      mload\n        /* \"voting.sol\":2995:3197  return (... */\n      swap7\n      pop\n      swap7\n      pop\n      swap7\n      pop\n      swap7\n      pop\n      swap7\n      pop\n      swap7\n      pop\n      pop\n        /* \"voting.sol\":2599:3204  function getProposal(... */\n      swap2\n      swap4\n      swap6\n      pop\n      swap2\n      swap4\n      swap6\n      jump\t// out\n        /* \"voting.sol\":3210:3310  function getAllProposals() public view returns (Proposal[] memory) {... */\n    tag_48:\n        /* \"voting.sol\":3258:3275  Proposal[] memory */\n      0x60\n        /* \"voting.sol\":3294:3303  proposals */\n      0x00\n        /* \"voting.sol\":3287:3303  return proposals */\n      dup1\n      sload\n      dup1\n      0x20\n      mul\n      0x20\n      add\n      mload(0x40)\n      swap1\n      dup2\n      add\n      0x40\n      mstore\n      dup1\n      swap3\n      swap2\n      swap1\n      dup2\n      dup2\n      mstore\n      0x20\n      add\n      0x00\n      swap1\n    tag_124:\n      dup3\n      dup3\n      lt\n      iszero\n      tag_125\n      jumpi\n      dup4\n      dup3\n      swap1\n      0x00\n      mstore\n      keccak256(0x00, 0x20)\n      swap1\n      0x06\n      mul\n      add\n      mload(0x40)\n      dup1\n      0xc0\n      add\n      0x40\n      mstore\n      swap1\n      dup2\n      0x00\n      dup3\n      add\n      dup1\n      sload\n      0x01\n      dup2\n      0x01\n      and\n      iszero\n      0x0100\n      mul\n      sub\n      and\n      0x02\n      swap1\n      div\n      dup1\n      0x1f\n      add\n      0x20\n      dup1\n      swap2\n      div\n      mul\n      0x20\n      add\n      mload(0x40)\n      swap1\n      dup2\n      add\n      0x40\n      mstore\n      dup1\n      swap3\n      swap2\n      swap1\n      dup2\n      dup2\n      mstore\n      0x20\n      add\n      dup3\n      dup1\n      sload\n      0x01\n      dup2\n      0x01\n      and\n      iszero\n      0x0100\n      mul\n      sub\n      and\n      0x02\n      swap1\n      div\n      dup1\n      iszero\n      tag_127\n      jumpi\n      dup1\n      0x1f\n      lt\n      tag_128\n      jumpi\n      0x0100\n      dup1\n      dup4\n      sload\n      div\n      mul\n      dup4\n      mstore\n      swap2\n      0x20\n      add\n      swap2\n      jump(tag_127)\n    tag_128:\n      dup3\n      add\n      swap2\n      swap1\n      0x00\n      mstore\n      keccak256(0x00, 0x20)\n      swap1\n    tag_129:\n      dup2\n      sload\n      dup2\n      mstore\n      swap1\n      0x01\n      add\n      swap1\n      0x20\n      add\n      dup1\n      dup4\n      gt\n      tag_129\n      jumpi\n      dup3\n      swap1\n      sub\n      0x1f\n      and\n      dup3\n      add\n      swap2\n    tag_127:\n      pop\n      pop\n      pop\n      pop\n      pop\n      dup2\n      mstore\n      0x20\n      add\n      0x01\n      dup3\n      add\n      dup1\n      sload\n      0x01\n      dup2\n      0x01\n      and\n      iszero\n      0x0100\n      mul\n      sub\n      and\n      0x02\n      swap1\n      div\n      dup1\n      0x1f\n      add\n      0x20\n      dup1\n      swap2\n      div\n      mul\n      0x20\n      add\n      mload(0x40)\n      swap1\n      dup2\n      add\n      0x40\n      mstore\n      dup1\n      swap3\n      swap2\n      swap1\n      dup2\n      dup2\n      mstore\n      0x20\n      add\n      dup3\n      dup1\n      sload\n      0x01\n      dup2\n      0x01\n      and\n      iszero\n      0x0100\n      mul\n      sub\n      and\n      0x02\n      swap1\n      div\n      dup1\n      iszero\n      tag_130\n      jumpi\n      dup1\n      0x1f\n      lt\n      tag_131\n      jumpi\n      0x0100\n      dup1\n      dup4\n      sload\n      div\n      mul\n      dup4\n      mstore\n      swap2\n      0x20\n      add\n      swap2\n      jump(tag_130)\n    tag_131:\n      dup3\n      add\n      swap2\n      swap1\n      0x00\n      mstore\n      keccak256(0x00, 0x20)\n      swap1\n    tag_132:\n      dup2\n      sload\n      dup2\n      mstore\n      swap1\n      0x01\n      add\n      swap1\n      0x20\n      add\n      dup1\n      dup4\n      gt\n      tag_132\n      jumpi\n      dup3\n      swap1\n      sub\n      0x1f\n      and\n      dup3\n      add\n      swap2\n    tag_130:\n      pop\n      pop\n      pop\n      pop\n      pop\n      dup2\n      mstore\n      0x20\n      add\n      0x02\n      dup3\n      add\n      sload\n      dup2\n      mstore\n      0x20\n      add\n      0x03\n      dup3\n      add\n      sload\n      dup2\n      mstore\n      0x20\n      add\n      0x04\n      dup3\n      add\n      sload\n      dup2\n      mstore\n      0x20\n      add\n      0x05\n      dup3\n      add\n      0x00\n      swap1\n      sload\n      swap1\n      0x0100\n      exp\n      swap1\n      div\n      0xffffffffffffffffffffffffffffffffffffffff\n      and\n      0xffffffffffffffffffffffffffffffffffffffff\n      and\n      0xffffffffffffffffffffffffffffffffffffffff\n      and\n      dup2\n      mstore\n      pop\n      pop\n      dup2\n      mstore\n      0x20\n      add\n      swap1\n      0x01\n      add\n      swap1\n      jump(tag_124)\n    tag_125:\n      pop\n      pop\n      pop\n      pop\n      swap1\n      pop\n        /* \"voting.sol\":3210:3310  function getAllProposals() public view returns (Proposal[] memory) {... */\n      swap1\n      jump\t// out\n    tag_56:\n      mload(0x40)\n      dup1\n      0xc0\n      add\n      0x40\n      mstore\n      dup1\n      0x60\n      dup2\n      mstore\n      0x20\n      add\n      0x60\n      dup2\n      mstore\n      0x20\n      add\n      0x00\n      dup2\n      mstore\n      0x20\n      add\n      0x00\n      dup2\n      mstore\n      0x20\n      add\n      0x00\n      dup2\n      mstore\n      0x20\n      add\n      and(0xffffffffffffffffffffffffffffffffffffffff, 0x00)\n      dup2\n      mstore\n      pop\n      swap1\n      jump\t// out\n    tag_86:\n      dup3\n      dup1\n      sload\n      0x01\n      dup2\n      0x01\n      and\n      iszero\n      0x0100\n      mul\n      sub\n      and\n      0x02\n      swap1\n      div\n      swap1\n      0x00\n      mstore\n      keccak256(0x00, 0x20)\n      swap1\n      0x1f\n      add\n      0x20\n      swap1\n      div\n      dup2\n      add\n      swap3\n      dup3\n      0x1f\n      lt\n      tag_134\n      jumpi\n      dup1\n      mload\n      not(0xff)\n      and\n      dup4\n      dup1\n      add\n      or\n      dup6\n      sstore\n      jump(tag_133)\n    tag_134:\n      dup3\n      dup1\n      add\n      0x01\n      add\n      dup6\n      sstore\n      dup3\n      iszero\n      tag_133\n      jumpi\n      swap2\n      dup3\n      add\n    tag_135:\n      dup3\n      dup2\n      gt\n      iszero\n      tag_136\n      jumpi\n      dup3\n      mload\n      dup3\n      sstore\n      swap2\n      0x20\n      add\n      swap2\n      swap1\n      0x01\n      add\n      swap1\n      jump(tag_135)\n    tag_136:\n    tag_133:\n      pop\n      swap1\n      pop\n      tag_137\n      swap2\n      swap1\n      tag_138\n      jump\t// in\n    tag_137:\n      pop\n      swap1\n      jump\t// out\n    tag_138:\n    tag_139:\n      dup1\n      dup3\n      gt\n      iszero\n      tag_140\n      jumpi\n      0x00\n      dup2\n      0x00\n      swap1\n      sstore\n      pop\n      0x01\n      add\n      jump(tag_139)\n    tag_140:\n      pop\n      swap1\n      jump\t// out\n        /* \"#utility.yul\":7:146   */\n    tag_142:\n      0x00\n        /* \"#utility.yul\":91:97   */\n      dup2\n        /* \"#utility.yul\":78:98   */\n      calldataload\n        /* \"#utility.yul\":69:98   */\n      swap1\n      pop\n        /* \"#utility.yul\":107:140   */\n      tag_144\n        /* \"#utility.yul\":134:139   */\n      dup2\n        /* \"#utility.yul\":107:140   */\n      tag_145\n      jump\t// in\n    tag_144:\n        /* \"#utility.yul\":59:146   */\n      swap3\n      swap2\n      pop\n      pop\n      jump\t// out\n        /* \"#utility.yul\":152:618   */\n    tag_146:\n      0x00\n        /* \"#utility.yul\":257:260   */\n      dup3\n        /* \"#utility.yul\":250:254   */\n      0x1f\n        /* \"#utility.yul\":242:248   */\n      dup4\n        /* \"#utility.yul\":238:255   */\n      add\n        /* \"#utility.yul\":234:261   */\n      slt\n        /* \"#utility.yul\":224:226   */\n      tag_148\n      jumpi\n        /* \"#utility.yul\":275:276   */\n      0x00\n        /* \"#utility.yul\":272:273   */\n      dup1\n        /* \"#utility.yul\":265:277   */\n      revert\n        /* \"#utility.yul\":224:226   */\n    tag_148:\n        /* \"#utility.yul\":315:321   */\n      dup2\n        /* \"#utility.yul\":302:322   */\n      calldataload\n        /* \"#utility.yul\":340:405   */\n      tag_149\n        /* \"#utility.yul\":355:404   */\n      tag_150\n        /* \"#utility.yul\":397:403   */\n      dup3\n        /* \"#utility.yul\":355:404   */\n      tag_151\n      jump\t// in\n    tag_150:\n        /* \"#utility.yul\":340:405   */\n      tag_152\n      jump\t// in\n    tag_149:\n        /* \"#utility.yul\":331:405   */\n      swap2\n      pop\n        /* \"#utility.yul\":428:434   */\n      dup1\n        /* \"#utility.yul\":421:426   */\n      dup3\n        /* \"#utility.yul\":414:435   */\n      mstore\n        /* \"#utility.yul\":467:471   */\n      0x20\n        /* \"#utility.yul\":459:465   */\n      dup4\n        /* \"#utility.yul\":455:472   */\n      add\n        /* \"#utility.yul\":503:507   */\n      0x20\n        /* \"#utility.yul\":496:501   */\n      dup4\n        /* \"#utility.yul\":492:508   */\n      add\n        /* \"#utility.yul\":541:544   */\n      dup6\n        /* \"#utility.yul\":532:538   */\n      dup4\n        /* \"#utility.yul\":527:530   */\n      dup4\n        /* \"#utility.yul\":523:539   */\n      add\n        /* \"#utility.yul\":520:545   */\n      gt\n        /* \"#utility.yul\":517:519   */\n      iszero\n      tag_153\n      jumpi\n        /* \"#utility.yul\":558:559   */\n      0x00\n        /* \"#utility.yul\":555:556   */\n      dup1\n        /* \"#utility.yul\":548:560   */\n      revert\n        /* \"#utility.yul\":517:519   */\n    tag_153:\n        /* \"#utility.yul\":571:612   */\n      tag_154\n        /* \"#utility.yul\":605:611   */\n      dup4\n        /* \"#utility.yul\":600:603   */\n      dup3\n        /* \"#utility.yul\":595:598   */\n      dup5\n        /* \"#utility.yul\":571:612   */\n      tag_155\n      jump\t// in\n    tag_154:\n        /* \"#utility.yul\":214:618   */\n      pop\n      pop\n      pop\n      swap3\n      swap2\n      pop\n      pop\n      jump\t// out\n        /* \"#utility.yul\":624:763   */\n    tag_156:\n      0x00\n        /* \"#utility.yul\":708:714   */\n      dup2\n        /* \"#utility.yul\":695:715   */\n      calldataload\n        /* \"#utility.yul\":686:715   */\n      swap1\n      pop\n        /* \"#utility.yul\":724:757   */\n      tag_158\n        /* \"#utility.yul\":751:756   */\n      dup2\n        /* \"#utility.yul\":724:757   */\n      tag_159\n      jump\t// in\n    tag_158:\n        /* \"#utility.yul\":676:763   */\n      swap3\n      swap2\n      pop\n      pop\n      jump\t// out\n        /* \"#utility.yul\":769:1685   */\n    tag_34:\n      0x00\n      dup1\n      0x00\n      dup1\n        /* \"#utility.yul\":948:951   */\n      0x80\n        /* \"#utility.yul\":936:945   */\n      dup6\n        /* \"#utility.yul\":927:934   */\n      dup8\n        /* \"#utility.yul\":923:946   */\n      sub\n        /* \"#utility.yul\":919:952   */\n      slt\n        /* \"#utility.yul\":916:918   */\n      iszero\n      tag_161\n      jumpi\n        /* \"#utility.yul\":965:966   */\n      0x00\n        /* \"#utility.yul\":962:963   */\n      dup1\n        /* \"#utility.yul\":955:967   */\n      revert\n        /* \"#utility.yul\":916:918   */\n    tag_161:\n        /* \"#utility.yul\":1035:1036   */\n      0x00\n        /* \"#utility.yul\":1024:1033   */\n      dup6\n        /* \"#utility.yul\":1020:1037   */\n      add\n        /* \"#utility.yul\":1007:1038   */\n      calldataload\n        /* \"#utility.yul\":1065:1083   */\n      0xffffffffffffffff\n        /* \"#utility.yul\":1057:1063   */\n      dup2\n        /* \"#utility.yul\":1054:1084   */\n      gt\n        /* \"#utility.yul\":1051:1053   */\n      iszero\n      tag_162\n      jumpi\n        /* \"#utility.yul\":1097:1098   */\n      0x00\n        /* \"#utility.yul\":1094:1095   */\n      dup1\n        /* \"#utility.yul\":1087:1099   */\n      revert\n        /* \"#utility.yul\":1051:1053   */\n    tag_162:\n        /* \"#utility.yul\":1124:1187   */\n      tag_163\n        /* \"#utility.yul\":1179:1186   */\n      dup8\n        /* \"#utility.yul\":1170:1176   */\n      dup3\n        /* \"#utility.yul\":1159:1168   */\n      dup9\n        /* \"#utility.yul\":1155:1177   */\n      add\n        /* \"#utility.yul\":1124:1187   */\n      tag_146\n      jump\t// in\n    tag_163:\n        /* \"#utility.yul\":1114:1187   */\n      swap5\n      pop\n        /* \"#utility.yul\":979:1197   */\n      pop\n        /* \"#utility.yul\":1263:1265   */\n      0x20\n        /* \"#utility.yul\":1252:1261   */\n      dup6\n        /* \"#utility.yul\":1248:1266   */\n      add\n        /* \"#utility.yul\":1235:1267   */\n      calldataload\n        /* \"#utility.yul\":1294:1312   */\n      0xffffffffffffffff\n        /* \"#utility.yul\":1286:1292   */\n      dup2\n        /* \"#utility.yul\":1283:1313   */\n      gt\n        /* \"#utility.yul\":1280:1282   */\n      iszero\n      tag_164\n      jumpi\n        /* \"#utility.yul\":1326:1327   */\n      0x00\n        /* \"#utility.yul\":1323:1324   */\n      dup1\n        /* \"#utility.yul\":1316:1328   */\n      revert\n        /* \"#utility.yul\":1280:1282   */\n    tag_164:\n        /* \"#utility.yul\":1353:1416   */\n      tag_165\n        /* \"#utility.yul\":1408:1415   */\n      dup8\n        /* \"#utility.yul\":1399:1405   */\n      dup3\n        /* \"#utility.yul\":1388:1397   */\n      dup9\n        /* \"#utility.yul\":1384:1406   */\n      add\n        /* \"#utility.yul\":1353:1416   */\n      tag_146\n      jump\t// in\n    tag_165:\n        /* \"#utility.yul\":1343:1416   */\n      swap4\n      pop\n        /* \"#utility.yul\":1207:1426   */\n      pop\n        /* \"#utility.yul\":1464:1466   */\n      0x40\n        /* \"#utility.yul\":1489:1542   */\n      tag_166\n        /* \"#utility.yul\":1534:1541   */\n      dup8\n        /* \"#utility.yul\":1525:1531   */\n      dup3\n        /* \"#utility.yul\":1514:1523   */\n      dup9\n        /* \"#utility.yul\":1510:1532   */\n      add\n        /* \"#utility.yul\":1489:1542   */\n      tag_156\n      jump\t// in\n    tag_166:\n        /* \"#utility.yul\":1479:1542   */\n      swap3\n      pop\n        /* \"#utility.yul\":1436:1552   */\n      pop\n        /* \"#utility.yul\":1590:1592   */\n      0x60\n        /* \"#utility.yul\":1615:1668   */\n      tag_167\n        /* \"#utility.yul\":1660:1667   */\n      dup8\n        /* \"#utility.yul\":1651:1657   */\n      dup3\n        /* \"#utility.yul\":1640:1649   */\n      dup9\n        /* \"#utility.yul\":1636:1658   */\n      add\n        /* \"#utility.yul\":1615:1668   */\n      tag_156\n      jump\t// in\n    tag_167:\n        /* \"#utility.yul\":1605:1668   */\n      swap2\n      pop\n        /* \"#utility.yul\":1562:1678   */\n      pop\n        /* \"#utility.yul\":906:1685   */\n      swap3\n      swap6\n      swap2\n      swap5\n      pop\n      swap3\n      pop\n      jump\t// out\n        /* \"#utility.yul\":1691:1951   */\n    tag_15:\n      0x00\n        /* \"#utility.yul\":1799:1801   */\n      0x20\n        /* \"#utility.yul\":1787:1796   */\n      dup3\n        /* \"#utility.yul\":1778:1785   */\n      dup5\n        /* \"#utility.yul\":1774:1797   */\n      sub\n        /* \"#utility.yul\":1770:1802   */\n      slt\n        /* \"#utility.yul\":1767:1769   */\n      iszero\n      tag_169\n      jumpi\n        /* \"#utility.yul\":1815:1816   */\n      0x00\n        /* \"#utility.yul\":1812:1813   */\n      dup1\n        /* \"#utility.yul\":1805:1817   */\n      revert\n        /* \"#utility.yul\":1767:1769   */\n    tag_169:\n        /* \"#utility.yul\":1857:1858   */\n      0x00\n        /* \"#utility.yul\":1881:1934   */\n      tag_170\n        /* \"#utility.yul\":1926:1933   */\n      dup5\n        /* \"#utility.yul\":1917:1923   */\n      dup3\n        /* \"#utility.yul\":1906:1915   */\n      dup6\n        /* \"#utility.yul\":1902:1924   */\n      add\n        /* \"#utility.yul\":1881:1934   */\n      tag_156\n      jump\t// in\n    tag_170:\n        /* \"#utility.yul\":1871:1934   */\n      swap2\n      pop\n        /* \"#utility.yul\":1829:1944   */\n      pop\n        /* \"#utility.yul\":1757:1951   */\n      swap3\n      swap2\n      pop\n      pop\n      jump\t// out\n        /* \"#utility.yul\":1957:2360   */\n    tag_28:\n      0x00\n      dup1\n        /* \"#utility.yul\":2082:2084   */\n      0x40\n        /* \"#utility.yul\":2070:2079   */\n      dup4\n        /* \"#utility.yul\":2061:2068   */\n      dup6\n        /* \"#utility.yul\":2057:2080   */\n      sub\n        /* \"#utility.yul\":2053:2085   */\n      slt\n        /* \"#utility.yul\":2050:2052   */\n      iszero\n      tag_172\n      jumpi\n        /* \"#utility.yul\":2098:2099   */\n      0x00\n        /* \"#utility.yul\":2095:2096   */\n      dup1\n        /* \"#utility.yul\":2088:2100   */\n      revert\n        /* \"#utility.yul\":2050:2052   */\n    tag_172:\n        /* \"#utility.yul\":2140:2141   */\n      0x00\n        /* \"#utility.yul\":2164:2217   */\n      tag_173\n        /* \"#utility.yul\":2209:2216   */\n      dup6\n        /* \"#utility.yul\":2200:2206   */\n      dup3\n        /* \"#utility.yul\":2189:2198   */\n      dup7\n        /* \"#utility.yul\":2185:2207   */\n      add\n        /* \"#utility.yul\":2164:2217   */\n      tag_156\n      jump\t// in\n    tag_173:\n        /* \"#utility.yul\":2154:2217   */\n      swap3\n      pop\n        /* \"#utility.yul\":2112:2227   */\n      pop\n        /* \"#utility.yul\":2265:2267   */\n      0x20\n        /* \"#utility.yul\":2290:2343   */\n      tag_174\n        /* \"#utility.yul\":2335:2342   */\n      dup6\n        /* \"#utility.yul\":2326:2332   */\n      dup3\n        /* \"#utility.yul\":2315:2324   */\n      dup7\n        /* \"#utility.yul\":2311:2333   */\n      add\n        /* \"#utility.yul\":2290:2343   */\n      tag_142\n      jump\t// in\n    tag_174:\n        /* \"#utility.yul\":2280:2343   */\n      swap2\n      pop\n        /* \"#utility.yul\":2237:2353   */\n      pop\n        /* \"#utility.yul\":2040:2360   */\n      swap3\n      pop\n      swap3\n      swap1\n      pop\n      jump\t// out\n        /* \"#utility.yul\":2366:3138   */\n    tag_41:\n      0x00\n      dup1\n      0x00\n        /* \"#utility.yul\":2528:2530   */\n      0x60\n        /* \"#utility.yul\":2516:2525   */\n      dup5\n        /* \"#utility.yul\":2507:2514   */\n      dup7\n        /* \"#utility.yul\":2503:2526   */\n      sub\n        /* \"#utility.yul\":2499:2531   */\n      slt\n        /* \"#utility.yul\":2496:2498   */\n      iszero\n      tag_176\n      jumpi\n        /* \"#utility.yul\":2544:2545   */\n      0x00\n        /* \"#utility.yul\":2541:2542   */\n      dup1\n        /* \"#utility.yul\":2534:2546   */\n      revert\n        /* \"#utility.yul\":2496:2498   */\n    tag_176:\n        /* \"#utility.yul\":2586:2587   */\n      0x00\n        /* \"#utility.yul\":2610:2663   */\n      tag_177\n        /* \"#utility.yul\":2655:2662   */\n      dup7\n        /* \"#utility.yul\":2646:2652   */\n      dup3\n        /* \"#utility.yul\":2635:2644   */\n      dup8\n        /* \"#utility.yul\":2631:2653   */\n      add\n        /* \"#utility.yul\":2610:2663   */\n      tag_156\n      jump\t// in\n    tag_177:\n        /* \"#utility.yul\":2600:2663   */\n      swap4\n      pop\n        /* \"#utility.yul\":2558:2673   */\n      pop\n        /* \"#utility.yul\":2739:2741   */\n      0x20\n        /* \"#utility.yul\":2728:2737   */\n      dup5\n        /* \"#utility.yul\":2724:2742   */\n      add\n        /* \"#utility.yul\":2711:2743   */\n      calldataload\n        /* \"#utility.yul\":2770:2788   */\n      0xffffffffffffffff\n        /* \"#utility.yul\":2762:2768   */\n      dup2\n        /* \"#utility.yul\":2759:2789   */\n      gt\n        /* \"#utility.yul\":2756:2758   */\n      iszero\n      tag_178\n      jumpi\n        /* \"#utility.yul\":2802:2803   */\n      0x00\n        /* \"#utility.yul\":2799:2800   */\n      dup1\n        /* \"#utility.yul\":2792:2804   */\n      revert\n        /* \"#utility.yul\":2756:2758   */\n    tag_178:\n        /* \"#utility.yul\":2829:2892   */\n      tag_179\n        /* \"#utility.yul\":2884:2891   */\n      dup7\n        /* \"#utility.yul\":2875:2881   */\n      dup3\n        /* \"#utility.yul\":2864:2873   */\n      dup8\n        /* \"#utility.yul\":2860:2882   */\n      add\n        /* \"#utility.yul\":2829:2892   */\n      tag_146\n      jump\t// in\n    tag_179:\n        /* \"#utility.yul\":2819:2892   */\n      swap3\n      pop\n        /* \"#utility.yul\":2683:2902   */\n      pop\n        /* \"#utility.yul\":2968:2970   */\n      0x40\n        /* \"#utility.yul\":2957:2966   */\n      dup5\n        /* \"#utility.yul\":2953:2971   */\n      add\n        /* \"#utility.yul\":2940:2972   */\n      calldataload\n        /* \"#utility.yul\":2999:3017   */\n      0xffffffffffffffff\n        /* \"#utility.yul\":2991:2997   */\n      dup2\n        /* \"#utility.yul\":2988:3018   */\n      gt\n        /* \"#utility.yul\":2985:2987   */\n      iszero\n      tag_180\n      jumpi\n        /* \"#utility.yul\":3031:3032   */\n      0x00\n        /* \"#utility.yul\":3028:3029   */\n      dup1\n        /* \"#utility.yul\":3021:3033   */\n      revert\n        /* \"#utility.yul\":2985:2987   */\n    tag_180:\n        /* \"#utility.yul\":3058:3121   */\n      tag_181\n        /* \"#utility.yul\":3113:3120   */\n      dup7\n        /* \"#utility.yul\":3104:3110   */\n      dup3\n        /* \"#utility.yul\":3093:3102   */\n      dup8\n        /* \"#utility.yul\":3089:3111   */\n      add\n        /* \"#utility.yul\":3058:3121   */\n      tag_146\n      jump\t// in\n    tag_181:\n        /* \"#utility.yul\":3048:3121   */\n      swap2\n      pop\n        /* \"#utility.yul\":2912:3131   */\n      pop\n        /* \"#utility.yul\":2486:3138   */\n      swap3\n      pop\n      swap3\n      pop\n      swap3\n      jump\t// out\n        /* \"#utility.yul\":3144:3396   */\n    tag_182:\n      0x00\n        /* \"#utility.yul\":3296:3390   */\n      tag_184\n        /* \"#utility.yul\":3386:3389   */\n      dup4\n        /* \"#utility.yul\":3378:3384   */\n      dup4\n        /* \"#utility.yul\":3296:3390   */\n      tag_185\n      jump\t// in\n    tag_184:\n        /* \"#utility.yul\":3282:3390   */\n      swap1\n      pop\n        /* \"#utility.yul\":3272:3396   */\n      swap3\n      swap2\n      pop\n      pop\n      jump\t// out\n        /* \"#utility.yul\":3402:3510   */\n    tag_186:\n        /* \"#utility.yul\":3479:3503   */\n      tag_188\n        /* \"#utility.yul\":3497:3502   */\n      dup2\n        /* \"#utility.yul\":3479:3503   */\n      tag_189\n      jump\t// in\n    tag_188:\n        /* \"#utility.yul\":3474:3477   */\n      dup3\n        /* \"#utility.yul\":3467:3504   */\n      mstore\n        /* \"#utility.yul\":3457:3510   */\n      pop\n      pop\n      jump\t// out\n        /* \"#utility.yul\":3516:3634   */\n    tag_190:\n        /* \"#utility.yul\":3603:3627   */\n      tag_192\n        /* \"#utility.yul\":3621:3626   */\n      dup2\n        /* \"#utility.yul\":3603:3627   */\n      tag_189\n      jump\t// in\n    tag_192:\n        /* \"#utility.yul\":3598:3601   */\n      dup3\n        /* \"#utility.yul\":3591:3628   */\n      mstore\n        /* \"#utility.yul\":3581:3634   */\n      pop\n      pop\n      jump\t// out\n        /* \"#utility.yul\":3700:4803   */\n    tag_193:\n      0x00\n        /* \"#utility.yul\":3896:3974   */\n      tag_195\n        /* \"#utility.yul\":3968:3973   */\n      dup3\n        /* \"#utility.yul\":3896:3974   */\n      tag_196\n      jump\t// in\n    tag_195:\n        /* \"#utility.yul\":3990:4100   */\n      tag_197\n        /* \"#utility.yul\":4093:4099   */\n      dup2\n        /* \"#utility.yul\":4088:4091   */\n      dup6\n        /* \"#utility.yul\":3990:4100   */\n      tag_198\n      jump\t// in\n    tag_197:\n        /* \"#utility.yul\":3983:4100   */\n      swap4\n      pop\n        /* \"#utility.yul\":4126:4129   */\n      dup4\n        /* \"#utility.yul\":4171:4175   */\n      0x20\n        /* \"#utility.yul\":4163:4169   */\n      dup3\n        /* \"#utility.yul\":4159:4176   */\n      mul\n        /* \"#utility.yul\":4154:4157   */\n      dup6\n        /* \"#utility.yul\":4150:4177   */\n      add\n        /* \"#utility.yul\":4201:4281   */\n      tag_199\n        /* \"#utility.yul\":4275:4280   */\n      dup6\n        /* \"#utility.yul\":4201:4281   */\n      tag_200\n      jump\t// in\n    tag_199:\n        /* \"#utility.yul\":4304:4311   */\n      dup1\n        /* \"#utility.yul\":4335:4336   */\n      0x00\n        /* \"#utility.yul\":4320:4758   */\n    tag_201:\n        /* \"#utility.yul\":4345:4351   */\n      dup6\n        /* \"#utility.yul\":4342:4343   */\n      dup2\n        /* \"#utility.yul\":4339:4352   */\n      lt\n        /* \"#utility.yul\":4320:4758   */\n      iszero\n      tag_203\n      jumpi\n        /* \"#utility.yul\":4416:4425   */\n      dup5\n        /* \"#utility.yul\":4410:4414   */\n      dup5\n        /* \"#utility.yul\":4406:4426   */\n      sub\n        /* \"#utility.yul\":4401:4404   */\n      dup10\n        /* \"#utility.yul\":4394:4427   */\n      mstore\n        /* \"#utility.yul\":4467:4473   */\n      dup2\n        /* \"#utility.yul\":4461:4474   */\n      mload\n        /* \"#utility.yul\":4495:4607   */\n      tag_204\n        /* \"#utility.yul\":4602:4606   */\n      dup6\n        /* \"#utility.yul\":4587:4600   */\n      dup3\n        /* \"#utility.yul\":4495:4607   */\n      tag_182\n      jump\t// in\n    tag_204:\n        /* \"#utility.yul\":4487:4607   */\n      swap5\n      pop\n        /* \"#utility.yul\":4630:4714   */\n      tag_205\n        /* \"#utility.yul\":4707:4713   */\n      dup4\n        /* \"#utility.yul\":4630:4714   */\n      tag_206\n      jump\t// in\n    tag_205:\n        /* \"#utility.yul\":4620:4714   */\n      swap3\n      pop\n        /* \"#utility.yul\":4743:4747   */\n      0x20\n        /* \"#utility.yul\":4738:4741   */\n      dup11\n        /* \"#utility.yul\":4734:4748   */\n      add\n        /* \"#utility.yul\":4727:4748   */\n      swap10\n      pop\n        /* \"#utility.yul\":4380:4758   */\n      pop\n        /* \"#utility.yul\":4367:4368   */\n      0x01\n        /* \"#utility.yul\":4364:4365   */\n      dup2\n        /* \"#utility.yul\":4360:4369   */\n      add\n        /* \"#utility.yul\":4355:4369   */\n      swap1\n      pop\n        /* \"#utility.yul\":4320:4758   */\n      jump(tag_201)\n    tag_203:\n        /* \"#utility.yul\":4324:4338   */\n      pop\n        /* \"#utility.yul\":4774:4778   */\n      dup3\n        /* \"#utility.yul\":4767:4778   */\n      swap8\n      pop\n        /* \"#utility.yul\":4794:4797   */\n      dup8\n        /* \"#utility.yul\":4787:4797   */\n      swap6\n      pop\n        /* \"#utility.yul\":3872:4803   */\n      pop\n      pop\n      pop\n      pop\n      pop\n      swap3\n      swap2\n      pop\n      pop\n      jump\t// out\n        /* \"#utility.yul\":4809:4918   */\n    tag_207:\n        /* \"#utility.yul\":4890:4911   */\n      tag_209\n        /* \"#utility.yul\":4905:4910   */\n      dup2\n        /* \"#utility.yul\":4890:4911   */\n      tag_210\n      jump\t// in\n    tag_209:\n        /* \"#utility.yul\":4885:4888   */\n      dup3\n        /* \"#utility.yul\":4878:4912   */\n      mstore\n        /* \"#utility.yul\":4868:4918   */\n      pop\n      pop\n      jump\t// out\n        /* \"#utility.yul\":4924:5268   */\n    tag_211:\n      0x00\n        /* \"#utility.yul\":5030:5069   */\n      tag_213\n        /* \"#utility.yul\":5063:5068   */\n      dup3\n        /* \"#utility.yul\":5030:5069   */\n      tag_214\n      jump\t// in\n    tag_213:\n        /* \"#utility.yul\":5085:5146   */\n      tag_215\n        /* \"#utility.yul\":5139:5145   */\n      dup2\n        /* \"#utility.yul\":5134:5137   */\n      dup6\n        /* \"#utility.yul\":5085:5146   */\n      tag_216\n      jump\t// in\n    tag_215:\n        /* \"#utility.yul\":5078:5146   */\n      swap4\n      pop\n        /* \"#utility.yul\":5155:5207   */\n      tag_217\n        /* \"#utility.yul\":5200:5206   */\n      dup2\n        /* \"#utility.yul\":5195:5198   */\n      dup6\n        /* \"#utility.yul\":5188:5192   */\n      0x20\n        /* \"#utility.yul\":5181:5186   */\n      dup7\n        /* \"#utility.yul\":5177:5193   */\n      add\n        /* \"#utility.yul\":5155:5207   */\n      tag_218\n      jump\t// in\n    tag_217:\n        /* \"#utility.yul\":5232:5261   */\n      tag_219\n        /* \"#utility.yul\":5254:5260   */\n      dup2\n        /* \"#utility.yul\":5232:5261   */\n      tag_220\n      jump\t// in\n    tag_219:\n        /* \"#utility.yul\":5227:5230   */\n      dup5\n        /* \"#utility.yul\":5223:5262   */\n      add\n        /* \"#utility.yul\":5216:5262   */\n      swap2\n      pop\n        /* \"#utility.yul\":5006:5268   */\n      pop\n      swap3\n      swap2\n      pop\n      pop\n      jump\t// out\n        /* \"#utility.yul\":5274:5638   */\n    tag_221:\n      0x00\n        /* \"#utility.yul\":5390:5429   */\n      tag_223\n        /* \"#utility.yul\":5423:5428   */\n      dup3\n        /* \"#utility.yul\":5390:5429   */\n      tag_214\n      jump\t// in\n    tag_223:\n        /* \"#utility.yul\":5445:5516   */\n      tag_224\n        /* \"#utility.yul\":5509:5515   */\n      dup2\n        /* \"#utility.yul\":5504:5507   */\n      dup6\n        /* \"#utility.yul\":5445:5516   */\n      tag_225\n      jump\t// in\n    tag_224:\n        /* \"#utility.yul\":5438:5516   */\n      swap4\n      pop\n        /* \"#utility.yul\":5525:5577   */\n      tag_226\n        /* \"#utility.yul\":5570:5576   */\n      dup2\n        /* \"#utility.yul\":5565:5568   */\n      dup6\n        /* \"#utility.yul\":5558:5562   */\n      0x20\n        /* \"#utility.yul\":5551:5556   */\n      dup7\n        /* \"#utility.yul\":5547:5563   */\n      add\n        /* \"#utility.yul\":5525:5577   */\n      tag_218\n      jump\t// in\n    tag_226:\n        /* \"#utility.yul\":5602:5631   */\n      tag_227\n        /* \"#utility.yul\":5624:5630   */\n      dup2\n        /* \"#utility.yul\":5602:5631   */\n      tag_220\n      jump\t// in\n    tag_227:\n        /* \"#utility.yul\":5597:5600   */\n      dup5\n        /* \"#utility.yul\":5593:5632   */\n      add\n        /* \"#utility.yul\":5586:5632   */\n      swap2\n      pop\n        /* \"#utility.yul\":5366:5638   */\n      pop\n      swap3\n      swap2\n      pop\n      pop\n      jump\t// out\n        /* \"#utility.yul\":5644:6010   */\n    tag_228:\n      0x00\n        /* \"#utility.yul\":5807:5874   */\n      tag_230\n        /* \"#utility.yul\":5871:5873   */\n      0x22\n        /* \"#utility.yul\":5866:5869   */\n      dup4\n        /* \"#utility.yul\":5807:5874   */\n      tag_225\n      jump\t// in\n    tag_230:\n        /* \"#utility.yul\":5800:5874   */\n      swap2\n      pop\n        /* \"#utility.yul\":5904:5938   */\n      0x566f74696e67206973206e6f7420616c6c6f7765642061742074686973207469\n        /* \"#utility.yul\":5900:5901   */\n      0x00\n        /* \"#utility.yul\":5895:5898   */\n      dup4\n        /* \"#utility.yul\":5891:5902   */\n      add\n        /* \"#utility.yul\":5884:5939   */\n      mstore\n        /* \"#utility.yul\":5970:5974   */\n      0x6d65000000000000000000000000000000000000000000000000000000000000\n        /* \"#utility.yul\":5965:5967   */\n      0x20\n        /* \"#utility.yul\":5960:5963   */\n      dup4\n        /* \"#utility.yul\":5956:5968   */\n      add\n        /* \"#utility.yul\":5949:5975   */\n      mstore\n        /* \"#utility.yul\":6001:6003   */\n      0x40\n        /* \"#utility.yul\":5996:5999   */\n      dup3\n        /* \"#utility.yul\":5992:6004   */\n      add\n        /* \"#utility.yul\":5985:6004   */\n      swap1\n      pop\n        /* \"#utility.yul\":5790:6010   */\n      swap2\n      swap1\n      pop\n      jump\t// out\n        /* \"#utility.yul\":6016:6337   */\n    tag_231:\n      0x00\n        /* \"#utility.yul\":6179:6246   */\n      tag_233\n        /* \"#utility.yul\":6243:6245   */\n      0x17\n        /* \"#utility.yul\":6238:6241   */\n      dup4\n        /* \"#utility.yul\":6179:6246   */\n      tag_225\n      jump\t// in\n    tag_233:\n        /* \"#utility.yul\":6172:6246   */\n      swap2\n      pop\n        /* \"#utility.yul\":6276:6301   */\n      0x50726f706f73616c20646f6573206e6f74206578697374000000000000000000\n        /* \"#utility.yul\":6272:6273   */\n      0x00\n        /* \"#utility.yul\":6267:6270   */\n      dup4\n        /* \"#utility.yul\":6263:6274   */\n      add\n        /* \"#utility.yul\":6256:6302   */\n      mstore\n        /* \"#utility.yul\":6328:6330   */\n      0x20\n        /* \"#utility.yul\":6323:6326   */\n      dup3\n        /* \"#utility.yul\":6319:6331   */\n      add\n        /* \"#utility.yul\":6312:6331   */\n      swap1\n      pop\n        /* \"#utility.yul\":6162:6337   */\n      swap2\n      swap1\n      pop\n      jump\t// out\n        /* \"#utility.yul\":6343:6715   */\n    tag_234:\n      0x00\n        /* \"#utility.yul\":6506:6573   */\n      tag_236\n        /* \"#utility.yul\":6570:6572   */\n      0x28\n        /* \"#utility.yul\":6565:6568   */\n      dup4\n        /* \"#utility.yul\":6506:6573   */\n      tag_225\n      jump\t// in\n    tag_236:\n        /* \"#utility.yul\":6499:6573   */\n      swap2\n      pop\n        /* \"#utility.yul\":6603:6637   */\n      0x596f7520617265206e6f74207468652063726561746f72206f66207468697320\n        /* \"#utility.yul\":6599:6600   */\n      0x00\n        /* \"#utility.yul\":6594:6597   */\n      dup4\n        /* \"#utility.yul\":6590:6601   */\n      add\n        /* \"#utility.yul\":6583:6638   */\n      mstore\n        /* \"#utility.yul\":6669:6679   */\n      0x70726f706f73616c000000000000000000000000000000000000000000000000\n        /* \"#utility.yul\":6664:6666   */\n      0x20\n        /* \"#utility.yul\":6659:6662   */\n      dup4\n        /* \"#utility.yul\":6655:6667   */\n      add\n        /* \"#utility.yul\":6648:6680   */\n      mstore\n        /* \"#utility.yul\":6706:6708   */\n      0x40\n        /* \"#utility.yul\":6701:6704   */\n      dup3\n        /* \"#utility.yul\":6697:6709   */\n      add\n        /* \"#utility.yul\":6690:6709   */\n      swap1\n      pop\n        /* \"#utility.yul\":6489:6715   */\n      swap2\n      swap1\n      pop\n      jump\t// out\n        /* \"#utility.yul\":6721:7092   */\n    tag_237:\n      0x00\n        /* \"#utility.yul\":6884:6951   */\n      tag_239\n        /* \"#utility.yul\":6948:6950   */\n      0x27\n        /* \"#utility.yul\":6943:6946   */\n      dup4\n        /* \"#utility.yul\":6884:6951   */\n      tag_225\n      jump\t// in\n    tag_239:\n        /* \"#utility.yul\":6877:6951   */\n      swap2\n      pop\n        /* \"#utility.yul\":6981:7015   */\n      0x596f75206861766520616c726561647920766f746564206f6e20746869732070\n        /* \"#utility.yul\":6977:6978   */\n      0x00\n        /* \"#utility.yul\":6972:6975   */\n      dup4\n        /* \"#utility.yul\":6968:6979   */\n      add\n        /* \"#utility.yul\":6961:7016   */\n      mstore\n        /* \"#utility.yul\":7047:7056   */\n      0x726f706f73616c00000000000000000000000000000000000000000000000000\n        /* \"#utility.yul\":7042:7044   */\n      0x20\n        /* \"#utility.yul\":7037:7040   */\n      dup4\n        /* \"#utility.yul\":7033:7045   */\n      add\n        /* \"#utility.yul\":7026:7057   */\n      mstore\n        /* \"#utility.yul\":7083:7085   */\n      0x40\n        /* \"#utility.yul\":7078:7081   */\n      dup3\n        /* \"#utility.yul\":7074:7086   */\n      add\n        /* \"#utility.yul\":7067:7086   */\n      swap1\n      pop\n        /* \"#utility.yul\":6867:7092   */\n      swap2\n      swap1\n      pop\n      jump\t// out\n        /* \"#utility.yul\":7098:7465   */\n    tag_240:\n      0x00\n        /* \"#utility.yul\":7261:7328   */\n      tag_242\n        /* \"#utility.yul\":7325:7327   */\n      0x23\n        /* \"#utility.yul\":7320:7323   */\n      dup4\n        /* \"#utility.yul\":7261:7328   */\n      tag_225\n      jump\t// in\n    tag_242:\n        /* \"#utility.yul\":7254:7328   */\n      swap2\n      pop\n        /* \"#utility.yul\":7358:7392   */\n      0x596f752068617665206e6f7420766f746564206f6e20746869732070726f706f\n        /* \"#utility.yul\":7354:7355   */\n      0x00\n        /* \"#utility.yul\":7349:7352   */\n      dup4\n        /* \"#utility.yul\":7345:7356   */\n      add\n        /* \"#utility.yul\":7338:7393   */\n      mstore\n        /* \"#utility.yul\":7424:7429   */\n      0x73616c0000000000000000000000000000000000000000000000000000000000\n        /* \"#utility.yul\":7419:7421   */\n      0x20\n        /* \"#utility.yul\":7414:7417   */\n      dup4\n        /* \"#utility.yul\":7410:7422   */\n      add\n        /* \"#utility.yul\":7403:7430   */\n      mstore\n        /* \"#utility.yul\":7456:7458   */\n      0x40\n        /* \"#utility.yul\":7451:7454   */\n      dup3\n        /* \"#utility.yul\":7447:7459   */\n      add\n        /* \"#utility.yul\":7440:7459   */\n      swap1\n      pop\n        /* \"#utility.yul\":7244:7465   */\n      swap2\n      swap1\n      pop\n      jump\t// out\n        /* \"#utility.yul\":7527:8911   */\n    tag_185:\n      0x00\n        /* \"#utility.yul\":7670:7674   */\n      0xc0\n        /* \"#utility.yul\":7665:7668   */\n      dup4\n        /* \"#utility.yul\":7661:7675   */\n      add\n        /* \"#utility.yul\":7757:7761   */\n      0x00\n        /* \"#utility.yul\":7750:7755   */\n      dup4\n        /* \"#utility.yul\":7746:7762   */\n      add\n        /* \"#utility.yul\":7740:7763   */\n      mload\n        /* \"#utility.yul\":7810:7813   */\n      dup5\n        /* \"#utility.yul\":7804:7808   */\n      dup3\n        /* \"#utility.yul\":7800:7814   */\n      sub\n        /* \"#utility.yul\":7793:7797   */\n      0x00\n        /* \"#utility.yul\":7788:7791   */\n      dup7\n        /* \"#utility.yul\":7784:7798   */\n      add\n        /* \"#utility.yul\":7777:7815   */\n      mstore\n        /* \"#utility.yul\":7836:7909   */\n      tag_244\n        /* \"#utility.yul\":7904:7908   */\n      dup3\n        /* \"#utility.yul\":7890:7902   */\n      dup3\n        /* \"#utility.yul\":7836:7909   */\n      tag_211\n      jump\t// in\n    tag_244:\n        /* \"#utility.yul\":7828:7909   */\n      swap2\n      pop\n        /* \"#utility.yul\":7685:7920   */\n      pop\n        /* \"#utility.yul\":8009:8013   */\n      0x20\n        /* \"#utility.yul\":8002:8007   */\n      dup4\n        /* \"#utility.yul\":7998:8014   */\n      add\n        /* \"#utility.yul\":7992:8015   */\n      mload\n        /* \"#utility.yul\":8062:8065   */\n      dup5\n        /* \"#utility.yul\":8056:8060   */\n      dup3\n        /* \"#utility.yul\":8052:8066   */\n      sub\n        /* \"#utility.yul\":8045:8049   */\n      0x20\n        /* \"#utility.yul\":8040:8043   */\n      dup7\n        /* \"#utility.yul\":8036:8050   */\n      add\n        /* \"#utility.yul\":8029:8067   */\n      mstore\n        /* \"#utility.yul\":8088:8161   */\n      tag_245\n        /* \"#utility.yul\":8156:8160   */\n      dup3\n        /* \"#utility.yul\":8142:8154   */\n      dup3\n        /* \"#utility.yul\":8088:8161   */\n      tag_211\n      jump\t// in\n    tag_245:\n        /* \"#utility.yul\":8080:8161   */\n      swap2\n      pop\n        /* \"#utility.yul\":7930:8172   */\n      pop\n        /* \"#utility.yul\":8259:8263   */\n      0x40\n        /* \"#utility.yul\":8252:8257   */\n      dup4\n        /* \"#utility.yul\":8248:8264   */\n      add\n        /* \"#utility.yul\":8242:8265   */\n      mload\n        /* \"#utility.yul\":8278:8341   */\n      tag_246\n        /* \"#utility.yul\":8335:8339   */\n      0x40\n        /* \"#utility.yul\":8330:8333   */\n      dup7\n        /* \"#utility.yul\":8326:8340   */\n      add\n        /* \"#utility.yul\":8312:8324   */\n      dup3\n        /* \"#utility.yul\":8278:8341   */\n      tag_247\n      jump\t// in\n    tag_246:\n        /* \"#utility.yul\":8182:8351   */\n      pop\n        /* \"#utility.yul\":8438:8442   */\n      0x60\n        /* \"#utility.yul\":8431:8436   */\n      dup4\n        /* \"#utility.yul\":8427:8443   */\n      add\n        /* \"#utility.yul\":8421:8444   */\n      mload\n        /* \"#utility.yul\":8457:8520   */\n      tag_248\n        /* \"#utility.yul\":8514:8518   */\n      0x60\n        /* \"#utility.yul\":8509:8512   */\n      dup7\n        /* \"#utility.yul\":8505:8519   */\n      add\n        /* \"#utility.yul\":8491:8503   */\n      dup3\n        /* \"#utility.yul\":8457:8520   */\n      tag_247\n      jump\t// in\n    tag_248:\n        /* \"#utility.yul\":8361:8530   */\n      pop\n        /* \"#utility.yul\":8615:8619   */\n      0x80\n        /* \"#utility.yul\":8608:8613   */\n      dup4\n        /* \"#utility.yul\":8604:8620   */\n      add\n        /* \"#utility.yul\":8598:8621   */\n      mload\n        /* \"#utility.yul\":8634:8697   */\n      tag_249\n        /* \"#utility.yul\":8691:8695   */\n      0x80\n        /* \"#utility.yul\":8686:8689   */\n      dup7\n        /* \"#utility.yul\":8682:8696   */\n      add\n        /* \"#utility.yul\":8668:8680   */\n      dup3\n        /* \"#utility.yul\":8634:8697   */\n      tag_247\n      jump\t// in\n    tag_249:\n        /* \"#utility.yul\":8540:8707   */\n      pop\n        /* \"#utility.yul\":8792:8796   */\n      0xa0\n        /* \"#utility.yul\":8785:8790   */\n      dup4\n        /* \"#utility.yul\":8781:8797   */\n      add\n        /* \"#utility.yul\":8775:8798   */\n      mload\n        /* \"#utility.yul\":8811:8874   */\n      tag_250\n        /* \"#utility.yul\":8868:8872   */\n      0xa0\n        /* \"#utility.yul\":8863:8866   */\n      dup7\n        /* \"#utility.yul\":8859:8873   */\n      add\n        /* \"#utility.yul\":8845:8857   */\n      dup3\n        /* \"#utility.yul\":8811:8874   */\n      tag_186\n      jump\t// in\n    tag_250:\n        /* \"#utility.yul\":8717:8884   */\n      pop\n        /* \"#utility.yul\":8901:8905   */\n      dup1\n        /* \"#utility.yul\":8894:8905   */\n      swap2\n      pop\n        /* \"#utility.yul\":7639:8911   */\n      pop\n      swap3\n      swap2\n      pop\n      pop\n      jump\t// out\n        /* \"#utility.yul\":8917:9025   */\n    tag_247:\n        /* \"#utility.yul\":8994:9018   */\n      tag_252\n        /* \"#utility.yul\":9012:9017   */\n      dup2\n        /* \"#utility.yul\":8994:9018   */\n      tag_253\n      jump\t// in\n    tag_252:\n        /* \"#utility.yul\":8989:8992   */\n      dup3\n        /* \"#utility.yul\":8982:9019   */\n      mstore\n        /* \"#utility.yul\":8972:9025   */\n      pop\n      pop\n      jump\t// out\n        /* \"#utility.yul\":9031:9149   */\n    tag_254:\n        /* \"#utility.yul\":9118:9142   */\n      tag_256\n        /* \"#utility.yul\":9136:9141   */\n      dup2\n        /* \"#utility.yul\":9118:9142   */\n      tag_253\n      jump\t// in\n    tag_256:\n        /* \"#utility.yul\":9113:9116   */\n      dup3\n        /* \"#utility.yul\":9106:9143   */\n      mstore\n        /* \"#utility.yul\":9096:9149   */\n      pop\n      pop\n      jump\t// out\n        /* \"#utility.yul\":9155:9624   */\n    tag_50:\n      0x00\n        /* \"#utility.yul\":9384:9386   */\n      0x20\n        /* \"#utility.yul\":9373:9382   */\n      dup3\n        /* \"#utility.yul\":9369:9387   */\n      add\n        /* \"#utility.yul\":9361:9387   */\n      swap1\n      pop\n        /* \"#utility.yul\":9433:9442   */\n      dup2\n        /* \"#utility.yul\":9427:9431   */\n      dup2\n        /* \"#utility.yul\":9423:9443   */\n      sub\n        /* \"#utility.yul\":9419:9420   */\n      0x00\n        /* \"#utility.yul\":9408:9417   */\n      dup4\n        /* \"#utility.yul\":9404:9421   */\n      add\n        /* \"#utility.yul\":9397:9444   */\n      mstore\n        /* \"#utility.yul\":9461:9617   */\n      tag_258\n        /* \"#utility.yul\":9612:9616   */\n      dup2\n        /* \"#utility.yul\":9603:9609   */\n      dup5\n        /* \"#utility.yul\":9461:9617   */\n      tag_193\n      jump\t// in\n    tag_258:\n        /* \"#utility.yul\":9453:9617   */\n      swap1\n      pop\n        /* \"#utility.yul\":9351:9624   */\n      swap3\n      swap2\n      pop\n      pop\n      jump\t// out\n        /* \"#utility.yul\":9630:9840   */\n    tag_31:\n      0x00\n        /* \"#utility.yul\":9755:9757   */\n      0x20\n        /* \"#utility.yul\":9744:9753   */\n      dup3\n        /* \"#utility.yul\":9740:9758   */\n      add\n        /* \"#utility.yul\":9732:9758   */\n      swap1\n      pop\n        /* \"#utility.yul\":9768:9833   */\n      tag_260\n        /* \"#utility.yul\":9830:9831   */\n      0x00\n        /* \"#utility.yul\":9819:9828   */\n      dup4\n        /* \"#utility.yul\":9815:9832   */\n      add\n        /* \"#utility.yul\":9806:9812   */\n      dup5\n        /* \"#utility.yul\":9768:9833   */\n      tag_207\n      jump\t// in\n    tag_260:\n        /* \"#utility.yul\":9722:9840   */\n      swap3\n      swap2\n      pop\n      pop\n      jump\t// out\n        /* \"#utility.yul\":9846:10159   */\n    tag_89:\n      0x00\n        /* \"#utility.yul\":9997:9999   */\n      0x20\n        /* \"#utility.yul\":9986:9995   */\n      dup3\n        /* \"#utility.yul\":9982:10000   */\n      add\n        /* \"#utility.yul\":9974:10000   */\n      swap1\n      pop\n        /* \"#utility.yul\":10046:10055   */\n      dup2\n        /* \"#utility.yul\":10040:10044   */\n      dup2\n        /* \"#utility.yul\":10036:10056   */\n      sub\n        /* \"#utility.yul\":10032:10033   */\n      0x00\n        /* \"#utility.yul\":10021:10030   */\n      dup4\n        /* \"#utility.yul\":10017:10034   */\n      add\n        /* \"#utility.yul\":10010:10057   */\n      mstore\n        /* \"#utility.yul\":10074:10152   */\n      tag_262\n        /* \"#utility.yul\":10147:10151   */\n      dup2\n        /* \"#utility.yul\":10138:10144   */\n      dup5\n        /* \"#utility.yul\":10074:10152   */\n      tag_221\n      jump\t// in\n    tag_262:\n        /* \"#utility.yul\":10066:10152   */\n      swap1\n      pop\n        /* \"#utility.yul\":9964:10159   */\n      swap3\n      swap2\n      pop\n      pop\n      jump\t// out\n        /* \"#utility.yul\":10165:11122   */\n    tag_21:\n      0x00\n        /* \"#utility.yul\":10476:10479   */\n      0xc0\n        /* \"#utility.yul\":10465:10474   */\n      dup3\n        /* \"#utility.yul\":10461:10480   */\n      add\n        /* \"#utility.yul\":10453:10480   */\n      swap1\n      pop\n        /* \"#utility.yul\":10526:10535   */\n      dup2\n        /* \"#utility.yul\":10520:10524   */\n      dup2\n        /* \"#utility.yul\":10516:10536   */\n      sub\n        /* \"#utility.yul\":10512:10513   */\n      0x00\n        /* \"#utility.yul\":10501:10510   */\n      dup4\n        /* \"#utility.yul\":10497:10514   */\n      add\n        /* \"#utility.yul\":10490:10537   */\n      mstore\n        /* \"#utility.yul\":10554:10632   */\n      tag_264\n        /* \"#utility.yul\":10627:10631   */\n      dup2\n        /* \"#utility.yul\":10618:10624   */\n      dup10\n        /* \"#utility.yul\":10554:10632   */\n      tag_221\n      jump\t// in\n    tag_264:\n        /* \"#utility.yul\":10546:10632   */\n      swap1\n      pop\n        /* \"#utility.yul\":10679:10688   */\n      dup2\n        /* \"#utility.yul\":10673:10677   */\n      dup2\n        /* \"#utility.yul\":10669:10689   */\n      sub\n        /* \"#utility.yul\":10664:10666   */\n      0x20\n        /* \"#utility.yul\":10653:10662   */\n      dup4\n        /* \"#utility.yul\":10649:10667   */\n      add\n        /* \"#utility.yul\":10642:10690   */\n      mstore\n        /* \"#utility.yul\":10707:10785   */\n      tag_265\n        /* \"#utility.yul\":10780:10784   */\n      dup2\n        /* \"#utility.yul\":10771:10777   */\n      dup9\n        /* \"#utility.yul\":10707:10785   */\n      tag_221\n      jump\t// in\n    tag_265:\n        /* \"#utility.yul\":10699:10785   */\n      swap1\n      pop\n        /* \"#utility.yul\":10795:10867   */\n      tag_266\n        /* \"#utility.yul\":10863:10865   */\n      0x40\n        /* \"#utility.yul\":10852:10861   */\n      dup4\n        /* \"#utility.yul\":10848:10866   */\n      add\n        /* \"#utility.yul\":10839:10845   */\n      dup8\n        /* \"#utility.yul\":10795:10867   */\n      tag_254\n      jump\t// in\n    tag_266:\n        /* \"#utility.yul\":10877:10949   */\n      tag_267\n        /* \"#utility.yul\":10945:10947   */\n      0x60\n        /* \"#utility.yul\":10934:10943   */\n      dup4\n        /* \"#utility.yul\":10930:10948   */\n      add\n        /* \"#utility.yul\":10921:10927   */\n      dup7\n        /* \"#utility.yul\":10877:10949   */\n      tag_254\n      jump\t// in\n    tag_267:\n        /* \"#utility.yul\":10959:11032   */\n      tag_268\n        /* \"#utility.yul\":11027:11030   */\n      0x80\n        /* \"#utility.yul\":11016:11025   */\n      dup4\n        /* \"#utility.yul\":11012:11031   */\n      add\n        /* \"#utility.yul\":11003:11009   */\n      dup6\n        /* \"#utility.yul\":10959:11032   */\n      tag_254\n      jump\t// in\n    tag_268:\n        /* \"#utility.yul\":11042:11115   */\n      tag_269\n        /* \"#utility.yul\":11110:11113   */\n      0xa0\n        /* \"#utility.yul\":11099:11108   */\n      dup4\n        /* \"#utility.yul\":11095:11114   */\n      add\n        /* \"#utility.yul\":11086:11092   */\n      dup5\n        /* \"#utility.yul\":11042:11115   */\n      tag_190\n      jump\t// in\n    tag_269:\n        /* \"#utility.yul\":10443:11122   */\n      swap8\n      swap7\n      pop\n      pop\n      pop\n      pop\n      pop\n      pop\n      pop\n      jump\t// out\n        /* \"#utility.yul\":11128:11547   */\n    tag_68:\n      0x00\n        /* \"#utility.yul\":11332:11334   */\n      0x20\n        /* \"#utility.yul\":11321:11330   */\n      dup3\n        /* \"#utility.yul\":11317:11335   */\n      add\n        /* \"#utility.yul\":11309:11335   */\n      swap1\n      pop\n        /* \"#utility.yul\":11381:11390   */\n      dup2\n        /* \"#utility.yul\":11375:11379   */\n      dup2\n        /* \"#utility.yul\":11371:11391   */\n      sub\n        /* \"#utility.yul\":11367:11368   */\n      0x00\n        /* \"#utility.yul\":11356:11365   */\n      dup4\n        /* \"#utility.yul\":11352:11369   */\n      add\n        /* \"#utility.yul\":11345:11392   */\n      mstore\n        /* \"#utility.yul\":11409:11540   */\n      tag_271\n        /* \"#utility.yul\":11535:11539   */\n      dup2\n        /* \"#utility.yul\":11409:11540   */\n      tag_228\n      jump\t// in\n    tag_271:\n        /* \"#utility.yul\":11401:11540   */\n      swap1\n      pop\n        /* \"#utility.yul\":11299:11547   */\n      swap2\n      swap1\n      pop\n      jump\t// out\n        /* \"#utility.yul\":11553:11972   */\n    tag_54:\n      0x00\n        /* \"#utility.yul\":11757:11759   */\n      0x20\n        /* \"#utility.yul\":11746:11755   */\n      dup3\n        /* \"#utility.yul\":11742:11760   */\n      add\n        /* \"#utility.yul\":11734:11760   */\n      swap1\n      pop\n        /* \"#utility.yul\":11806:11815   */\n      dup2\n        /* \"#utility.yul\":11800:11804   */\n      dup2\n        /* \"#utility.yul\":11796:11816   */\n      sub\n        /* \"#utility.yul\":11792:11793   */\n      0x00\n        /* \"#utility.yul\":11781:11790   */\n      dup4\n        /* \"#utility.yul\":11777:11794   */\n      add\n        /* \"#utility.yul\":11770:11817   */\n      mstore\n        /* \"#utility.yul\":11834:11965   */\n      tag_273\n        /* \"#utility.yul\":11960:11964   */\n      dup2\n        /* \"#utility.yul\":11834:11965   */\n      tag_231\n      jump\t// in\n    tag_273:\n        /* \"#utility.yul\":11826:11965   */\n      swap1\n      pop\n        /* \"#utility.yul\":11724:11972   */\n      swap2\n      swap1\n      pop\n      jump\t// out\n        /* \"#utility.yul\":11978:12397   */\n    tag_103:\n      0x00\n        /* \"#utility.yul\":12182:12184   */\n      0x20\n        /* \"#utility.yul\":12171:12180   */\n      dup3\n        /* \"#utility.yul\":12167:12185   */\n      add\n        /* \"#utility.yul\":12159:12185   */\n      swap1\n      pop\n        /* \"#utility.yul\":12231:12240   */\n      dup2\n        /* \"#utility.yul\":12225:12229   */\n      dup2\n        /* \"#utility.yul\":12221:12241   */\n      sub\n        /* \"#utility.yul\":12217:12218   */\n      0x00\n        /* \"#utility.yul\":12206:12215   */\n      dup4\n        /* \"#utility.yul\":12202:12219   */\n      add\n        /* \"#utility.yul\":12195:12242   */\n      mstore\n        /* \"#utility.yul\":12259:12390   */\n      tag_275\n        /* \"#utility.yul\":12385:12389   */\n      dup2\n        /* \"#utility.yul\":12259:12390   */\n      tag_234\n      jump\t// in\n    tag_275:\n        /* \"#utility.yul\":12251:12390   */\n      swap1\n      pop\n        /* \"#utility.yul\":12149:12397   */\n      swap2\n      swap1\n      pop\n      jump\t// out\n        /* \"#utility.yul\":12403:12822   */\n    tag_71:\n      0x00\n        /* \"#utility.yul\":12607:12609   */\n      0x20\n        /* \"#utility.yul\":12596:12605   */\n      dup3\n        /* \"#utility.yul\":12592:12610   */\n      add\n        /* \"#utility.yul\":12584:12610   */\n      swap1\n      pop\n        /* \"#utility.yul\":12656:12665   */\n      dup2\n        /* \"#utility.yul\":12650:12654   */\n      dup2\n        /* \"#utility.yul\":12646:12666   */\n      sub\n        /* \"#utility.yul\":12642:12643   */\n      0x00\n        /* \"#utility.yul\":12631:12640   */\n      dup4\n        /* \"#utility.yul\":12627:12644   */\n      add\n        /* \"#utility.yul\":12620:12667   */\n      mstore\n        /* \"#utility.yul\":12684:12815   */\n      tag_277\n        /* \"#utility.yul\":12810:12814   */\n      dup2\n        /* \"#utility.yul\":12684:12815   */\n      tag_237\n      jump\t// in\n    tag_277:\n        /* \"#utility.yul\":12676:12815   */\n      swap1\n      pop\n        /* \"#utility.yul\":12574:12822   */\n      swap2\n      swap1\n      pop\n      jump\t// out\n        /* \"#utility.yul\":12828:13247   */\n    tag_95:\n      0x00\n        /* \"#utility.yul\":13032:13034   */\n      0x20\n        /* \"#utility.yul\":13021:13030   */\n      dup3\n        /* \"#utility.yul\":13017:13035   */\n      add\n        /* \"#utility.yul\":13009:13035   */\n      swap1\n      pop\n        /* \"#utility.yul\":13081:13090   */\n      dup2\n        /* \"#utility.yul\":13075:13079   */\n      dup2\n        /* \"#utility.yul\":13071:13091   */\n      sub\n        /* \"#utility.yul\":13067:13068   */\n      0x00\n        /* \"#utility.yul\":13056:13065   */\n      dup4\n        /* \"#utility.yul\":13052:13069   */\n      add\n        /* \"#utility.yul\":13045:13092   */\n      mstore\n        /* \"#utility.yul\":13109:13240   */\n      tag_279\n        /* \"#utility.yul\":13235:13239   */\n      dup2\n        /* \"#utility.yul\":13109:13240   */\n      tag_240\n      jump\t// in\n    tag_279:\n        /* \"#utility.yul\":13101:13240   */\n      swap1\n      pop\n        /* \"#utility.yul\":12999:13247   */\n      swap2\n      swap1\n      pop\n      jump\t// out\n        /* \"#utility.yul\":13253:13475   */\n    tag_25:\n      0x00\n        /* \"#utility.yul\":13384:13386   */\n      0x20\n        /* \"#utility.yul\":13373:13382   */\n      dup3\n        /* \"#utility.yul\":13369:13387   */\n      add\n        /* \"#utility.yul\":13361:13387   */\n      swap1\n      pop\n        /* \"#utility.yul\":13397:13468   */\n      tag_281\n        /* \"#utility.yul\":13465:13466   */\n      0x00\n        /* \"#utility.yul\":13454:13463   */\n      dup4\n        /* \"#utility.yul\":13450:13467   */\n      add\n        /* \"#utility.yul\":13441:13447   */\n      dup5\n        /* \"#utility.yul\":13397:13468   */\n      tag_254\n      jump\t// in\n    tag_281:\n        /* \"#utility.yul\":13351:13475   */\n      swap3\n      swap2\n      pop\n      pop\n      jump\t// out\n        /* \"#utility.yul\":13481:13759   */\n    tag_152:\n      0x00\n        /* \"#utility.yul\":13547:13549   */\n      0x40\n        /* \"#utility.yul\":13541:13550   */\n      mload\n        /* \"#utility.yul\":13531:13550   */\n      swap1\n      pop\n        /* \"#utility.yul\":13589:13593   */\n      dup2\n        /* \"#utility.yul\":13581:13587   */\n      dup2\n        /* \"#utility.yul\":13577:13594   */\n      add\n        /* \"#utility.yul\":13696:13702   */\n      dup2\n        /* \"#utility.yul\":13684:13694   */\n      dup2\n        /* \"#utility.yul\":13681:13703   */\n      lt\n        /* \"#utility.yul\":13660:13678   */\n      0xffffffffffffffff\n        /* \"#utility.yul\":13648:13658   */\n      dup3\n        /* \"#utility.yul\":13645:13679   */\n      gt\n        /* \"#utility.yul\":13642:13704   */\n      or\n        /* \"#utility.yul\":13639:13641   */\n      iszero\n      tag_283\n      jumpi\n        /* \"#utility.yul\":13707:13720   */\n      tag_284\n      tag_285\n      jump\t// in\n    tag_284:\n        /* \"#utility.yul\":13639:13641   */\n    tag_283:\n        /* \"#utility.yul\":13742:13752   */\n      dup1\n        /* \"#utility.yul\":13738:13740   */\n      0x40\n        /* \"#utility.yul\":13731:13753   */\n      mstore\n        /* \"#utility.yul\":13521:13759   */\n      pop\n      swap2\n      swap1\n      pop\n      jump\t// out\n        /* \"#utility.yul\":13765:14092   */\n    tag_151:\n      0x00\n        /* \"#utility.yul\":13917:13935   */\n      0xffffffffffffffff\n        /* \"#utility.yul\":13909:13915   */\n      dup3\n        /* \"#utility.yul\":13906:13936   */\n      gt\n        /* \"#utility.yul\":13903:13905   */\n      iszero\n      tag_287\n      jumpi\n        /* \"#utility.yul\":13939:13952   */\n      tag_288\n      tag_285\n      jump\t// in\n    tag_288:\n        /* \"#utility.yul\":13903:13905   */\n    tag_287:\n        /* \"#utility.yul\":14019:14023   */\n      0x1f\n        /* \"#utility.yul\":14015:14024   */\n      not\n        /* \"#utility.yul\":14008:14012   */\n      0x1f\n        /* \"#utility.yul\":14000:14006   */\n      dup4\n        /* \"#utility.yul\":13996:14013   */\n      add\n        /* \"#utility.yul\":13992:14025   */\n      and\n        /* \"#utility.yul\":13984:14025   */\n      swap1\n      pop\n        /* \"#utility.yul\":14080:14084   */\n      0x20\n        /* \"#utility.yul\":14074:14078   */\n      dup2\n        /* \"#utility.yul\":14070:14085   */\n      add\n        /* \"#utility.yul\":14062:14085   */\n      swap1\n      pop\n        /* \"#utility.yul\":13832:14092   */\n      swap2\n      swap1\n      pop\n      jump\t// out\n        /* \"#utility.yul\":14098:14254   */\n    tag_200:\n      0x00\n        /* \"#utility.yul\":14212:14215   */\n      dup2\n        /* \"#utility.yul\":14204:14215   */\n      swap1\n      pop\n        /* \"#utility.yul\":14242:14246   */\n      0x20\n        /* \"#utility.yul\":14237:14240   */\n      dup3\n        /* \"#utility.yul\":14233:14247   */\n      add\n        /* \"#utility.yul\":14225:14247   */\n      swap1\n      pop\n        /* \"#utility.yul\":14194:14254   */\n      swap2\n      swap1\n      pop\n      jump\t// out\n        /* \"#utility.yul\":14260:14398   */\n    tag_196:\n      0x00\n        /* \"#utility.yul\":14385:14390   */\n      dup2\n        /* \"#utility.yul\":14379:14391   */\n      mload\n        /* \"#utility.yul\":14369:14391   */\n      swap1\n      pop\n        /* \"#utility.yul\":14358:14398   */\n      swap2\n      swap1\n      pop\n      jump\t// out\n        /* \"#utility.yul\":14404:14503   */\n    tag_214:\n      0x00\n        /* \"#utility.yul\":14490:14495   */\n      dup2\n        /* \"#utility.yul\":14484:14496   */\n      mload\n        /* \"#utility.yul\":14474:14496   */\n      swap1\n      pop\n        /* \"#utility.yul\":14463:14503   */\n      swap2\n      swap1\n      pop\n      jump\t// out\n        /* \"#utility.yul\":14509:14646   */\n    tag_206:\n      0x00\n        /* \"#utility.yul\":14635:14639   */\n      0x20\n        /* \"#utility.yul\":14630:14633   */\n      dup3\n        /* \"#utility.yul\":14626:14640   */\n      add\n        /* \"#utility.yul\":14618:14640   */\n      swap1\n      pop\n        /* \"#utility.yul\":14608:14646   */\n      swap2\n      swap1\n      pop\n      jump\t// out\n        /* \"#utility.yul\":14652:14860   */\n    tag_198:\n      0x00\n        /* \"#utility.yul\":14809:14815   */\n      dup3\n        /* \"#utility.yul\":14804:14807   */\n      dup3\n        /* \"#utility.yul\":14797:14816   */\n      mstore\n        /* \"#utility.yul\":14849:14853   */\n      0x20\n        /* \"#utility.yul\":14844:14847   */\n      dup3\n        /* \"#utility.yul\":14840:14854   */\n      add\n        /* \"#utility.yul\":14825:14854   */\n      swap1\n      pop\n        /* \"#utility.yul\":14787:14860   */\n      swap3\n      swap2\n      pop\n      pop\n      jump\t// out\n        /* \"#utility.yul\":14866:15025   */\n    tag_216:\n      0x00\n        /* \"#utility.yul\":14974:14980   */\n      dup3\n        /* \"#utility.yul\":14969:14972   */\n      dup3\n        /* \"#utility.yul\":14962:14981   */\n      mstore\n        /* \"#utility.yul\":15014:15018   */\n      0x20\n        /* \"#utility.yul\":15009:15012   */\n      dup3\n        /* \"#utility.yul\":15005:15019   */\n      add\n        /* \"#utility.yul\":14990:15019   */\n      swap1\n      pop\n        /* \"#utility.yul\":14952:15025   */\n      swap3\n      swap2\n      pop\n      pop\n      jump\t// out\n        /* \"#utility.yul\":15031:15200   */\n    tag_225:\n      0x00\n        /* \"#utility.yul\":15149:15155   */\n      dup3\n        /* \"#utility.yul\":15144:15147   */\n      dup3\n        /* \"#utility.yul\":15137:15156   */\n      mstore\n        /* \"#utility.yul\":15189:15193   */\n      0x20\n        /* \"#utility.yul\":15184:15187   */\n      dup3\n        /* \"#utility.yul\":15180:15194   */\n      add\n        /* \"#utility.yul\":15165:15194   */\n      swap1\n      pop\n        /* \"#utility.yul\":15127:15200   */\n      swap3\n      swap2\n      pop\n      pop\n      jump\t// out\n        /* \"#utility.yul\":15206:15302   */\n    tag_189:\n      0x00\n        /* \"#utility.yul\":15272:15296   */\n      tag_297\n        /* \"#utility.yul\":15290:15295   */\n      dup3\n        /* \"#utility.yul\":15272:15296   */\n      tag_298\n      jump\t// in\n    tag_297:\n        /* \"#utility.yul\":15261:15296   */\n      swap1\n      pop\n        /* \"#utility.yul\":15251:15302   */\n      swap2\n      swap1\n      pop\n      jump\t// out\n        /* \"#utility.yul\":15308:15398   */\n    tag_210:\n      0x00\n        /* \"#utility.yul\":15385:15390   */\n      dup2\n        /* \"#utility.yul\":15378:15391   */\n      iszero\n        /* \"#utility.yul\":15371:15392   */\n      iszero\n        /* \"#utility.yul\":15360:15392   */\n      swap1\n      pop\n        /* \"#utility.yul\":15350:15398   */\n      swap2\n      swap1\n      pop\n      jump\t// out\n        /* \"#utility.yul\":15404:15530   */\n    tag_298:\n      0x00\n        /* \"#utility.yul\":15481:15523   */\n      0xffffffffffffffffffffffffffffffffffffffff\n        /* \"#utility.yul\":15474:15479   */\n      dup3\n        /* \"#utility.yul\":15470:15524   */\n      and\n        /* \"#utility.yul\":15459:15524   */\n      swap1\n      pop\n        /* \"#utility.yul\":15449:15530   */\n      swap2\n      swap1\n      pop\n      jump\t// out\n        /* \"#utility.yul\":15536:15613   */\n    tag_253:\n      0x00\n        /* \"#utility.yul\":15602:15607   */\n      dup2\n        /* \"#utility.yul\":15591:15607   */\n      swap1\n      pop\n        /* \"#utility.yul\":15581:15613   */\n      swap2\n      swap1\n      pop\n      jump\t// out\n        /* \"#utility.yul\":15619:15773   */\n    tag_155:\n        /* \"#utility.yul\":15703:15709   */\n      dup3\n        /* \"#utility.yul\":15698:15701   */\n      dup2\n        /* \"#utility.yul\":15693:15696   */\n      dup4\n        /* \"#utility.yul\":15680:15710   */\n      calldatacopy\n        /* \"#utility.yul\":15765:15766   */\n      0x00\n        /* \"#utility.yul\":15756:15762   */\n      dup4\n        /* \"#utility.yul\":15751:15754   */\n      dup4\n        /* \"#utility.yul\":15747:15763   */\n      add\n        /* \"#utility.yul\":15740:15767   */\n      mstore\n        /* \"#utility.yul\":15670:15773   */\n      pop\n      pop\n      pop\n      jump\t// out\n        /* \"#utility.yul\":15779:16086   */\n    tag_218:\n        /* \"#utility.yul\":15847:15848   */\n      0x00\n        /* \"#utility.yul\":15857:15970   */\n    tag_304:\n        /* \"#utility.yul\":15871:15877   */\n      dup4\n        /* \"#utility.yul\":15868:15869   */\n      dup2\n        /* \"#utility.yul\":15865:15878   */\n      lt\n        /* \"#utility.yul\":15857:15970   */\n      iszero\n      tag_306\n      jumpi\n        /* \"#utility.yul\":15956:15957   */\n      dup1\n        /* \"#utility.yul\":15951:15954   */\n      dup3\n        /* \"#utility.yul\":15947:15958   */\n      add\n        /* \"#utility.yul\":15941:15959   */\n      mload\n        /* \"#utility.yul\":15937:15938   */\n      dup2\n        /* \"#utility.yul\":15932:15935   */\n      dup5\n        /* \"#utility.yul\":15928:15939   */\n      add\n        /* \"#utility.yul\":15921:15960   */\n      mstore\n        /* \"#utility.yul\":15893:15895   */\n      0x20\n        /* \"#utility.yul\":15890:15891   */\n      dup2\n        /* \"#utility.yul\":15886:15896   */\n      add\n        /* \"#utility.yul\":15881:15896   */\n      swap1\n      pop\n        /* \"#utility.yul\":15857:15970   */\n      jump(tag_304)\n    tag_306:\n        /* \"#utility.yul\":15988:15994   */\n      dup4\n        /* \"#utility.yul\":15985:15986   */\n      dup2\n        /* \"#utility.yul\":15982:15995   */\n      gt\n        /* \"#utility.yul\":15979:15981   */\n      iszero\n      tag_307\n      jumpi\n        /* \"#utility.yul\":16068:16069   */\n      0x00\n        /* \"#utility.yul\":16059:16065   */\n      dup5\n        /* \"#utility.yul\":16054:16057   */\n      dup5\n        /* \"#utility.yul\":16050:16066   */\n      add\n        /* \"#utility.yul\":16043:16070   */\n      mstore\n        /* \"#utility.yul\":15979:15981   */\n    tag_307:\n        /* \"#utility.yul\":15828:16086   */\n      pop\n      pop\n      pop\n      pop\n      jump\t// out\n        /* \"#utility.yul\":16092:16140   */\n    tag_285:\n        /* \"#utility.yul\":16125:16134   */\n      invalid\n        /* \"#utility.yul\":16146:16248   */\n    tag_220:\n      0x00\n        /* \"#utility.yul\":16238:16240   */\n      0x1f\n        /* \"#utility.yul\":16234:16241   */\n      not\n        /* \"#utility.yul\":16229:16231   */\n      0x1f\n        /* \"#utility.yul\":16222:16227   */\n      dup4\n        /* \"#utility.yul\":16218:16232   */\n      add\n        /* \"#utility.yul\":16214:16242   */\n      and\n        /* \"#utility.yul\":16204:16242   */\n      swap1\n      pop\n        /* \"#utility.yul\":16194:16248   */\n      swap2\n      swap1\n      pop\n      jump\t// out\n        /* \"#utility.yul\":16254:16376   */\n    tag_145:\n        /* \"#utility.yul\":16327:16351   */\n      tag_311\n        /* \"#utility.yul\":16345:16350   */\n      dup2\n        /* \"#utility.yul\":16327:16351   */\n      tag_189\n      jump\t// in\n    tag_311:\n        /* \"#utility.yul\":16320:16325   */\n      dup2\n        /* \"#utility.yul\":16317:16352   */\n      eq\n        /* \"#utility.yul\":16307:16309   */\n      tag_312\n      jumpi\n        /* \"#utility.yul\":16366:16367   */\n      0x00\n        /* \"#utility.yul\":16363:16364   */\n      dup1\n        /* \"#utility.yul\":16356:16368   */\n      revert\n        /* \"#utility.yul\":16307:16309   */\n    tag_312:\n        /* \"#utility.yul\":16297:16376   */\n      pop\n      jump\t// out\n        /* \"#utility.yul\":16382:16504   */\n    tag_159:\n        /* \"#utility.yul\":16455:16479   */\n      tag_314\n        /* \"#utility.yul\":16473:16478   */\n      dup2\n        /* \"#utility.yul\":16455:16479   */\n      tag_253\n      jump\t// in\n    tag_314:\n        /* \"#utility.yul\":16448:16453   */\n      dup2\n        /* \"#utility.yul\":16445:16480   */\n      eq\n        /* \"#utility.yul\":16435:16437   */\n      tag_315\n      jumpi\n        /* \"#utility.yul\":16494:16495   */\n      0x00\n        /* \"#utility.yul\":16491:16492   */\n      dup1\n        /* \"#utility.yul\":16484:16496   */\n      revert\n        /* \"#utility.yul\":16435:16437   */\n    tag_315:\n        /* \"#utility.yul\":16425:16504   */\n      pop\n      jump\t// out\n\n    auxdata: 0xa2646970667358221220a566cbb2c0089ec81c8d3967ddeb779361a288864ccb8b5b4b8ac581e9ed1a5f64736f6c63430007020033\n}\n",
				"bytecode": {
					"linkReferences": {},
					"object": "608060405234801561001057600080fd5b50611a95806100206000396000f3fe608060405234801561001057600080fd5b50600436106100935760003560e01c80636b5e1766116100665780636b5e176614610137578063b01f3cae14610153578063bc34c5441461016f578063c7f758a81461018b578063cceb68f5146101c057610093565b80630121b93f14610098578063013cf08b146100b45780631a5007dd146100e95780634385963214610107575b600080fd5b6100b260048036038101906100ad91906112b2565b6101de565b005b6100ce60048036038101906100c991906112b2565b6105e0565b6040516100e0969594939291906117a3565b60405180910390f35b6100f1610779565b6040516100fe91906118b2565b60405180910390f35b610121600480360381019061011c91906112db565b610785565b60405161012e9190611766565b60405180910390f35b610151600480360381019061014c919061121f565b6107b4565b005b61016d600480360381019061016891906112b2565b610923565b005b61018960048036038101906101849190611317565b610ae6565b005b6101a560048036038101906101a091906112b2565b610c35565b6040516101b7969594939291906117a3565b60405180910390f35b6101c8610ea1565b6040516101d59190611744565b60405180910390f35b6000805490508110610225576040517f08c379a000000000000000000000000000000000000000000000000000000000815260040161021c90611832565b60405180910390fd5b61022d6110b8565b6000828154811061023a57fe5b90600052602060002090600602016040518060c0016040529081600082018054600181600116156101000203166002900480601f0160208091040260200160405190810160405280929190818152602001828054600181600116156101000203166002900480156102ec5780601f106102c1576101008083540402835291602001916102ec565b820191906000526020600020905b8154815290600101906020018083116102cf57829003601f168201915b50505050508152602001600182018054600181600116156101000203166002900480601f01602080910402602001604051908101604052809291908181526020018280546001816001161561010002031660029004801561038e5780601f106103635761010080835404028352916020019161038e565b820191906000526020600020905b81548152906001019060200180831161037157829003601f168201915b505050505081526020016002820154815260200160038201548152602001600482015481526020016005820160009054906101000a900473ffffffffffffffffffffffffffffffffffffffff1673ffffffffffffffffffffffffffffffffffffffff1673ffffffffffffffffffffffffffffffffffffffff1681525050905080606001514210158015610425575080608001514211155b610464576040517f08c379a000000000000000000000000000000000000000000000000000000000815260040161045b90611812565b60405180910390fd5b6001600083815260200190815260200160002060003373ffffffffffffffffffffffffffffffffffffffff1673ffffffffffffffffffffffffffffffffffffffff16815260200190815260200160002060009054906101000a900460ff1615610502576040517f08c379a00000000000000000000000000000000000000000000000000000000081526004016104f990611872565b60405180910390fd5b6000828154811061050f57fe5b906000526020600020906006020160020160008154809291906001019190505550600180600084815260200190815260200160002060003373ffffffffffffffffffffffffffffffffffffffff1673ffffffffffffffffffffffffffffffffffffffff16815260200190815260200160002060006101000a81548160ff0219169083151502179055503373ffffffffffffffffffffffffffffffffffffffff16827f030b0f8dcd86a031eddb071f91882edeac8173663ba775713b677b42b51be44b60405160405180910390a35050565b600081815481106105ed57fe5b9060005260206000209060060201600091509050806000018054600181600116156101000203166002900480601f0160208091040260200160405190810160405280929190818152602001828054600181600116156101000203166002900480156106995780601f1061066e57610100808354040283529160200191610699565b820191906000526020600020905b81548152906001019060200180831161067c57829003601f168201915b505050505090806001018054600181600116156101000203166002900480601f0160208091040260200160405190810160405280929190818152602001828054600181600116156101000203166002900480156107375780601f1061070c57610100808354040283529160200191610737565b820191906000526020600020905b81548152906001019060200180831161071a57829003601f168201915b5050505050908060020154908060030154908060040154908060050160009054906101000a900473ffffffffffffffffffffffffffffffffffffffff16905086565b60008080549050905090565b60016020528160005260406000206020528060005260406000206000915091509054906101000a900460ff1681565b60008080549050905060006040518060c00160405280878152602001868152602001600081526020018581526020018481526020013373ffffffffffffffffffffffffffffffffffffffff1681525090806001815401808255809150506001900390600052602060002090600602016000909190919091506000820151816000019080519060200190610848929190611104565b506020820151816001019080519060200190610865929190611104565b5060408201518160020155606082015181600301556080820151816004015560a08201518160050160006101000a81548173ffffffffffffffffffffffffffffffffffffffff021916908373ffffffffffffffffffffffffffffffffffffffff16021790555050503373ffffffffffffffffffffffffffffffffffffffff16817fc8c078bfee58e5822588f08b4509ed1eb5058e03f666cca84dd2d44bf5c288a8876040516109149190611781565b60405180910390a35050505050565b600080549050811061096a576040517f08c379a000000000000000000000000000000000000000000000000000000000815260040161096190611832565b60405180910390fd5b6001600082815260200190815260200160002060003373ffffffffffffffffffffffffffffffffffffffff1673ffffffffffffffffffffffffffffffffffffffff16815260200190815260200160002060009054906101000a900460ff16610a07576040517f08c379a00000000000000000000000000000000000000000000000000000000081526004016109fe90611892565b60405180910390fd5b60008181548110610a1457fe5b9060005260206000209060060201600201600081548092919060019003919050555060006001600083815260200190815260200160002060003373ffffffffffffffffffffffffffffffffffffffff1673ffffffffffffffffffffffffffffffffffffffff16815260200190815260200160002060006101000a81548160ff0219169083151502179055503373ffffffffffffffffffffffffffffffffffffffff16817faac05d294d00945154e8002e16ca05a7c0d87634f6ae369bea2c8abc54fd474160405160405180910390a350565b3373ffffffffffffffffffffffffffffffffffffffff1660008481548110610b0a57fe5b906000526020600020906006020160050160009054906101000a900473ffffffffffffffffffffffffffffffffffffffff1673ffffffffffffffffffffffffffffffffffffffff1614610b92576040517f08c379a0000000000000000000000000000000000000000000000000000000008152600401610b8990611852565b60405180910390fd5b8160008481548110610ba057fe5b90600052602060002090600602016000019080519060200190610bc4929190611104565b508060008481548110610bd357fe5b90600052602060002090600602016001019080519060200190610bf7929190611104565b50827ffcca8bdad83b75fbf6fa64da30fd8362d01b1bd815fe9bb2ab3d85e2c70d521883604051610c289190611781565b60405180910390a2505050565b6060806000806000806000805490508710610c85576040517f08c379a0000000000000000000000000000000000000000000000000000000008152600401610c7c90611832565b60405180910390fd5b610c8d6110b8565b60008881548110610c9a57fe5b90600052602060002090600602016040518060c0016040529081600082018054600181600116156101000203166002900480601f016020809104026020016040519081016040528092919081815260200182805460018160011615610100020316600290048015610d4c5780601f10610d2157610100808354040283529160200191610d4c565b820191906000526020600020905b815481529060010190602001808311610d2f57829003601f168201915b50505050508152602001600182018054600181600116156101000203166002900480601f016020809104026020016040519081016040528092919081815260200182805460018160011615610100020316600290048015610dee5780601f10610dc357610100808354040283529160200191610dee565b820191906000526020600020905b815481529060010190602001808311610dd157829003601f168201915b505050505081526020016002820154815260200160038201548152602001600482015481526020016005820160009054906101000a900473ffffffffffffffffffffffffffffffffffffffff1673ffffffffffffffffffffffffffffffffffffffff1673ffffffffffffffffffffffffffffffffffffffff16815250509050806000015181602001518260400151836060015184608001518560a001519650965096509650965096505091939550919395565b60606000805480602002602001604051908101604052809291908181526020016000905b828210156110af57838290600052602060002090600602016040518060c0016040529081600082018054600181600116156101000203166002900480601f016020809104026020016040519081016040528092919081815260200182805460018160011615610100020316600290048015610f815780601f10610f5657610100808354040283529160200191610f81565b820191906000526020600020905b815481529060010190602001808311610f6457829003601f168201915b50505050508152602001600182018054600181600116156101000203166002900480601f0160208091040260200160405190810160405280929190818152602001828054600181600116156101000203166002900480156110235780601f10610ff857610100808354040283529160200191611023565b820191906000526020600020905b81548152906001019060200180831161100657829003601f168201915b505050505081526020016002820154815260200160038201548152602001600482015481526020016005820160009054906101000a900473ffffffffffffffffffffffffffffffffffffffff1673ffffffffffffffffffffffffffffffffffffffff1673ffffffffffffffffffffffffffffffffffffffff168152505081526020019060010190610ec5565b50505050905090565b6040518060c001604052806060815260200160608152602001600081526020016000815260200160008152602001600073ffffffffffffffffffffffffffffffffffffffff1681525090565b828054600181600116156101000203166002900490600052602060002090601f016020900481019282601f1061114557805160ff1916838001178555611173565b82800160010185558215611173579182015b82811115611172578251825591602001919060010190611157565b5b5090506111809190611184565b5090565b5b8082111561119d576000816000905550600101611185565b5090565b6000813590506111b081611a31565b92915050565b600082601f8301126111c757600080fd5b81356111da6111d5826118fe565b6118cd565b915080825260208301602083018583830111156111f657600080fd5b6112018382846119dc565b50505092915050565b60008135905061121981611a48565b92915050565b6000806000806080858703121561123557600080fd5b600085013567ffffffffffffffff81111561124f57600080fd5b61125b878288016111b6565b945050602085013567ffffffffffffffff81111561127857600080fd5b611284878288016111b6565b93505060406112958782880161120a565b92505060606112a68782880161120a565b91505092959194509250565b6000602082840312156112c457600080fd5b60006112d28482850161120a565b91505092915050565b600080604083850312156112ee57600080fd5b60006112fc8582860161120a565b925050602061130d858286016111a1565b9150509250929050565b60008060006060848603121561132c57600080fd5b600061133a8682870161120a565b935050602084013567ffffffffffffffff81111561135757600080fd5b611363868287016111b6565b925050604084013567ffffffffffffffff81111561138057600080fd5b61138c868287016111b6565b9150509250925092565b60006113a28383611696565b905092915050565b6113b381611994565b82525050565b6113c281611994565b82525050565b60006113d38261193e565b6113dd8185611961565b9350836020820285016113ef8561192e565b8060005b8581101561142b578484038952815161140c8582611396565b945061141783611954565b925060208a019950506001810190506113f3565b50829750879550505050505092915050565b611446816119a6565b82525050565b600061145782611949565b6114618185611972565b93506114718185602086016119eb565b61147a81611a20565b840191505092915050565b600061149082611949565b61149a8185611983565b93506114aa8185602086016119eb565b6114b381611a20565b840191505092915050565b60006114cb602283611983565b91507f566f74696e67206973206e6f7420616c6c6f776564206174207468697320746960008301527f6d650000000000000000000000000000000000000000000000000000000000006020830152604082019050919050565b6000611531601783611983565b91507f50726f706f73616c20646f6573206e6f742065786973740000000000000000006000830152602082019050919050565b6000611571602883611983565b91507f596f7520617265206e6f74207468652063726561746f72206f6620746869732060008301527f70726f706f73616c0000000000000000000000000000000000000000000000006020830152604082019050919050565b60006115d7602783611983565b91507f596f75206861766520616c726561647920766f746564206f6e2074686973207060008301527f726f706f73616c000000000000000000000000000000000000000000000000006020830152604082019050919050565b600061163d602383611983565b91507f596f752068617665206e6f7420766f746564206f6e20746869732070726f706f60008301527f73616c00000000000000000000000000000000000000000000000000000000006020830152604082019050919050565b600060c08301600083015184820360008601526116b3828261144c565b915050602083015184820360208601526116cd828261144c565b91505060408301516116e26040860182611726565b5060608301516116f56060860182611726565b5060808301516117086080860182611726565b5060a083015161171b60a08601826113aa565b508091505092915050565b61172f816119d2565b82525050565b61173e816119d2565b82525050565b6000602082019050818103600083015261175e81846113c8565b905092915050565b600060208201905061177b600083018461143d565b92915050565b6000602082019050818103600083015261179b8184611485565b905092915050565b600060c08201905081810360008301526117bd8189611485565b905081810360208301526117d18188611485565b90506117e06040830187611735565b6117ed6060830186611735565b6117fa6080830185611735565b61180760a08301846113b9565b979650505050505050565b6000602082019050818103600083015261182b816114be565b9050919050565b6000602082019050818103600083015261184b81611524565b9050919050565b6000602082019050818103600083015261186b81611564565b9050919050565b6000602082019050818103600083015261188b816115ca565b9050919050565b600060208201905081810360008301526118ab81611630565b9050919050565b60006020820190506118c76000830184611735565b92915050565b6000604051905081810181811067ffffffffffffffff821117156118f4576118f3611a1e565b5b8060405250919050565b600067ffffffffffffffff82111561191957611918611a1e565b5b601f19601f8301169050602081019050919050565b6000819050602082019050919050565b600081519050919050565b600081519050919050565b6000602082019050919050565b600082825260208201905092915050565b600082825260208201905092915050565b600082825260208201905092915050565b600061199f826119b2565b9050919050565b60008115159050919050565b600073ffffffffffffffffffffffffffffffffffffffff82169050919050565b6000819050919050565b82818337600083830152505050565b60005b83811015611a095780820151818401526020810190506119ee565b83811115611a18576000848401525b50505050565bfe5b6000601f19601f8301169050919050565b611a3a81611994565b8114611a4557600080fd5b50565b611a51816119d2565b8114611a5c57600080fd5b5056fea2646970667358221220a566cbb2c0089ec81c8d3967ddeb779361a288864ccb8b5b4b8ac581e9ed1a5f64736f6c63430007020033",
					"opcodes": "PUSH1 0x80 PUSH1 0x40 MSTORE CALLVALUE DUP1 ISZERO PUSH2 0x10 JUMPI PUSH1 0x0 DUP1 REVERT JUMPDEST POP PUSH2 0x1A95 DUP1 PUSH2 0x20 PUSH1 0x0 CODECOPY PUSH1 0x0 RETURN INVALID PUSH1 0x80 PUSH1 0x40 MSTORE CALLVALUE DUP1 ISZERO PUSH2 0x10 JUMPI PUSH1 0x0 DUP1 REVERT JUMPDEST POP PUSH1 0x4 CALLDATASIZE LT PUSH2 0x93 JUMPI PUSH1 0x0 CALLDATALOAD PUSH1 0xE0 SHR DUP1 PUSH4 0x6B5E1766 GT PUSH2 0x66 JUMPI DUP1 PUSH4 0x6B5E1766 EQ PUSH2 0x137 JUMPI DUP1 PUSH4 0xB01F3CAE EQ PUSH2 0x153 JUMPI DUP1 PUSH4 0xBC34C544 EQ PUSH2 0x16F JUMPI DUP1 PUSH4 0xC7F758A8 EQ PUSH2 0x18B JUMPI DUP1 PUSH4 0xCCEB68F5 EQ PUSH2 0x1C0 JUMPI PUSH2 0x93 JUMP JUMPDEST DUP1 PUSH4 0x121B93F EQ PUSH2 0x98 JUMPI DUP1 PUSH4 0x13CF08B EQ PUSH2 0xB4 JUMPI DUP1 PUSH4 0x1A5007DD EQ PUSH2 0xE9 JUMPI DUP1 PUSH4 0x43859632 EQ PUSH2 0x107 JUMPI JUMPDEST PUSH1 0x0 DUP1 REVERT JUMPDEST PUSH2 0xB2 PUSH1 0x4 DUP1 CALLDATASIZE SUB DUP2 ADD SWAP1 PUSH2 0xAD SWAP2 SWAP1 PUSH2 0x12B2 JUMP JUMPDEST PUSH2 0x1DE JUMP JUMPDEST STOP JUMPDEST PUSH2 0xCE PUSH1 0x4 DUP1 CALLDATASIZE SUB DUP2 ADD SWAP1 PUSH2 0xC9 SWAP2 SWAP1 PUSH2 0x12B2 JUMP JUMPDEST PUSH2 0x5E0 JUMP JUMPDEST PUSH1 0x40 MLOAD PUSH2 0xE0 SWAP7 SWAP6 SWAP5 SWAP4 SWAP3 SWAP2 SWAP1 PUSH2 0x17A3 JUMP JUMPDEST PUSH1 0x40 MLOAD DUP1 SWAP2 SUB SWAP1 RETURN JUMPDEST PUSH2 0xF1 PUSH2 0x779 JUMP JUMPDEST PUSH1 0x40 MLOAD PUSH2 0xFE SWAP2 SWAP1 PUSH2 0x18B2 JUMP JUMPDEST PUSH1 0x40 MLOAD DUP1 SWAP2 SUB SWAP1 RETURN JUMPDEST PUSH2 0x121 PUSH1 0x4 DUP1 CALLDATASIZE SUB DUP2 ADD SWAP1 PUSH2 0x11C SWAP2 SWAP1 PUSH2 0x12DB JUMP JUMPDEST PUSH2 0x785 JUMP JUMPDEST PUSH1 0x40 MLOAD PUSH2 0x12E SWAP2 SWAP1 PUSH2 0x1766 JUMP JUMPDEST PUSH1 0x40 MLOAD DUP1 SWAP2 SUB SWAP1 RETURN JUMPDEST PUSH2 0x151 PUSH1 0x4 DUP1 CALLDATASIZE SUB DUP2 ADD SWAP1 PUSH2 0x14C SWAP2 SWAP1 PUSH2 0x121F JUMP JUMPDEST PUSH2 0x7B4 JUMP JUMPDEST STOP JUMPDEST PUSH2 0x16D PUSH1 0x4 DUP1 CALLDATASIZE SUB DUP2 ADD SWAP1 PUSH2 0x168 SWAP2 SWAP1 PUSH2 0x12B2 JUMP JUMPDEST PUSH2 0x923 JUMP JUMPDEST STOP JUMPDEST PUSH2 0x189 PUSH1 0x4 DUP1 CALLDATASIZE SUB DUP2 ADD SWAP1 PUSH2 0x184 SWAP2 SWAP1 PUSH2 0x1317 JUMP JUMPDEST PUSH2 0xAE6 JUMP JUMPDEST STOP JUMPDEST PUSH2 0x1A5 PUSH1 0x4 DUP1 CALLDATASIZE SUB DUP2 ADD SWAP1 PUSH2 0x1A0 SWAP2 SWAP1 PUSH2 0x12B2 JUMP JUMPDEST PUSH2 0xC35 JUMP JUMPDEST PUSH1 0x40 MLOAD PUSH2 0x1B7 SWAP7 SWAP6 SWAP5 SWAP4 SWAP3 SWAP2 SWAP1 PUSH2 0x17A3 JUMP JUMPDEST PUSH1 0x40 MLOAD DUP1 SWAP2 SUB SWAP1 RETURN JUMPDEST PUSH2 0x1C8 PUSH2 0xEA1 JUMP JUMPDEST PUSH1 0x40 MLOAD PUSH2 0x1D5 SWAP2 SWAP1 PUSH2 0x1744 JUMP JUMPDEST PUSH1 0x40 MLOAD DUP1 SWAP2 SUB SWAP1 RETURN JUMPDEST PUSH1 0x0 DUP1 SLOAD SWAP1 POP DUP2 LT PUSH2 0x225 JUMPI PUSH1 0x40 MLOAD PUSH32 0x8C379A000000000000000000000000000000000000000000000000000000000 DUP2 MSTORE PUSH1 0x4 ADD PUSH2 0x21C SWAP1 PUSH2 0x1832 JUMP JUMPDEST PUSH1 0x40 MLOAD DUP1 SWAP2 SUB SWAP1 REVERT JUMPDEST PUSH2 0x22D PUSH2 0x10B8 JUMP JUMPDEST PUSH1 0x0 DUP3 DUP2 SLOAD DUP2 LT PUSH2 0x23A JUMPI INVALID JUMPDEST SWAP1 PUSH1 0x0 MSTORE PUSH1 0x20 PUSH1 0x0 KECCAK256 SWAP1 PUSH1 0x6 MUL ADD PUSH1 0x40 MLOAD DUP1 PUSH1 0xC0 ADD PUSH1 0x40 MSTORE SWAP1 DUP2 PUSH1 0x0 DUP3 ADD DUP1 SLOAD PUSH1 0x1 DUP2 PUSH1 0x1 AND ISZERO PUSH2 0x100 MUL SUB AND PUSH1 0x2 SWAP1 DIV DUP1 PUSH1 0x1F ADD PUSH1 0x20 DUP1 SWAP2 DIV MUL PUSH1 0x20 ADD PUSH1 0x40 MLOAD SWAP1 DUP2 ADD PUSH1 0x40 MSTORE DUP1 SWAP3 SWAP2 SWAP1 DUP2 DUP2 MSTORE PUSH1 0x20 ADD DUP3 DUP1 SLOAD PUSH1 0x1 DUP2 PUSH1 0x1 AND ISZERO PUSH2 0x100 MUL SUB AND PUSH1 0x2 SWAP1 DIV DUP1 ISZERO PUSH2 0x2EC JUMPI DUP1 PUSH1 0x1F LT PUSH2 0x2C1 JUMPI PUSH2 0x100 DUP1 DUP4 SLOAD DIV MUL DUP4 MSTORE SWAP2 PUSH1 0x20 ADD SWAP2 PUSH2 0x2EC JUMP JUMPDEST DUP3 ADD SWAP2 SWAP1 PUSH1 0x0 MSTORE PUSH1 0x20 PUSH1 0x0 KECCAK256 SWAP1 JUMPDEST DUP2 SLOAD DUP2 MSTORE SWAP1 PUSH1 0x1 ADD SWAP1 PUSH1 0x20 ADD DUP1 DUP4 GT PUSH2 0x2CF JUMPI DUP3 SWAP1 SUB PUSH1 0x1F AND DUP3 ADD SWAP2 JUMPDEST POP POP POP POP POP DUP2 MSTORE PUSH1 0x20 ADD PUSH1 0x1 DUP3 ADD DUP1 SLOAD PUSH1 0x1 DUP2 PUSH1 0x1 AND ISZERO PUSH2 0x100 MUL SUB AND PUSH1 0x2 SWAP1 DIV DUP1 PUSH1 0x1F ADD PUSH1 0x20 DUP1 SWAP2 DIV MUL PUSH1 0x20 ADD PUSH1 0x40 MLOAD SWAP1 DUP2 ADD PUSH1 0x40 MSTORE DUP1 SWAP3 SWAP2 SWAP1 DUP2 DUP2 MSTORE PUSH1 0x20 ADD DUP3 DUP1 SLOAD PUSH1 0x1 DUP2 PUSH1 0x1 AND ISZERO PUSH2 0x100 MUL SUB AND PUSH1 0x2 SWAP1 DIV DUP1 ISZERO PUSH2 0x38E JUMPI DUP1 PUSH1 0x1F LT PUSH2 0x363 JUMPI PUSH2 0x100 DUP1 DUP4 SLOAD DIV MUL DUP4 MSTORE SWAP2 PUSH1 0x20 ADD SWAP2 PUSH2 0x38E JUMP JUMPDEST DUP3 ADD SWAP2 SWAP1 PUSH1 0x0 MSTORE PUSH1 0x20 PUSH1 0x0 KECCAK256 SWAP1 JUMPDEST DUP2 SLOAD DUP2 MSTORE SWAP1 PUSH1 0x1 ADD SWAP1 PUSH1 0x20 ADD DUP1 DUP4 GT PUSH2 0x371 JUMPI DUP3 SWAP1 SUB PUSH1 0x1F AND DUP3 ADD SWAP2 JUMPDEST POP POP POP POP POP DUP2 MSTORE PUSH1 0x20 ADD PUSH1 0x2 DUP3 ADD SLOAD DUP2 MSTORE PUSH1 0x20 ADD PUSH1 0x3 DUP3 ADD SLOAD DUP2 MSTORE PUSH1 0x20 ADD PUSH1 0x4 DUP3 ADD SLOAD DUP2 MSTORE PUSH1 0x20 ADD PUSH1 0x5 DUP3 ADD PUSH1 0x0 SWAP1 SLOAD SWAP1 PUSH2 0x100 EXP SWAP1 DIV PUSH20 0xFFFFFFFFFFFFFFFFFFFFFFFFFFFFFFFFFFFFFFFF AND PUSH20 0xFFFFFFFFFFFFFFFFFFFFFFFFFFFFFFFFFFFFFFFF AND PUSH20 0xFFFFFFFFFFFFFFFFFFFFFFFFFFFFFFFFFFFFFFFF AND DUP2 MSTORE POP POP SWAP1 POP DUP1 PUSH1 0x60 ADD MLOAD TIMESTAMP LT ISZERO DUP1 ISZERO PUSH2 0x425 JUMPI POP DUP1 PUSH1 0x80 ADD MLOAD TIMESTAMP GT ISZERO JUMPDEST PUSH2 0x464 JUMPI PUSH1 0x40 MLOAD PUSH32 0x8C379A000000000000000000000000000000000000000000000000000000000 DUP2 MSTORE PUSH1 0x4 ADD PUSH2 0x45B SWAP1 PUSH2 0x1812 JUMP JUMPDEST PUSH1 0x40 MLOAD DUP1 SWAP2 SUB SWAP1 REVERT JUMPDEST PUSH1 0x1 PUSH1 0x0 DUP4 DUP2 MSTORE PUSH1 0x20 ADD SWAP1 DUP2 MSTORE PUSH1 0x20 ADD PUSH1 0x0 KECCAK256 PUSH1 0x0 CALLER PUSH20 0xFFFFFFFFFFFFFFFFFFFFFFFFFFFFFFFFFFFFFFFF AND PUSH20 0xFFFFFFFFFFFFFFFFFFFFFFFFFFFFFFFFFFFFFFFF AND DUP2 MSTORE PUSH1 0x20 ADD SWAP1 DUP2 MSTORE PUSH1 0x20 ADD PUSH1 0x0 KECCAK256 PUSH1 0x0 SWAP1 SLOAD SWAP1 PUSH2 0x100 EXP SWAP1 DIV PUSH1 0xFF AND ISZERO PUSH2 0x502 JUMPI PUSH1 0x40 MLOAD PUSH32 0x8C379A000000000000000000000000000000000000000000000000000000000 DUP2 MSTORE PUSH1 0x4 ADD PUSH2 0x4F9 SWAP1 PUSH2 0x1872 JUMP JUMPDEST PUSH1 0x40 MLOAD DUP1 SWAP2 SUB SWAP1 REVERT JUMPDEST PUSH1 0x0 DUP3 DUP2 SLOAD DUP2 LT PUSH2 0x50F JUMPI INVALID JUMPDEST SWAP1 PUSH1 0x0 MSTORE PUSH1 0x20 PUSH1 0x0 KECCAK256 SWAP1 PUSH1 0x6 MUL ADD PUSH1 0x2 ADD PUSH1 0x0 DUP2 SLOAD DUP1 SWAP3 SWAP2 SWAP1 PUSH1 0x1 ADD SWAP2 SWAP1 POP SSTORE POP PUSH1 0x1 DUP1 PUSH1 0x0 DUP5 DUP2 MSTORE PUSH1 0x20 ADD SWAP1 DUP2 MSTORE PUSH1 0x20 ADD PUSH1 0x0 KECCAK256 PUSH1 0x0 CALLER PUSH20 0xFFFFFFFFFFFFFFFFFFFFFFFFFFFFFFFFFFFFFFFF AND PUSH20 0xFFFFFFFFFFFFFFFFFFFFFFFFFFFFFFFFFFFFFFFF AND DUP2 MSTORE PUSH1 0x20 ADD SWAP1 DUP2 MSTORE PUSH1 0x20 ADD PUSH1 0x0 KECCAK256 PUSH1 0x0 PUSH2 0x100 EXP DUP2 SLOAD DUP2 PUSH1 0xFF MUL NOT AND SWAP1 DUP4 ISZERO ISZERO MUL OR SWAP1 SSTORE POP CALLER PUSH20 0xFFFFFFFFFFFFFFFFFFFFFFFFFFFFFFFFFFFFFFFF AND DUP3 PUSH32 0x30B0F8DCD86A031EDDB071F91882EDEAC8173663BA775713B677B42B51BE44B PUSH1 0x40 MLOAD PUSH1 0x40 MLOAD DUP1 SWAP2 SUB SWAP1 LOG3 POP POP JUMP JUMPDEST PUSH1 0x0 DUP2 DUP2 SLOAD DUP2 LT PUSH2 0x5ED JUMPI INVALID JUMPDEST SWAP1 PUSH1 0x0 MSTORE PUSH1 0x20 PUSH1 0x0 KECCAK256 SWAP1 PUSH1 0x6 MUL ADD PUSH1 0x0 SWAP2 POP SWAP1 POP DUP1 PUSH1 0x0 ADD DUP1 SLOAD PUSH1 0x1 DUP2 PUSH1 0x1 AND ISZERO PUSH2 0x100 MUL SUB AND PUSH1 0x2 SWAP1 DIV DUP1 PUSH1 0x1F ADD PUSH1 0x20 DUP1 SWAP2 DIV MUL PUSH1 0x20 ADD PUSH1 0x40 MLOAD SWAP1 DUP2 ADD PUSH1 0x40 MSTORE DUP1 SWAP3 SWAP2 SWAP1 DUP2 DUP2 MSTORE PUSH1 0x20 ADD DUP3 DUP1 SLOAD PUSH1 0x1 DUP2 PUSH1 0x1 AND ISZERO PUSH2 0x100 MUL SUB AND PUSH1 0x2 SWAP1 DIV DUP1 ISZERO PUSH2 0x699 JUMPI DUP1 PUSH1 0x1F LT PUSH2 0x66E JUMPI PUSH2 0x100 DUP1 DUP4 SLOAD DIV MUL DUP4 MSTORE SWAP2 PUSH1 0x20 ADD SWAP2 PUSH2 0x699 JUMP JUMPDEST DUP3 ADD SWAP2 SWAP1 PUSH1 0x0 MSTORE PUSH1 0x20 PUSH1 0x0 KECCAK256 SWAP1 JUMPDEST DUP2 SLOAD DUP2 MSTORE SWAP1 PUSH1 0x1 ADD SWAP1 PUSH1 0x20 ADD DUP1 DUP4 GT PUSH2 0x67C JUMPI DUP3 SWAP1 SUB PUSH1 0x1F AND DUP3 ADD SWAP2 JUMPDEST POP POP POP POP POP SWAP1 DUP1 PUSH1 0x1 ADD DUP1 SLOAD PUSH1 0x1 DUP2 PUSH1 0x1 AND ISZERO PUSH2 0x100 MUL SUB AND PUSH1 0x2 SWAP1 DIV DUP1 PUSH1 0x1F ADD PUSH1 0x20 DUP1 SWAP2 DIV MUL PUSH1 0x20 ADD PUSH1 0x40 MLOAD SWAP1 DUP2 ADD PUSH1 0x40 MSTORE DUP1 SWAP3 SWAP2 SWAP1 DUP2 DUP2 MSTORE PUSH1 0x20 ADD DUP3 DUP1 SLOAD PUSH1 0x1 DUP2 PUSH1 0x1 AND ISZERO PUSH2 0x100 MUL SUB AND PUSH1 0x2 SWAP1 DIV DUP1 ISZERO PUSH2 0x737 JUMPI DUP1 PUSH1 0x1F LT PUSH2 0x70C JUMPI PUSH2 0x100 DUP1 DUP4 SLOAD DIV MUL DUP4 MSTORE SWAP2 PUSH1 0x20 ADD SWAP2 PUSH2 0x737 JUMP JUMPDEST DUP3 ADD SWAP2 SWAP1 PUSH1 0x0 MSTORE PUSH1 0x20 PUSH1 0x0 KECCAK256 SWAP1 JUMPDEST DUP2 SLOAD DUP2 MSTORE SWAP1 PUSH1 0x1 ADD SWAP1 PUSH1 0x20 ADD DUP1 DUP4 GT PUSH2 0x71A JUMPI DUP3 SWAP1 SUB PUSH1 0x1F AND DUP3 ADD SWAP2 JUMPDEST POP POP POP POP POP SWAP1 DUP1 PUSH1 0x2 ADD SLOAD SWAP1 DUP1 PUSH1 0x3 ADD SLOAD SWAP1 DUP1 PUSH1 0x4 ADD SLOAD SWAP1 DUP1 PUSH1 0x5 ADD PUSH1 0x0 SWAP1 SLOAD SWAP1 PUSH2 0x100 EXP SWAP1 DIV PUSH20 0xFFFFFFFFFFFFFFFFFFFFFFFFFFFFFFFFFFFFFFFF AND SWAP1 POP DUP7 JUMP JUMPDEST PUSH1 0x0 DUP1 DUP1 SLOAD SWAP1 POP SWAP1 POP SWAP1 JUMP JUMPDEST PUSH1 0x1 PUSH1 0x20 MSTORE DUP2 PUSH1 0x0 MSTORE PUSH1 0x40 PUSH1 0x0 KECCAK256 PUSH1 0x20 MSTORE DUP1 PUSH1 0x0 MSTORE PUSH1 0x40 PUSH1 0x0 KECCAK256 PUSH1 0x0 SWAP2 POP SWAP2 POP SWAP1 SLOAD SWAP1 PUSH2 0x100 EXP SWAP1 DIV PUSH1 0xFF AND DUP2 JUMP JUMPDEST PUSH1 0x0 DUP1 DUP1 SLOAD SWAP1 POP SWAP1 POP PUSH1 0x0 PUSH1 0x40 MLOAD DUP1 PUSH1 0xC0 ADD PUSH1 0x40 MSTORE DUP1 DUP8 DUP2 MSTORE PUSH1 0x20 ADD DUP7 DUP2 MSTORE PUSH1 0x20 ADD PUSH1 0x0 DUP2 MSTORE PUSH1 0x20 ADD DUP6 DUP2 MSTORE PUSH1 0x20 ADD DUP5 DUP2 MSTORE PUSH1 0x20 ADD CALLER PUSH20 0xFFFFFFFFFFFFFFFFFFFFFFFFFFFFFFFFFFFFFFFF AND DUP2 MSTORE POP SWAP1 DUP1 PUSH1 0x1 DUP2 SLOAD ADD DUP1 DUP3 SSTORE DUP1 SWAP2 POP POP PUSH1 0x1 SWAP1 SUB SWAP1 PUSH1 0x0 MSTORE PUSH1 0x20 PUSH1 0x0 KECCAK256 SWAP1 PUSH1 0x6 MUL ADD PUSH1 0x0 SWAP1 SWAP2 SWAP1 SWAP2 SWAP1 SWAP2 POP PUSH1 0x0 DUP3 ADD MLOAD DUP2 PUSH1 0x0 ADD SWAP1 DUP1 MLOAD SWAP1 PUSH1 0x20 ADD SWAP1 PUSH2 0x848 SWAP3 SWAP2 SWAP1 PUSH2 0x1104 JUMP JUMPDEST POP PUSH1 0x20 DUP3 ADD MLOAD DUP2 PUSH1 0x1 ADD SWAP1 DUP1 MLOAD SWAP1 PUSH1 0x20 ADD SWAP1 PUSH2 0x865 SWAP3 SWAP2 SWAP1 PUSH2 0x1104 JUMP JUMPDEST POP PUSH1 0x40 DUP3 ADD MLOAD DUP2 PUSH1 0x2 ADD SSTORE PUSH1 0x60 DUP3 ADD MLOAD DUP2 PUSH1 0x3 ADD SSTORE PUSH1 0x80 DUP3 ADD MLOAD DUP2 PUSH1 0x4 ADD SSTORE PUSH1 0xA0 DUP3 ADD MLOAD DUP2 PUSH1 0x5 ADD PUSH1 0x0 PUSH2 0x100 EXP DUP2 SLOAD DUP2 PUSH20 0xFFFFFFFFFFFFFFFFFFFFFFFFFFFFFFFFFFFFFFFF MUL NOT AND SWAP1 DUP4 PUSH20 0xFFFFFFFFFFFFFFFFFFFFFFFFFFFFFFFFFFFFFFFF AND MUL OR SWAP1 SSTORE POP POP POP CALLER PUSH20 0xFFFFFFFFFFFFFFFFFFFFFFFFFFFFFFFFFFFFFFFF AND DUP2 PUSH32 0xC8C078BFEE58E5822588F08B4509ED1EB5058E03F666CCA84DD2D44BF5C288A8 DUP8 PUSH1 0x40 MLOAD PUSH2 0x914 SWAP2 SWAP1 PUSH2 0x1781 JUMP JUMPDEST PUSH1 0x40 MLOAD DUP1 SWAP2 SUB SWAP1 LOG3 POP POP POP POP POP JUMP JUMPDEST PUSH1 0x0 DUP1 SLOAD SWAP1 POP DUP2 LT PUSH2 0x96A JUMPI PUSH1 0x40 MLOAD PUSH32 0x8C379A000000000000000000000000000000000000000000000000000000000 DUP2 MSTORE PUSH1 0x4 ADD PUSH2 0x961 SWAP1 PUSH2 0x1832 JUMP JUMPDEST PUSH1 0x40 MLOAD DUP1 SWAP2 SUB SWAP1 REVERT JUMPDEST PUSH1 0x1 PUSH1 0x0 DUP3 DUP2 MSTORE PUSH1 0x20 ADD SWAP1 DUP2 MSTORE PUSH1 0x20 ADD PUSH1 0x0 KECCAK256 PUSH1 0x0 CALLER PUSH20 0xFFFFFFFFFFFFFFFFFFFFFFFFFFFFFFFFFFFFFFFF AND PUSH20 0xFFFFFFFFFFFFFFFFFFFFFFFFFFFFFFFFFFFFFFFF AND DUP2 MSTORE PUSH1 0x20 ADD SWAP1 DUP2 MSTORE PUSH1 0x20 ADD PUSH1 0x0 KECCAK256 PUSH1 0x0 SWAP1 SLOAD SWAP1 PUSH2 0x100 EXP SWAP1 DIV PUSH1 0xFF AND PUSH2 0xA07 JUMPI PUSH1 0x40 MLOAD PUSH32 0x8C379A000000000000000000000000000000000000000000000000000000000 DUP2 MSTORE PUSH1 0x4 ADD PUSH2 0x9FE SWAP1 PUSH2 0x1892 JUMP JUMPDEST PUSH1 0x40 MLOAD DUP1 SWAP2 SUB SWAP1 REVERT JUMPDEST PUSH1 0x0 DUP2 DUP2 SLOAD DUP2 LT PUSH2 0xA14 JUMPI INVALID JUMPDEST SWAP1 PUSH1 0x0 MSTORE PUSH1 0x20 PUSH1 0x0 KECCAK256 SWAP1 PUSH1 0x6 MUL ADD PUSH1 0x2 ADD PUSH1 0x0 DUP2 SLOAD DUP1 SWAP3 SWAP2 SWAP1 PUSH1 0x1 SWAP1 SUB SWAP2 SWAP1 POP SSTORE POP PUSH1 0x0 PUSH1 0x1 PUSH1 0x0 DUP4 DUP2 MSTORE PUSH1 0x20 ADD SWAP1 DUP2 MSTORE PUSH1 0x20 ADD PUSH1 0x0 KECCAK256 PUSH1 0x0 CALLER PUSH20 0xFFFFFFFFFFFFFFFFFFFFFFFFFFFFFFFFFFFFFFFF AND PUSH20 0xFFFFFFFFFFFFFFFFFFFFFFFFFFFFFFFFFFFFFFFF AND DUP2 MSTORE PUSH1 0x20 ADD SWAP1 DUP2 MSTORE PUSH1 0x20 ADD PUSH1 0x0 KECCAK256 PUSH1 0x0 PUSH2 0x100 EXP DUP2 SLOAD DUP2 PUSH1 0xFF MUL NOT AND SWAP1 DUP4 ISZERO ISZERO MUL OR SWAP1 SSTORE POP CALLER PUSH20 0xFFFFFFFFFFFFFFFFFFFFFFFFFFFFFFFFFFFFFFFF AND DUP2 PUSH32 0xAAC05D294D00945154E8002E16CA05A7C0D87634F6AE369BEA2C8ABC54FD4741 PUSH1 0x40 MLOAD PUSH1 0x40 MLOAD DUP1 SWAP2 SUB SWAP1 LOG3 POP JUMP JUMPDEST CALLER PUSH20 0xFFFFFFFFFFFFFFFFFFFFFFFFFFFFFFFFFFFFFFFF AND PUSH1 0x0 DUP5 DUP2 SLOAD DUP2 LT PUSH2 0xB0A JUMPI INVALID JUMPDEST SWAP1 PUSH1 0x0 MSTORE PUSH1 0x20 PUSH1 0x0 KECCAK256 SWAP1 PUSH1 0x6 MUL ADD PUSH1 0x5 ADD PUSH1 0x0 SWAP1 SLOAD SWAP1 PUSH2 0x100 EXP SWAP1 DIV PUSH20 0xFFFFFFFFFFFFFFFFFFFFFFFFFFFFFFFFFFFFFFFF AND PUSH20 0xFFFFFFFFFFFFFFFFFFFFFFFFFFFFFFFFFFFFFFFF AND EQ PUSH2 0xB92 JUMPI PUSH1 0x40 MLOAD PUSH32 0x8C379A000000000000000000000000000000000000000000000000000000000 DUP2 MSTORE PUSH1 0x4 ADD PUSH2 0xB89 SWAP1 PUSH2 0x1852 JUMP JUMPDEST PUSH1 0x40 MLOAD DUP1 SWAP2 SUB SWAP1 REVERT JUMPDEST DUP2 PUSH1 0x0 DUP5 DUP2 SLOAD DUP2 LT PUSH2 0xBA0 JUMPI INVALID JUMPDEST SWAP1 PUSH1 0x0 MSTORE PUSH1 0x20 PUSH1 0x0 KECCAK256 SWAP1 PUSH1 0x6 MUL ADD PUSH1 0x0 ADD SWAP1 DUP1 MLOAD SWAP1 PUSH1 0x20 ADD SWAP1 PUSH2 0xBC4 SWAP3 SWAP2 SWAP1 PUSH2 0x1104 JUMP JUMPDEST POP DUP1 PUSH1 0x0 DUP5 DUP2 SLOAD DUP2 LT PUSH2 0xBD3 JUMPI INVALID JUMPDEST SWAP1 PUSH1 0x0 MSTORE PUSH1 0x20 PUSH1 0x0 KECCAK256 SWAP1 PUSH1 0x6 MUL ADD PUSH1 0x1 ADD SWAP1 DUP1 MLOAD SWAP1 PUSH1 0x20 ADD SWAP1 PUSH2 0xBF7 SWAP3 SWAP2 SWAP1 PUSH2 0x1104 JUMP JUMPDEST POP DUP3 PUSH32 0xFCCA8BDAD83B75FBF6FA64DA30FD8362D01B1BD815FE9BB2AB3D85E2C70D5218 DUP4 PUSH1 0x40 MLOAD PUSH2 0xC28 SWAP2 SWAP1 PUSH2 0x1781 JUMP JUMPDEST PUSH1 0x40 MLOAD DUP1 SWAP2 SUB SWAP1 LOG2 POP POP POP JUMP JUMPDEST PUSH1 0x60 DUP1 PUSH1 0x0 DUP1 PUSH1 0x0 DUP1 PUSH1 0x0 DUP1 SLOAD SWAP1 POP DUP8 LT PUSH2 0xC85 JUMPI PUSH1 0x40 MLOAD PUSH32 0x8C379A000000000000000000000000000000000000000000000000000000000 DUP2 MSTORE PUSH1 0x4 ADD PUSH2 0xC7C SWAP1 PUSH2 0x1832 JUMP JUMPDEST PUSH1 0x40 MLOAD DUP1 SWAP2 SUB SWAP1 REVERT JUMPDEST PUSH2 0xC8D PUSH2 0x10B8 JUMP JUMPDEST PUSH1 0x0 DUP9 DUP2 SLOAD DUP2 LT PUSH2 0xC9A JUMPI INVALID JUMPDEST SWAP1 PUSH1 0x0 MSTORE PUSH1 0x20 PUSH1 0x0 KECCAK256 SWAP1 PUSH1 0x6 MUL ADD PUSH1 0x40 MLOAD DUP1 PUSH1 0xC0 ADD PUSH1 0x40 MSTORE SWAP1 DUP2 PUSH1 0x0 DUP3 ADD DUP1 SLOAD PUSH1 0x1 DUP2 PUSH1 0x1 AND ISZERO PUSH2 0x100 MUL SUB AND PUSH1 0x2 SWAP1 DIV DUP1 PUSH1 0x1F ADD PUSH1 0x20 DUP1 SWAP2 DIV MUL PUSH1 0x20 ADD PUSH1 0x40 MLOAD SWAP1 DUP2 ADD PUSH1 0x40 MSTORE DUP1 SWAP3 SWAP2 SWAP1 DUP2 DUP2 MSTORE PUSH1 0x20 ADD DUP3 DUP1 SLOAD PUSH1 0x1 DUP2 PUSH1 0x1 AND ISZERO PUSH2 0x100 MUL SUB AND PUSH1 0x2 SWAP1 DIV DUP1 ISZERO PUSH2 0xD4C JUMPI DUP1 PUSH1 0x1F LT PUSH2 0xD21 JUMPI PUSH2 0x100 DUP1 DUP4 SLOAD DIV MUL DUP4 MSTORE SWAP2 PUSH1 0x20 ADD SWAP2 PUSH2 0xD4C JUMP JUMPDEST DUP3 ADD SWAP2 SWAP1 PUSH1 0x0 MSTORE PUSH1 0x20 PUSH1 0x0 KECCAK256 SWAP1 JUMPDEST DUP2 SLOAD DUP2 MSTORE SWAP1 PUSH1 0x1 ADD SWAP1 PUSH1 0x20 ADD DUP1 DUP4 GT PUSH2 0xD2F JUMPI DUP3 SWAP1 SUB PUSH1 0x1F AND DUP3 ADD SWAP2 JUMPDEST POP POP POP POP POP DUP2 MSTORE PUSH1 0x20 ADD PUSH1 0x1 DUP3 ADD DUP1 SLOAD PUSH1 0x1 DUP2 PUSH1 0x1 AND ISZERO PUSH2 0x100 MUL SUB AND PUSH1 0x2 SWAP1 DIV DUP1 PUSH1 0x1F ADD PUSH1 0x20 DUP1 SWAP2 DIV MUL PUSH1 0x20 ADD PUSH1 0x40 MLOAD SWAP1 DUP2 ADD PUSH1 0x40 MSTORE DUP1 SWAP3 SWAP2 SWAP1 DUP2 DUP2 MSTORE PUSH1 0x20 ADD DUP3 DUP1 SLOAD PUSH1 0x1 DUP2 PUSH1 0x1 AND ISZERO PUSH2 0x100 MUL SUB AND PUSH1 0x2 SWAP1 DIV DUP1 ISZERO PUSH2 0xDEE JUMPI DUP1 PUSH1 0x1F LT PUSH2 0xDC3 JUMPI PUSH2 0x100 DUP1 DUP4 SLOAD DIV MUL DUP4 MSTORE SWAP2 PUSH1 0x20 ADD SWAP2 PUSH2 0xDEE JUMP JUMPDEST DUP3 ADD SWAP2 SWAP1 PUSH1 0x0 MSTORE PUSH1 0x20 PUSH1 0x0 KECCAK256 SWAP1 JUMPDEST DUP2 SLOAD DUP2 MSTORE SWAP1 PUSH1 0x1 ADD SWAP1 PUSH1 0x20 ADD DUP1 DUP4 GT PUSH2 0xDD1 JUMPI DUP3 SWAP1 SUB PUSH1 0x1F AND DUP3 ADD SWAP2 JUMPDEST POP POP POP POP POP DUP2 MSTORE PUSH1 0x20 ADD PUSH1 0x2 DUP3 ADD SLOAD DUP2 MSTORE PUSH1 0x20 ADD PUSH1 0x3 DUP3 ADD SLOAD DUP2 MSTORE PUSH1 0x20 ADD PUSH1 0x4 DUP3 ADD SLOAD DUP2 MSTORE PUSH1 0x20 ADD PUSH1 0x5 DUP3 ADD PUSH1 0x0 SWAP1 SLOAD SWAP1 PUSH2 0x100 EXP SWAP1 DIV PUSH20 0xFFFFFFFFFFFFFFFFFFFFFFFFFFFFFFFFFFFFFFFF AND PUSH20 0xFFFFFFFFFFFFFFFFFFFFFFFFFFFFFFFFFFFFFFFF AND PUSH20 0xFFFFFFFFFFFFFFFFFFFFFFFFFFFFFFFFFFFFFFFF AND DUP2 MSTORE POP POP SWAP1 POP DUP1 PUSH1 0x0 ADD MLOAD DUP2 PUSH1 0x20 ADD MLOAD DUP3 PUSH1 0x40 ADD MLOAD DUP4 PUSH1 0x60 ADD MLOAD DUP5 PUSH1 0x80 ADD MLOAD DUP6 PUSH1 0xA0 ADD MLOAD SWAP7 POP SWAP7 POP SWAP7 POP SWAP7 POP SWAP7 POP SWAP7 POP POP SWAP2 SWAP4 SWAP6 POP SWAP2 SWAP4 SWAP6 JUMP JUMPDEST PUSH1 0x60 PUSH1 0x0 DUP1 SLOAD DUP1 PUSH1 0x20 MUL PUSH1 0x20 ADD PUSH1 0x40 MLOAD SWAP1 DUP2 ADD PUSH1 0x40 MSTORE DUP1 SWAP3 SWAP2 SWAP1 DUP2 DUP2 MSTORE PUSH1 0x20 ADD PUSH1 0x0 SWAP1 JUMPDEST DUP3 DUP3 LT ISZERO PUSH2 0x10AF JUMPI DUP4 DUP3 SWAP1 PUSH1 0x0 MSTORE PUSH1 0x20 PUSH1 0x0 KECCAK256 SWAP1 PUSH1 0x6 MUL ADD PUSH1 0x40 MLOAD DUP1 PUSH1 0xC0 ADD PUSH1 0x40 MSTORE SWAP1 DUP2 PUSH1 0x0 DUP3 ADD DUP1 SLOAD PUSH1 0x1 DUP2 PUSH1 0x1 AND ISZERO PUSH2 0x100 MUL SUB AND PUSH1 0x2 SWAP1 DIV DUP1 PUSH1 0x1F ADD PUSH1 0x20 DUP1 SWAP2 DIV MUL PUSH1 0x20 ADD PUSH1 0x40 MLOAD SWAP1 DUP2 ADD PUSH1 0x40 MSTORE DUP1 SWAP3 SWAP2 SWAP1 DUP2 DUP2 MSTORE PUSH1 0x20 ADD DUP3 DUP1 SLOAD PUSH1 0x1 DUP2 PUSH1 0x1 AND ISZERO PUSH2 0x100 MUL SUB AND PUSH1 0x2 SWAP1 DIV DUP1 ISZERO PUSH2 0xF81 JUMPI DUP1 PUSH1 0x1F LT PUSH2 0xF56 JUMPI PUSH2 0x100 DUP1 DUP4 SLOAD DIV MUL DUP4 MSTORE SWAP2 PUSH1 0x20 ADD SWAP2 PUSH2 0xF81 JUMP JUMPDEST DUP3 ADD SWAP2 SWAP1 PUSH1 0x0 MSTORE PUSH1 0x20 PUSH1 0x0 KECCAK256 SWAP1 JUMPDEST DUP2 SLOAD DUP2 MSTORE SWAP1 PUSH1 0x1 ADD SWAP1 PUSH1 0x20 ADD DUP1 DUP4 GT PUSH2 0xF64 JUMPI DUP3 SWAP1 SUB PUSH1 0x1F AND DUP3 ADD SWAP2 JUMPDEST POP POP POP POP POP DUP2 MSTORE PUSH1 0x20 ADD PUSH1 0x1 DUP3 ADD DUP1 SLOAD PUSH1 0x1 DUP2 PUSH1 0x1 AND ISZERO PUSH2 0x100 MUL SUB AND PUSH1 0x2 SWAP1 DIV DUP1 PUSH1 0x1F ADD PUSH1 0x20 DUP1 SWAP2 DIV MUL PUSH1 0x20 ADD PUSH1 0x40 MLOAD SWAP1 DUP2 ADD PUSH1 0x40 MSTORE DUP1 SWAP3 SWAP2 SWAP1 DUP2 DUP2 MSTORE PUSH1 0x20 ADD DUP3 DUP1 SLOAD PUSH1 0x1 DUP2 PUSH1 0x1 AND ISZERO PUSH2 0x100 MUL SUB AND PUSH1 0x2 SWAP1 DIV DUP1 ISZERO PUSH2 0x1023 JUMPI DUP1 PUSH1 0x1F LT PUSH2 0xFF8 JUMPI PUSH2 0x100 DUP1 DUP4 SLOAD DIV MUL DUP4 MSTORE SWAP2 PUSH1 0x20 ADD SWAP2 PUSH2 0x1023 JUMP JUMPDEST DUP3 ADD SWAP2 SWAP1 PUSH1 0x0 MSTORE PUSH1 0x20 PUSH1 0x0 KECCAK256 SWAP1 JUMPDEST DUP2 SLOAD DUP2 MSTORE SWAP1 PUSH1 0x1 ADD SWAP1 PUSH1 0x20 ADD DUP1 DUP4 GT PUSH2 0x1006 JUMPI DUP3 SWAP1 SUB PUSH1 0x1F AND DUP3 ADD SWAP2 JUMPDEST POP POP POP POP POP DUP2 MSTORE PUSH1 0x20 ADD PUSH1 0x2 DUP3 ADD SLOAD DUP2 MSTORE PUSH1 0x20 ADD PUSH1 0x3 DUP3 ADD SLOAD DUP2 MSTORE PUSH1 0x20 ADD PUSH1 0x4 DUP3 ADD SLOAD DUP2 MSTORE PUSH1 0x20 ADD PUSH1 0x5 DUP3 ADD PUSH1 0x0 SWAP1 SLOAD SWAP1 PUSH2 0x100 EXP SWAP1 DIV PUSH20 0xFFFFFFFFFFFFFFFFFFFFFFFFFFFFFFFFFFFFFFFF AND PUSH20 0xFFFFFFFFFFFFFFFFFFFFFFFFFFFFFFFFFFFFFFFF AND PUSH20 0xFFFFFFFFFFFFFFFFFFFFFFFFFFFFFFFFFFFFFFFF AND DUP2 MSTORE POP POP DUP2 MSTORE PUSH1 0x20 ADD SWAP1 PUSH1 0x1 ADD SWAP1 PUSH2 0xEC5 JUMP JUMPDEST POP POP POP POP SWAP1 POP SWAP1 JUMP JUMPDEST PUSH1 0x40 MLOAD DUP1 PUSH1 0xC0 ADD PUSH1 0x40 MSTORE DUP1 PUSH1 0x60 DUP2 MSTORE PUSH1 0x20 ADD PUSH1 0x60 DUP2 MSTORE PUSH1 0x20 ADD PUSH1 0x0 DUP2 MSTORE PUSH1 0x20 ADD PUSH1 0x0 DUP2 MSTORE PUSH1 0x20 ADD PUSH1 0x0 DUP2 MSTORE PUSH1 0x20 ADD PUSH1 0x0 PUSH20 0xFFFFFFFFFFFFFFFFFFFFFFFFFFFFFFFFFFFFFFFF AND DUP2 MSTORE POP SWAP1 JUMP JUMPDEST DUP3 DUP1 SLOAD PUSH1 0x1 DUP2 PUSH1 0x1 AND ISZERO PUSH2 0x100 MUL SUB AND PUSH1 0x2 SWAP1 DIV SWAP1 PUSH1 0x0 MSTORE PUSH1 0x20 PUSH1 0x0 KECCAK256 SWAP1 PUSH1 0x1F ADD PUSH1 0x20 SWAP1 DIV DUP2 ADD SWAP3 DUP3 PUSH1 0x1F LT PUSH2 0x1145 JUMPI DUP1 MLOAD PUSH1 0xFF NOT AND DUP4 DUP1 ADD OR DUP6 SSTORE PUSH2 0x1173 JUMP JUMPDEST DUP3 DUP1 ADD PUSH1 0x1 ADD DUP6 SSTORE DUP3 ISZERO PUSH2 0x1173 JUMPI SWAP2 DUP3 ADD JUMPDEST DUP3 DUP2 GT ISZERO PUSH2 0x1172 JUMPI DUP3 MLOAD DUP3 SSTORE SWAP2 PUSH1 0x20 ADD SWAP2 SWAP1 PUSH1 0x1 ADD SWAP1 PUSH2 0x1157 JUMP JUMPDEST JUMPDEST POP SWAP1 POP PUSH2 0x1180 SWAP2 SWAP1 PUSH2 0x1184 JUMP JUMPDEST POP SWAP1 JUMP JUMPDEST JUMPDEST DUP1 DUP3 GT ISZERO PUSH2 0x119D JUMPI PUSH1 0x0 DUP2 PUSH1 0x0 SWAP1 SSTORE POP PUSH1 0x1 ADD PUSH2 0x1185 JUMP JUMPDEST POP SWAP1 JUMP JUMPDEST PUSH1 0x0 DUP2 CALLDATALOAD SWAP1 POP PUSH2 0x11B0 DUP2 PUSH2 0x1A31 JUMP JUMPDEST SWAP3 SWAP2 POP POP JUMP JUMPDEST PUSH1 0x0 DUP3 PUSH1 0x1F DUP4 ADD SLT PUSH2 0x11C7 JUMPI PUSH1 0x0 DUP1 REVERT JUMPDEST DUP2 CALLDATALOAD PUSH2 0x11DA PUSH2 0x11D5 DUP3 PUSH2 0x18FE JUMP JUMPDEST PUSH2 0x18CD JUMP JUMPDEST SWAP2 POP DUP1 DUP3 MSTORE PUSH1 0x20 DUP4 ADD PUSH1 0x20 DUP4 ADD DUP6 DUP4 DUP4 ADD GT ISZERO PUSH2 0x11F6 JUMPI PUSH1 0x0 DUP1 REVERT JUMPDEST PUSH2 0x1201 DUP4 DUP3 DUP5 PUSH2 0x19DC JUMP JUMPDEST POP POP POP SWAP3 SWAP2 POP POP JUMP JUMPDEST PUSH1 0x0 DUP2 CALLDATALOAD SWAP1 POP PUSH2 0x1219 DUP2 PUSH2 0x1A48 JUMP JUMPDEST SWAP3 SWAP2 POP POP JUMP JUMPDEST PUSH1 0x0 DUP1 PUSH1 0x0 DUP1 PUSH1 0x80 DUP6 DUP8 SUB SLT ISZERO PUSH2 0x1235 JUMPI PUSH1 0x0 DUP1 REVERT JUMPDEST PUSH1 0x0 DUP6 ADD CALLDATALOAD PUSH8 0xFFFFFFFFFFFFFFFF DUP2 GT ISZERO PUSH2 0x124F JUMPI PUSH1 0x0 DUP1 REVERT JUMPDEST PUSH2 0x125B DUP8 DUP3 DUP9 ADD PUSH2 0x11B6 JUMP JUMPDEST SWAP5 POP POP PUSH1 0x20 DUP6 ADD CALLDATALOAD PUSH8 0xFFFFFFFFFFFFFFFF DUP2 GT ISZERO PUSH2 0x1278 JUMPI PUSH1 0x0 DUP1 REVERT JUMPDEST PUSH2 0x1284 DUP8 DUP3 DUP9 ADD PUSH2 0x11B6 JUMP JUMPDEST SWAP4 POP POP PUSH1 0x40 PUSH2 0x1295 DUP8 DUP3 DUP9 ADD PUSH2 0x120A JUMP JUMPDEST SWAP3 POP POP PUSH1 0x60 PUSH2 0x12A6 DUP8 DUP3 DUP9 ADD PUSH2 0x120A JUMP JUMPDEST SWAP2 POP POP SWAP3 SWAP6 SWAP2 SWAP5 POP SWAP3 POP JUMP JUMPDEST PUSH1 0x0 PUSH1 0x20 DUP3 DUP5 SUB SLT ISZERO PUSH2 0x12C4 JUMPI PUSH1 0x0 DUP1 REVERT JUMPDEST PUSH1 0x0 PUSH2 0x12D2 DUP5 DUP3 DUP6 ADD PUSH2 0x120A JUMP JUMPDEST SWAP2 POP POP SWAP3 SWAP2 POP POP JUMP JUMPDEST PUSH1 0x0 DUP1 PUSH1 0x40 DUP4 DUP6 SUB SLT ISZERO PUSH2 0x12EE JUMPI PUSH1 0x0 DUP1 REVERT JUMPDEST PUSH1 0x0 PUSH2 0x12FC DUP6 DUP3 DUP7 ADD PUSH2 0x120A JUMP JUMPDEST SWAP3 POP POP PUSH1 0x20 PUSH2 0x130D DUP6 DUP3 DUP7 ADD PUSH2 0x11A1 JUMP JUMPDEST SWAP2 POP POP SWAP3 POP SWAP3 SWAP1 POP JUMP JUMPDEST PUSH1 0x0 DUP1 PUSH1 0x0 PUSH1 0x60 DUP5 DUP7 SUB SLT ISZERO PUSH2 0x132C JUMPI PUSH1 0x0 DUP1 REVERT JUMPDEST PUSH1 0x0 PUSH2 0x133A DUP7 DUP3 DUP8 ADD PUSH2 0x120A JUMP JUMPDEST SWAP4 POP POP PUSH1 0x20 DUP5 ADD CALLDATALOAD PUSH8 0xFFFFFFFFFFFFFFFF DUP2 GT ISZERO PUSH2 0x1357 JUMPI PUSH1 0x0 DUP1 REVERT JUMPDEST PUSH2 0x1363 DUP7 DUP3 DUP8 ADD PUSH2 0x11B6 JUMP JUMPDEST SWAP3 POP POP PUSH1 0x40 DUP5 ADD CALLDATALOAD PUSH8 0xFFFFFFFFFFFFFFFF DUP2 GT ISZERO PUSH2 0x1380 JUMPI PUSH1 0x0 DUP1 REVERT JUMPDEST PUSH2 0x138C DUP7 DUP3 DUP8 ADD PUSH2 0x11B6 JUMP JUMPDEST SWAP2 POP POP SWAP3 POP SWAP3 POP SWAP3 JUMP JUMPDEST PUSH1 0x0 PUSH2 0x13A2 DUP4 DUP4 PUSH2 0x1696 JUMP JUMPDEST SWAP1 POP SWAP3 SWAP2 POP POP JUMP JUMPDEST PUSH2 0x13B3 DUP2 PUSH2 0x1994 JUMP JUMPDEST DUP3 MSTORE POP POP JUMP JUMPDEST PUSH2 0x13C2 DUP2 PUSH2 0x1994 JUMP JUMPDEST DUP3 MSTORE POP POP JUMP JUMPDEST PUSH1 0x0 PUSH2 0x13D3 DUP3 PUSH2 0x193E JUMP JUMPDEST PUSH2 0x13DD DUP2 DUP6 PUSH2 0x1961 JUMP JUMPDEST SWAP4 POP DUP4 PUSH1 0x20 DUP3 MUL DUP6 ADD PUSH2 0x13EF DUP6 PUSH2 0x192E JUMP JUMPDEST DUP1 PUSH1 0x0 JUMPDEST DUP6 DUP2 LT ISZERO PUSH2 0x142B JUMPI DUP5 DUP5 SUB DUP10 MSTORE DUP2 MLOAD PUSH2 0x140C DUP6 DUP3 PUSH2 0x1396 JUMP JUMPDEST SWAP5 POP PUSH2 0x1417 DUP4 PUSH2 0x1954 JUMP JUMPDEST SWAP3 POP PUSH1 0x20 DUP11 ADD SWAP10 POP POP PUSH1 0x1 DUP2 ADD SWAP1 POP PUSH2 0x13F3 JUMP JUMPDEST POP DUP3 SWAP8 POP DUP8 SWAP6 POP POP POP POP POP POP SWAP3 SWAP2 POP POP JUMP JUMPDEST PUSH2 0x1446 DUP2 PUSH2 0x19A6 JUMP JUMPDEST DUP3 MSTORE POP POP JUMP JUMPDEST PUSH1 0x0 PUSH2 0x1457 DUP3 PUSH2 0x1949 JUMP JUMPDEST PUSH2 0x1461 DUP2 DUP6 PUSH2 0x1972 JUMP JUMPDEST SWAP4 POP PUSH2 0x1471 DUP2 DUP6 PUSH1 0x20 DUP7 ADD PUSH2 0x19EB JUMP JUMPDEST PUSH2 0x147A DUP2 PUSH2 0x1A20 JUMP JUMPDEST DUP5 ADD SWAP2 POP POP SWAP3 SWAP2 POP POP JUMP JUMPDEST PUSH1 0x0 PUSH2 0x1490 DUP3 PUSH2 0x1949 JUMP JUMPDEST PUSH2 0x149A DUP2 DUP6 PUSH2 0x1983 JUMP JUMPDEST SWAP4 POP PUSH2 0x14AA DUP2 DUP6 PUSH1 0x20 DUP7 ADD PUSH2 0x19EB JUMP JUMPDEST PUSH2 0x14B3 DUP2 PUSH2 0x1A20 JUMP JUMPDEST DUP5 ADD SWAP2 POP POP SWAP3 SWAP2 POP POP JUMP JUMPDEST PUSH1 0x0 PUSH2 0x14CB PUSH1 0x22 DUP4 PUSH2 0x1983 JUMP JUMPDEST SWAP2 POP PUSH32 0x566F74696E67206973206E6F7420616C6C6F7765642061742074686973207469 PUSH1 0x0 DUP4 ADD MSTORE PUSH32 0x6D65000000000000000000000000000000000000000000000000000000000000 PUSH1 0x20 DUP4 ADD MSTORE PUSH1 0x40 DUP3 ADD SWAP1 POP SWAP2 SWAP1 POP JUMP JUMPDEST PUSH1 0x0 PUSH2 0x1531 PUSH1 0x17 DUP4 PUSH2 0x1983 JUMP JUMPDEST SWAP2 POP PUSH32 0x50726F706F73616C20646F6573206E6F74206578697374000000000000000000 PUSH1 0x0 DUP4 ADD MSTORE PUSH1 0x20 DUP3 ADD SWAP1 POP SWAP2 SWAP1 POP JUMP JUMPDEST PUSH1 0x0 PUSH2 0x1571 PUSH1 0x28 DUP4 PUSH2 0x1983 JUMP JUMPDEST SWAP2 POP PUSH32 0x596F7520617265206E6F74207468652063726561746F72206F66207468697320 PUSH1 0x0 DUP4 ADD MSTORE PUSH32 0x70726F706F73616C000000000000000000000000000000000000000000000000 PUSH1 0x20 DUP4 ADD MSTORE PUSH1 0x40 DUP3 ADD SWAP1 POP SWAP2 SWAP1 POP JUMP JUMPDEST PUSH1 0x0 PUSH2 0x15D7 PUSH1 0x27 DUP4 PUSH2 0x1983 JUMP JUMPDEST SWAP2 POP PUSH32 0x596F75206861766520616C726561647920766F746564206F6E20746869732070 PUSH1 0x0 DUP4 ADD MSTORE PUSH32 0x726F706F73616C00000000000000000000000000000000000000000000000000 PUSH1 0x20 DUP4 ADD MSTORE PUSH1 0x40 DUP3 ADD SWAP1 POP SWAP2 SWAP1 POP JUMP JUMPDEST PUSH1 0x0 PUSH2 0x163D PUSH1 0x23 DUP4 PUSH2 0x1983 JUMP JUMPDEST SWAP2 POP PUSH32 0x596F752068617665206E6F7420766F746564206F6E20746869732070726F706F PUSH1 0x0 DUP4 ADD MSTORE PUSH32 0x73616C0000000000000000000000000000000000000000000000000000000000 PUSH1 0x20 DUP4 ADD MSTORE PUSH1 0x40 DUP3 ADD SWAP1 POP SWAP2 SWAP1 POP JUMP JUMPDEST PUSH1 0x0 PUSH1 0xC0 DUP4 ADD PUSH1 0x0 DUP4 ADD MLOAD DUP5 DUP3 SUB PUSH1 0x0 DUP7 ADD MSTORE PUSH2 0x16B3 DUP3 DUP3 PUSH2 0x144C JUMP JUMPDEST SWAP2 POP POP PUSH1 0x20 DUP4 ADD MLOAD DUP5 DUP3 SUB PUSH1 0x20 DUP7 ADD MSTORE PUSH2 0x16CD DUP3 DUP3 PUSH2 0x144C JUMP JUMPDEST SWAP2 POP POP PUSH1 0x40 DUP4 ADD MLOAD PUSH2 0x16E2 PUSH1 0x40 DUP7 ADD DUP3 PUSH2 0x1726 JUMP JUMPDEST POP PUSH1 0x60 DUP4 ADD MLOAD PUSH2 0x16F5 PUSH1 0x60 DUP7 ADD DUP3 PUSH2 0x1726 JUMP JUMPDEST POP PUSH1 0x80 DUP4 ADD MLOAD PUSH2 0x1708 PUSH1 0x80 DUP7 ADD DUP3 PUSH2 0x1726 JUMP JUMPDEST POP PUSH1 0xA0 DUP4 ADD MLOAD PUSH2 0x171B PUSH1 0xA0 DUP7 ADD DUP3 PUSH2 0x13AA JUMP JUMPDEST POP DUP1 SWAP2 POP POP SWAP3 SWAP2 POP POP JUMP JUMPDEST PUSH2 0x172F DUP2 PUSH2 0x19D2 JUMP JUMPDEST DUP3 MSTORE POP POP JUMP JUMPDEST PUSH2 0x173E DUP2 PUSH2 0x19D2 JUMP JUMPDEST DUP3 MSTORE POP POP JUMP JUMPDEST PUSH1 0x0 PUSH1 0x20 DUP3 ADD SWAP1 POP DUP2 DUP2 SUB PUSH1 0x0 DUP4 ADD MSTORE PUSH2 0x175E DUP2 DUP5 PUSH2 0x13C8 JUMP JUMPDEST SWAP1 POP SWAP3 SWAP2 POP POP JUMP JUMPDEST PUSH1 0x0 PUSH1 0x20 DUP3 ADD SWAP1 POP PUSH2 0x177B PUSH1 0x0 DUP4 ADD DUP5 PUSH2 0x143D JUMP JUMPDEST SWAP3 SWAP2 POP POP JUMP JUMPDEST PUSH1 0x0 PUSH1 0x20 DUP3 ADD SWAP1 POP DUP2 DUP2 SUB PUSH1 0x0 DUP4 ADD MSTORE PUSH2 0x179B DUP2 DUP5 PUSH2 0x1485 JUMP JUMPDEST SWAP1 POP SWAP3 SWAP2 POP POP JUMP JUMPDEST PUSH1 0x0 PUSH1 0xC0 DUP3 ADD SWAP1 POP DUP2 DUP2 SUB PUSH1 0x0 DUP4 ADD MSTORE PUSH2 0x17BD DUP2 DUP10 PUSH2 0x1485 JUMP JUMPDEST SWAP1 POP DUP2 DUP2 SUB PUSH1 0x20 DUP4 ADD MSTORE PUSH2 0x17D1 DUP2 DUP9 PUSH2 0x1485 JUMP JUMPDEST SWAP1 POP PUSH2 0x17E0 PUSH1 0x40 DUP4 ADD DUP8 PUSH2 0x1735 JUMP JUMPDEST PUSH2 0x17ED PUSH1 0x60 DUP4 ADD DUP7 PUSH2 0x1735 JUMP JUMPDEST PUSH2 0x17FA PUSH1 0x80 DUP4 ADD DUP6 PUSH2 0x1735 JUMP JUMPDEST PUSH2 0x1807 PUSH1 0xA0 DUP4 ADD DUP5 PUSH2 0x13B9 JUMP JUMPDEST SWAP8 SWAP7 POP POP POP POP POP POP POP JUMP JUMPDEST PUSH1 0x0 PUSH1 0x20 DUP3 ADD SWAP1 POP DUP2 DUP2 SUB PUSH1 0x0 DUP4 ADD MSTORE PUSH2 0x182B DUP2 PUSH2 0x14BE JUMP JUMPDEST SWAP1 POP SWAP2 SWAP1 POP JUMP JUMPDEST PUSH1 0x0 PUSH1 0x20 DUP3 ADD SWAP1 POP DUP2 DUP2 SUB PUSH1 0x0 DUP4 ADD MSTORE PUSH2 0x184B DUP2 PUSH2 0x1524 JUMP JUMPDEST SWAP1 POP SWAP2 SWAP1 POP JUMP JUMPDEST PUSH1 0x0 PUSH1 0x20 DUP3 ADD SWAP1 POP DUP2 DUP2 SUB PUSH1 0x0 DUP4 ADD MSTORE PUSH2 0x186B DUP2 PUSH2 0x1564 JUMP JUMPDEST SWAP1 POP SWAP2 SWAP1 POP JUMP JUMPDEST PUSH1 0x0 PUSH1 0x20 DUP3 ADD SWAP1 POP DUP2 DUP2 SUB PUSH1 0x0 DUP4 ADD MSTORE PUSH2 0x188B DUP2 PUSH2 0x15CA JUMP JUMPDEST SWAP1 POP SWAP2 SWAP1 POP JUMP JUMPDEST PUSH1 0x0 PUSH1 0x20 DUP3 ADD SWAP1 POP DUP2 DUP2 SUB PUSH1 0x0 DUP4 ADD MSTORE PUSH2 0x18AB DUP2 PUSH2 0x1630 JUMP JUMPDEST SWAP1 POP SWAP2 SWAP1 POP JUMP JUMPDEST PUSH1 0x0 PUSH1 0x20 DUP3 ADD SWAP1 POP PUSH2 0x18C7 PUSH1 0x0 DUP4 ADD DUP5 PUSH2 0x1735 JUMP JUMPDEST SWAP3 SWAP2 POP POP JUMP JUMPDEST PUSH1 0x0 PUSH1 0x40 MLOAD SWAP1 POP DUP2 DUP2 ADD DUP2 DUP2 LT PUSH8 0xFFFFFFFFFFFFFFFF DUP3 GT OR ISZERO PUSH2 0x18F4 JUMPI PUSH2 0x18F3 PUSH2 0x1A1E JUMP JUMPDEST JUMPDEST DUP1 PUSH1 0x40 MSTORE POP SWAP2 SWAP1 POP JUMP JUMPDEST PUSH1 0x0 PUSH8 0xFFFFFFFFFFFFFFFF DUP3 GT ISZERO PUSH2 0x1919 JUMPI PUSH2 0x1918 PUSH2 0x1A1E JUMP JUMPDEST JUMPDEST PUSH1 0x1F NOT PUSH1 0x1F DUP4 ADD AND SWAP1 POP PUSH1 0x20 DUP2 ADD SWAP1 POP SWAP2 SWAP1 POP JUMP JUMPDEST PUSH1 0x0 DUP2 SWAP1 POP PUSH1 0x20 DUP3 ADD SWAP1 POP SWAP2 SWAP1 POP JUMP JUMPDEST PUSH1 0x0 DUP2 MLOAD SWAP1 POP SWAP2 SWAP1 POP JUMP JUMPDEST PUSH1 0x0 DUP2 MLOAD SWAP1 POP SWAP2 SWAP1 POP JUMP JUMPDEST PUSH1 0x0 PUSH1 0x20 DUP3 ADD SWAP1 POP SWAP2 SWAP1 POP JUMP JUMPDEST PUSH1 0x0 DUP3 DUP3 MSTORE PUSH1 0x20 DUP3 ADD SWAP1 POP SWAP3 SWAP2 POP POP JUMP JUMPDEST PUSH1 0x0 DUP3 DUP3 MSTORE PUSH1 0x20 DUP3 ADD SWAP1 POP SWAP3 SWAP2 POP POP JUMP JUMPDEST PUSH1 0x0 DUP3 DUP3 MSTORE PUSH1 0x20 DUP3 ADD SWAP1 POP SWAP3 SWAP2 POP POP JUMP JUMPDEST PUSH1 0x0 PUSH2 0x199F DUP3 PUSH2 0x19B2 JUMP JUMPDEST SWAP1 POP SWAP2 SWAP1 POP JUMP JUMPDEST PUSH1 0x0 DUP2 ISZERO ISZERO SWAP1 POP SWAP2 SWAP1 POP JUMP JUMPDEST PUSH1 0x0 PUSH20 0xFFFFFFFFFFFFFFFFFFFFFFFFFFFFFFFFFFFFFFFF DUP3 AND SWAP1 POP SWAP2 SWAP1 POP JUMP JUMPDEST PUSH1 0x0 DUP2 SWAP1 POP SWAP2 SWAP1 POP JUMP JUMPDEST DUP3 DUP2 DUP4 CALLDATACOPY PUSH1 0x0 DUP4 DUP4 ADD MSTORE POP POP POP JUMP JUMPDEST PUSH1 0x0 JUMPDEST DUP4 DUP2 LT ISZERO PUSH2 0x1A09 JUMPI DUP1 DUP3 ADD MLOAD DUP2 DUP5 ADD MSTORE PUSH1 0x20 DUP2 ADD SWAP1 POP PUSH2 0x19EE JUMP JUMPDEST DUP4 DUP2 GT ISZERO PUSH2 0x1A18 JUMPI PUSH1 0x0 DUP5 DUP5 ADD MSTORE JUMPDEST POP POP POP POP JUMP JUMPDEST INVALID JUMPDEST PUSH1 0x0 PUSH1 0x1F NOT PUSH1 0x1F DUP4 ADD AND SWAP1 POP SWAP2 SWAP1 POP JUMP JUMPDEST PUSH2 0x1A3A DUP2 PUSH2 0x1994 JUMP JUMPDEST DUP2 EQ PUSH2 0x1A45 JUMPI PUSH1 0x0 DUP1 REVERT JUMPDEST POP JUMP JUMPDEST PUSH2 0x1A51 DUP2 PUSH2 0x19D2 JUMP JUMPDEST DUP2 EQ PUSH2 0x1A5C JUMPI PUSH1 0x0 DUP1 REVERT JUMPDEST POP JUMP INVALID LOG2 PUSH5 0x6970667358 0x22 SLT KECCAK256 0xA5 PUSH7 0xCBB2C0089EC81C DUP14 CODECOPY PUSH8 0xDDEB779361A28886 0x4C 0xCB DUP12 JUMPDEST 0x4B DUP11 0xC5 DUP2 0xE9 0xED BYTE 0x5F PUSH5 0x736F6C6343 STOP SMOD MUL STOP CALLER "
				},
				"gasEstimates": {
					"creation": {
						"codeDepositCost": "1361000",
						"executionCost": "1417",
						"totalCost": "1362417"
					},
					"external": {
						"createProposal(string,string,uint256,uint256)": "infinite",
						"editProposal(uint256,string,string)": "infinite",
						"getAllProposals()": "infinite",
						"getProposal(uint256)": "infinite",
						"getTotalProposals()": "1190",
						"hasVoted(uint256,address)": "1854",
						"proposals(uint256)": "infinite",
						"undoVote(uint256)": "46588",
						"vote(uint256)": "infinite"
					}
				},
				"methodIdentifiers": {
					"createProposal(string,string,uint256,uint256)": "6b5e1766",
					"editProposal(uint256,string,string)": "bc34c544",
					"getAllProposals()": "cceb68f5",
					"getProposal(uint256)": "c7f758a8",
					"getTotalProposals()": "1a5007dd",
					"hasVoted(uint256,address)": "43859632",
					"proposals(uint256)": "013cf08b",
					"undoVote(uint256)": "b01f3cae",
					"vote(uint256)": "0121b93f"
				}
			},
			"storageLayout": {
				"storage": [
					{
						"astId": 18,
						"contract": "voting.sol:Voting",
						"label": "proposals",
						"offset": 0,
						"slot": "0",
						"type": "t_array(t_struct(Proposal)15_storage)dyn_storage"
					},
					{
						"astId": 24,
						"contract": "voting.sol:Voting",
						"label": "hasVoted",
						"offset": 0,
						"slot": "1",
						"type": "t_mapping(t_uint256,t_mapping(t_address,t_bool))"
					}
				],
				"types": {
					"t_address": {
						"encoding": "inplace",
						"label": "address",
						"numberOfBytes": "20"
					},
					"t_array(t_struct(Proposal)15_storage)dyn_storage": {
						"base": "t_struct(Proposal)15_storage",
						"encoding": "dynamic_array",
						"label": "struct Voting.Proposal[]",
						"numberOfBytes": "32"
					},
					"t_bool": {
						"encoding": "inplace",
						"label": "bool",
						"numberOfBytes": "1"
					},
					"t_mapping(t_address,t_bool)": {
						"encoding": "mapping",
						"key": "t_address",
						"label": "mapping(address => bool)",
						"numberOfBytes": "32",
						"value": "t_bool"
					},
					"t_mapping(t_uint256,t_mapping(t_address,t_bool))": {
						"encoding": "mapping",
						"key": "t_uint256",
						"label": "mapping(uint256 => mapping(address => bool))",
						"numberOfBytes": "32",
						"value": "t_mapping(t_address,t_bool)"
					},
					"t_string_storage": {
						"encoding": "bytes",
						"label": "string",
						"numberOfBytes": "32"
					},
					"t_struct(Proposal)15_storage": {
						"encoding": "inplace",
						"label": "struct Voting.Proposal",
						"members": [
							{
								"astId": 4,
								"contract": "voting.sol:Voting",
								"label": "name",
								"offset": 0,
								"slot": "0",
								"type": "t_string_storage"
							},
							{
								"astId": 6,
								"contract": "voting.sol:Voting",
								"label": "description",
								"offset": 0,
								"slot": "1",
								"type": "t_string_storage"
							},
							{
								"astId": 8,
								"contract": "voting.sol:Voting",
								"label": "voteCount",
								"offset": 0,
								"slot": "2",
								"type": "t_uint256"
							},
							{
								"astId": 10,
								"contract": "voting.sol:Voting",
								"label": "startDate",
								"offset": 0,
								"slot": "3",
								"type": "t_uint256"
							},
							{
								"astId": 12,
								"contract": "voting.sol:Voting",
								"label": "endDate",
								"offset": 0,
								"slot": "4",
								"type": "t_uint256"
							},
							{
								"astId": 14,
								"contract": "voting.sol:Voting",
								"label": "creator",
								"offset": 0,
								"slot": "5",
								"type": "t_address"
							}
						],
						"numberOfBytes": "192"
					},
					"t_uint256": {
						"encoding": "inplace",
						"label": "uint256",
						"numberOfBytes": "32"
					}
				}
			},
			"userdoc": {
				"kind": "user",
				"methods": {},
				"version": 1
			}
		}
	}
}